{
  "_format": "hh-sol-artifact-1",
  "contractName": "ERC721Twitter",
  "sourceName": "contracts/ERC721.sol",
  "abi": [
    {
      "inputs": [
        {
          "internalType": "string",
          "name": "name",
          "type": "string"
        },
        {
          "internalType": "string",
          "name": "symbol",
          "type": "string"
        }
      ],
      "stateMutability": "nonpayable",
      "type": "constructor"
    },
    {
      "anonymous": false,
      "inputs": [
        {
          "indexed": true,
          "internalType": "address",
          "name": "owner",
          "type": "address"
        },
        {
          "indexed": true,
          "internalType": "address",
          "name": "approved",
          "type": "address"
        },
        {
          "indexed": true,
          "internalType": "uint256",
          "name": "tokenId",
          "type": "uint256"
        }
      ],
      "name": "Approval",
      "type": "event"
    },
    {
      "anonymous": false,
      "inputs": [
        {
          "indexed": true,
          "internalType": "address",
          "name": "owner",
          "type": "address"
        },
        {
          "indexed": true,
          "internalType": "address",
          "name": "operator",
          "type": "address"
        },
        {
          "indexed": false,
          "internalType": "bool",
          "name": "approved",
          "type": "bool"
        }
      ],
      "name": "ApprovalForAll",
      "type": "event"
    },
    {
      "anonymous": false,
      "inputs": [
        {
          "indexed": true,
          "internalType": "bytes32",
          "name": "role",
          "type": "bytes32"
        },
        {
          "indexed": true,
          "internalType": "bytes32",
          "name": "previousAdminRole",
          "type": "bytes32"
        },
        {
          "indexed": true,
          "internalType": "bytes32",
          "name": "newAdminRole",
          "type": "bytes32"
        }
      ],
      "name": "RoleAdminChanged",
      "type": "event"
    },
    {
      "anonymous": false,
      "inputs": [
        {
          "indexed": true,
          "internalType": "bytes32",
          "name": "role",
          "type": "bytes32"
        },
        {
          "indexed": true,
          "internalType": "address",
          "name": "account",
          "type": "address"
        },
        {
          "indexed": true,
          "internalType": "address",
          "name": "sender",
          "type": "address"
        }
      ],
      "name": "RoleGranted",
      "type": "event"
    },
    {
      "anonymous": false,
      "inputs": [
        {
          "indexed": true,
          "internalType": "bytes32",
          "name": "role",
          "type": "bytes32"
        },
        {
          "indexed": true,
          "internalType": "address",
          "name": "account",
          "type": "address"
        },
        {
          "indexed": true,
          "internalType": "address",
          "name": "sender",
          "type": "address"
        }
      ],
      "name": "RoleRevoked",
      "type": "event"
    },
    {
      "anonymous": false,
      "inputs": [
        {
          "indexed": true,
          "internalType": "address",
          "name": "from",
          "type": "address"
        },
        {
          "indexed": true,
          "internalType": "address",
          "name": "to",
          "type": "address"
        },
        {
          "indexed": true,
          "internalType": "uint256",
          "name": "tokenId",
          "type": "uint256"
        }
      ],
      "name": "Transfer",
      "type": "event"
    },
    {
      "inputs": [],
      "name": "DEFAULT_ADMIN_ROLE",
      "outputs": [
        {
          "internalType": "bytes32",
          "name": "",
          "type": "bytes32"
        }
      ],
      "stateMutability": "view",
      "type": "function"
    },
    {
      "inputs": [],
      "name": "MINTER_ROLE",
      "outputs": [
        {
          "internalType": "bytes32",
          "name": "",
          "type": "bytes32"
        }
      ],
      "stateMutability": "view",
      "type": "function"
    },
    {
      "inputs": [],
      "name": "PERMIT_TYPEHASH",
      "outputs": [
        {
          "internalType": "bytes32",
          "name": "",
          "type": "bytes32"
        }
      ],
      "stateMutability": "view",
      "type": "function"
    },
    {
      "inputs": [
        {
          "internalType": "address",
          "name": "to",
          "type": "address"
        },
        {
          "internalType": "uint256",
          "name": "tokenId",
          "type": "uint256"
        }
      ],
      "name": "approve",
      "outputs": [],
      "stateMutability": "nonpayable",
      "type": "function"
    },
    {
      "inputs": [
        {
          "internalType": "address",
          "name": "owner",
          "type": "address"
        }
      ],
      "name": "balanceOf",
      "outputs": [
        {
          "internalType": "uint256",
          "name": "",
          "type": "uint256"
        }
      ],
      "stateMutability": "view",
      "type": "function"
    },
    {
      "inputs": [
        {
          "internalType": "uint256",
          "name": "tokenId",
          "type": "uint256"
        }
      ],
      "name": "getApproved",
      "outputs": [
        {
          "internalType": "address",
          "name": "",
          "type": "address"
        }
      ],
      "stateMutability": "view",
      "type": "function"
    },
    {
      "inputs": [
        {
          "internalType": "bytes32",
          "name": "role",
          "type": "bytes32"
        }
      ],
      "name": "getRoleAdmin",
      "outputs": [
        {
          "internalType": "bytes32",
          "name": "",
          "type": "bytes32"
        }
      ],
      "stateMutability": "view",
      "type": "function"
    },
    {
      "inputs": [
        {
          "internalType": "bytes32",
          "name": "role",
          "type": "bytes32"
        },
        {
          "internalType": "uint256",
          "name": "index",
          "type": "uint256"
        }
      ],
      "name": "getRoleMember",
      "outputs": [
        {
          "internalType": "address",
          "name": "",
          "type": "address"
        }
      ],
      "stateMutability": "view",
      "type": "function"
    },
    {
      "inputs": [
        {
          "internalType": "bytes32",
          "name": "role",
          "type": "bytes32"
        }
      ],
      "name": "getRoleMemberCount",
      "outputs": [
        {
          "internalType": "uint256",
          "name": "",
          "type": "uint256"
        }
      ],
      "stateMutability": "view",
      "type": "function"
    },
    {
      "inputs": [
        {
          "internalType": "bytes32",
          "name": "role",
          "type": "bytes32"
        },
        {
          "internalType": "address",
          "name": "account",
          "type": "address"
        }
      ],
      "name": "grantRole",
      "outputs": [],
      "stateMutability": "nonpayable",
      "type": "function"
    },
    {
      "inputs": [
        {
          "internalType": "bytes32",
          "name": "role",
          "type": "bytes32"
        },
        {
          "internalType": "address",
          "name": "account",
          "type": "address"
        }
      ],
      "name": "hasRole",
      "outputs": [
        {
          "internalType": "bool",
          "name": "",
          "type": "bool"
        }
      ],
      "stateMutability": "view",
      "type": "function"
    },
    {
      "inputs": [
        {
          "internalType": "address",
          "name": "owner",
          "type": "address"
        },
        {
          "internalType": "address",
          "name": "operator",
          "type": "address"
        }
      ],
      "name": "isApprovedForAll",
      "outputs": [
        {
          "internalType": "bool",
          "name": "",
          "type": "bool"
        }
      ],
      "stateMutability": "view",
      "type": "function"
    },
    {
      "inputs": [
        {
          "internalType": "address",
          "name": "user",
          "type": "address"
        },
        {
          "internalType": "uint256",
          "name": "tokenId",
          "type": "uint256"
        },
        {
          "internalType": "string",
          "name": "_username",
          "type": "string"
        }
      ],
      "name": "mint",
      "outputs": [],
      "stateMutability": "nonpayable",
      "type": "function"
    },
    {
      "inputs": [],
      "name": "name",
      "outputs": [
        {
          "internalType": "string",
          "name": "",
          "type": "string"
        }
      ],
      "stateMutability": "view",
      "type": "function"
    },
    {
      "inputs": [
        {
          "internalType": "uint256",
          "name": "tokenId",
          "type": "uint256"
        }
      ],
      "name": "ownerOf",
      "outputs": [
        {
          "internalType": "address",
          "name": "",
          "type": "address"
        }
      ],
      "stateMutability": "view",
      "type": "function"
    },
    {
      "inputs": [
        {
          "internalType": "bytes32",
          "name": "role",
          "type": "bytes32"
        },
        {
          "internalType": "address",
          "name": "account",
          "type": "address"
        }
      ],
      "name": "renounceRole",
      "outputs": [],
      "stateMutability": "nonpayable",
      "type": "function"
    },
    {
      "inputs": [
        {
          "internalType": "bytes32",
          "name": "role",
          "type": "bytes32"
        },
        {
          "internalType": "address",
          "name": "account",
          "type": "address"
        }
      ],
      "name": "revokeRole",
      "outputs": [],
      "stateMutability": "nonpayable",
      "type": "function"
    },
    {
      "inputs": [
        {
          "internalType": "address",
          "name": "from",
          "type": "address"
        },
        {
          "internalType": "address",
          "name": "to",
          "type": "address"
        },
        {
          "internalType": "uint256",
          "name": "tokenId",
          "type": "uint256"
        }
      ],
      "name": "safeTransferFrom",
      "outputs": [],
      "stateMutability": "nonpayable",
      "type": "function"
    },
    {
      "inputs": [
        {
          "internalType": "address",
          "name": "from",
          "type": "address"
        },
        {
          "internalType": "address",
          "name": "to",
          "type": "address"
        },
        {
          "internalType": "uint256",
          "name": "tokenId",
          "type": "uint256"
        },
        {
          "internalType": "bytes",
          "name": "_data",
          "type": "bytes"
        }
      ],
      "name": "safeTransferFrom",
      "outputs": [],
      "stateMutability": "nonpayable",
      "type": "function"
    },
    {
      "inputs": [
        {
          "internalType": "address",
          "name": "operator",
          "type": "address"
        },
        {
          "internalType": "bool",
          "name": "approved",
          "type": "bool"
        }
      ],
      "name": "setApprovalForAll",
      "outputs": [],
      "stateMutability": "nonpayable",
      "type": "function"
    },
    {
      "inputs": [
        {
          "internalType": "uint256",
          "name": "tokenId",
          "type": "uint256"
        },
        {
          "internalType": "string",
          "name": "_username",
          "type": "string"
        },
        {
          "internalType": "bytes",
          "name": "signatures",
          "type": "bytes"
        }
      ],
      "name": "setUsername",
      "outputs": [],
      "stateMutability": "nonpayable",
      "type": "function"
    },
    {
      "inputs": [
        {
          "internalType": "bytes4",
          "name": "interfaceId",
          "type": "bytes4"
        }
      ],
      "name": "supportsInterface",
      "outputs": [
        {
          "internalType": "bool",
          "name": "",
          "type": "bool"
        }
      ],
      "stateMutability": "view",
      "type": "function"
    },
    {
      "inputs": [],
      "name": "symbol",
      "outputs": [
        {
          "internalType": "string",
          "name": "",
          "type": "string"
        }
      ],
      "stateMutability": "view",
      "type": "function"
    },
    {
      "inputs": [
        {
          "internalType": "uint256",
          "name": "_tokenId",
          "type": "uint256"
        }
      ],
      "name": "tokenURI",
      "outputs": [
        {
          "internalType": "string",
          "name": "output",
          "type": "string"
        }
      ],
      "stateMutability": "view",
      "type": "function"
    },
    {
      "inputs": [
        {
          "internalType": "address",
          "name": "from",
          "type": "address"
        },
        {
          "internalType": "address",
          "name": "to",
          "type": "address"
        },
        {
          "internalType": "uint256",
          "name": "tokenId",
          "type": "uint256"
        }
      ],
      "name": "transferFrom",
      "outputs": [],
      "stateMutability": "nonpayable",
      "type": "function"
    },
    {
      "inputs": [
        {
          "internalType": "uint256",
          "name": "",
          "type": "uint256"
        }
      ],
      "name": "username",
      "outputs": [
        {
          "internalType": "string",
          "name": "",
          "type": "string"
        }
      ],
      "stateMutability": "view",
      "type": "function"
    }
  ],
  "bytecode": "0x6101206040523480156200001257600080fd5b506040516200305738038062003057833981016040819052620000359162000446565b604080518082018252600d81526c22a9219b9918aa3bb4ba3a32b960991b60208083019182528351808501855260038152620312e360ec1b81830152835190922060c08181527fe6bbd6277e1bf288eed5e8d1780f9a50b239e86b153736bceebccf4ea79d90b360e08190524660a081815288517f8b73c3c69bb8fe3d512ecc4cf759cc79239f7b179b0ffacaa9a75d522b39400f818801819052818b0187905260608201859052608082019390935230818301528951808203909201825290930190975281519190930120879587959493916080526101005250508351620001289250600091506020850190620002ed565b5080516200013e906001906020840190620002ed565b50620001509150600090503362000184565b6200017c7f9f2df0fed2c77648de5860a4cc508cd0818c85b8b8a1ab4ceeef8d981c8956a63362000184565b505062000500565b6200019b8282620001c760201b62000c391760201c565b6000828152600760209081526040909120620001c291839062000c47620001d7821b17901c565b505050565b620001d38282620001f7565b5050565b6000620001ee836001600160a01b0384166200029b565b90505b92915050565b60008281526006602090815260408083206001600160a01b038516845290915290205460ff16620001d35760008281526006602090815260408083206001600160a01b03851684529091529020805460ff19166001179055620002573390565b6001600160a01b0316816001600160a01b0316837f2f8788117e7eff1d82e926ec794901d17c78024a50270940304540a733656f0d60405160405180910390a45050565b6000818152600183016020526040812054620002e457508154600181810184556000848152602080822090930184905584548482528286019093526040902091909155620001f1565b506000620001f1565b828054620002fb90620004ad565b90600052602060002090601f0160209004810192826200031f57600085556200036a565b82601f106200033a57805160ff19168380011785556200036a565b828001600101855582156200036a579182015b828111156200036a5782518255916020019190600101906200034d565b50620003789291506200037c565b5090565b5b808211156200037857600081556001016200037d565b600082601f830112620003a4578081fd5b81516001600160401b0380821115620003c157620003c1620004ea565b604051601f8301601f19908116603f01168101908282118183101715620003ec57620003ec620004ea565b8160405283815260209250868385880101111562000408578485fd5b8491505b838210156200042b57858201830151818301840152908201906200040c565b838211156200043c57848385830101525b9695505050505050565b6000806040838503121562000459578182fd5b82516001600160401b038082111562000470578384fd5b6200047e8683870162000393565b9350602085015191508082111562000494578283fd5b50620004a38582860162000393565b9150509250929050565b600181811c90821680620004c257607f821691505b60208210811415620004e457634e487b7160e01b600052602260045260246000fd5b50919050565b634e487b7160e01b600052604160045260246000fd5b60805160a05160c05160e05161010051612b1262000545600039600061185c015260006118ab015260006118860152600061180a015260006118330152612b126000f3fe608060405234801561001057600080fd5b506004361061018e5760003560e01c806391d14854116100de578063b88d4fde11610097578063d3fc986411610071578063d3fc986414610382578063d539139314610395578063d547741f146103bc578063e985e9c5146103cf57600080fd5b8063b88d4fde14610349578063c87b56dd1461035c578063ca15c8731461036f57600080fd5b806391d14854146102ed57806395d89b411461030057806398bc10ef14610308578063a217fddf1461031b578063a22cb46514610323578063b51896301461033657600080fd5b80632f2ff15d1161014b57806342842e0e1161012557806342842e0e146102a15780636352211e146102b457806370a08231146102c75780639010d07c146102da57600080fd5b80632f2ff15d1461025457806330adf81f1461026757806336568abe1461028e57600080fd5b806301ffc9a71461019357806306fdde03146101bb578063081812fc146101d0578063095ea7b3146101fb57806323b872dd14610210578063248a9ca314610223575b600080fd5b6101a66101a1366004612347565b61040b565b60405190151581526020015b60405180910390f35b6101c361041c565b6040516101b29190612722565b6101e36101de3660046122ec565b6104ae565b6040516001600160a01b0390911681526020016101b2565b61020e61020936600461226b565b610548565b005b61020e61021e366004612190565b61065e565b6102466102313660046122ec565b60009081526006602052604090206001015490565b6040519081526020016101b2565b61020e610262366004612304565b61068f565b6102467f72155a3c4e9393a0a105c91a7f271ab5f92dad1bc88ef69d96e05e831672071d81565b61020e61029c366004612304565b6106b1565b61020e6102af366004612190565b6106d3565b6101e36102c23660046122ec565b6106ee565b6102466102d5366004612144565b610765565b6101e36102e8366004612326565b6107ec565b6101a66102fb366004612304565b61080b565b6101c3610836565b61020e61031636600461237f565b610845565b610246600081565b61020e610331366004612231565b61095b565b6101c36103443660046122ec565b610a20565b61020e6103573660046121cb565b610aba565b6101c361036a3660046122ec565b610af2565b61024661037d3660046122ec565b610bae565b61020e610390366004612294565b610bc5565b6102467f9f2df0fed2c77648de5860a4cc508cd0818c85b8b8a1ab4ceeef8d981c8956a681565b61020e6103ca366004612304565b610c2f565b6101a66103dd36600461215e565b6001600160a01b03918216600090815260056020908152604080832093909416825291909152205460ff1690565b600061041682610c5c565b92915050565b60606000805461042b906128da565b80601f0160208091040260200160405190810160405280929190818152602001828054610457906128da565b80156104a45780601f10610479576101008083540402835291602001916104a4565b820191906000526020600020905b81548152906001019060200180831161048757829003601f168201915b5050505050905090565b6000818152600260205260408120546001600160a01b031661052c5760405162461bcd60e51b815260206004820152602c60248201527f4552433732313a20617070726f76656420717565727920666f72206e6f6e657860448201526b34b9ba32b73a103a37b5b2b760a11b60648201526084015b60405180910390fd5b506000908152600460205260409020546001600160a01b031690565b6000610553826106ee565b9050806001600160a01b0316836001600160a01b031614156105c15760405162461bcd60e51b815260206004820152602160248201527f4552433732313a20617070726f76616c20746f2063757272656e74206f776e656044820152603960f91b6064820152608401610523565b336001600160a01b03821614806105dd57506105dd81336103dd565b61064f5760405162461bcd60e51b815260206004820152603860248201527f4552433732313a20617070726f76652063616c6c6572206973206e6f74206f7760448201527f6e6572206e6f7220617070726f76656420666f7220616c6c00000000000000006064820152608401610523565b6106598383610c81565b505050565b6106683382610cef565b6106845760405162461bcd60e51b815260040161052390612787565b610659838383610de6565b6106998282610f86565b60008281526007602052604090206106599082610c47565b6106bb8282610fac565b60008281526007602052604090206106599082611026565b61065983838360405180602001604052806000815250610aba565b6000818152600260205260408120546001600160a01b0316806104165760405162461bcd60e51b815260206004820152602960248201527f4552433732313a206f776e657220717565727920666f72206e6f6e657869737460448201526832b73a103a37b5b2b760b91b6064820152608401610523565b60006001600160a01b0382166107d05760405162461bcd60e51b815260206004820152602a60248201527f4552433732313a2062616c616e636520717565727920666f7220746865207a65604482015269726f206164647265737360b01b6064820152608401610523565b506001600160a01b031660009081526003602052604090205490565b6000828152600760205260408120610804908361103b565b9392505050565b60009182526006602090815260408084206001600160a01b0393909316845291905290205460ff1690565b60606001805461042b906128da565b60006108e37f72155a3c4e9393a0a105c91a7f271ab5f92dad1bc88ef69d96e05e831672071d338787876040516020016108809291906126f3565b604051602081830303815290604052805190602001206040516020016108c894939291909384526001600160a01b039290921660208401526040830152606082015260800190565b60405160208183030381529060405280519060200120611047565b905060006108f18284611095565b905061091d7f9f2df0fed2c77648de5860a4cc508cd0818c85b8b8a1ab4ceeef8d981c8956a68261080b565b6109395760405162461bcd60e51b8152600401610523906127d8565b6000868152600860205260409020610952908686611fc8565b50505050505050565b6001600160a01b0382163314156109b45760405162461bcd60e51b815260206004820152601960248201527f4552433732313a20617070726f766520746f2063616c6c6572000000000000006044820152606401610523565b3360008181526005602090815260408083206001600160a01b03871680855290835292819020805460ff191686151590811790915590519081529192917f17307eab39ab6107e8899845ad3d59bd9653f200f220920489ca2b5937696c31910160405180910390a35050565b60086020526000908152604090208054610a39906128da565b80601f0160208091040260200160405190810160405280929190818152602001828054610a65906128da565b8015610ab25780601f10610a8757610100808354040283529160200191610ab2565b820191906000526020600020905b815481529060010190602001808311610a9557829003601f168201915b505050505081565b610ac43383610cef565b610ae05760405162461bcd60e51b815260040161052390612787565b610aec848484846110b9565b50505050565b606060405180610120016040528061010081526020016129dd610100913990508060086000848152602001908152602001600020604051602001610b3792919061240f565b60405160208183030381529060405290506000610b84610b56846110ec565b610b5f84611206565b604051602001610b709291906124e2565b604051602081830303815290604052611206565b905080604051602001610b9791906125fc565b604051602081830303815290604052915050919050565b60008181526007602052604081206104169061137a565b610bef7f9f2df0fed2c77648de5860a4cc508cd0818c85b8b8a1ab4ceeef8d981c8956a63361080b565b610c0b5760405162461bcd60e51b8152600401610523906127d8565b6000838152600860205260409020610c24908383611fc8565b50610aec8484611384565b6106bb82826114c6565b610c4382826114ec565b5050565b6000610804836001600160a01b038416611572565b60006001600160e01b03198216635a05180f60e01b14806104165750610416826115c1565b600081815260046020526040902080546001600160a01b0319166001600160a01b0384169081179091558190610cb6826106ee565b6001600160a01b03167f8c5be1e5ebec7d5bd14f71427d1e84f3dd0314c0f7b2291e5b200ac8c7c3b92560405160405180910390a45050565b6000818152600260205260408120546001600160a01b0316610d685760405162461bcd60e51b815260206004820152602c60248201527f4552433732313a206f70657261746f7220717565727920666f72206e6f6e657860448201526b34b9ba32b73a103a37b5b2b760a11b6064820152608401610523565b6000610d73836106ee565b9050806001600160a01b0316846001600160a01b03161480610dae5750836001600160a01b0316610da3846104ae565b6001600160a01b0316145b80610dde57506001600160a01b0380821660009081526005602090815260408083209388168352929052205460ff165b949350505050565b826001600160a01b0316610df9826106ee565b6001600160a01b031614610e615760405162461bcd60e51b815260206004820152602960248201527f4552433732313a207472616e73666572206f6620746f6b656e2074686174206960448201526839903737ba1037bbb760b91b6064820152608401610523565b6001600160a01b038216610ec35760405162461bcd60e51b8152602060048201526024808201527f4552433732313a207472616e7366657220746f20746865207a65726f206164646044820152637265737360e01b6064820152608401610523565b610ece600082610c81565b6001600160a01b0383166000908152600360205260408120805460019290610ef7908490612880565b90915550506001600160a01b0382166000908152600360205260408120805460019290610f25908490612835565b909155505060008181526002602052604080822080546001600160a01b0319166001600160a01b0386811691821790925591518493918716917fddf252ad1be2c89b69c2b068fc378daa952ba7f163c4a11628f55a4df523b3ef91a4505050565b600082815260066020526040902060010154610fa281336115e6565b61065983836114ec565b6001600160a01b038116331461101c5760405162461bcd60e51b815260206004820152602f60248201527f416363657373436f6e74726f6c3a2063616e206f6e6c792072656e6f756e636560448201526e103937b632b9903337b91039b2b63360891b6064820152608401610523565b610c43828261164a565b6000610804836001600160a01b0384166116b1565b600061080483836117ce565b6000610416611054611806565b8360405161190160f01b6020820152602281018390526042810182905260009060620160405160208183030381529060405280519060200120905092915050565b60008060006110a485856118f9565b915091506110b181611969565b509392505050565b6110c4848484610de6565b6110d084848484611b6d565b610aec5760405162461bcd60e51b815260040161052390612735565b6060816111105750506040805180820190915260018152600360fc1b602082015290565b8160005b811561113a578061112481612915565b91506111339050600a8361284d565b9150611114565b60008167ffffffffffffffff81111561116357634e487b7160e01b600052604160045260246000fd5b6040519080825280601f01601f19166020018201604052801561118d576020820181803683370190505b5090505b8415610dde576111a2600183612880565b91506111af600a86612930565b6111ba906030612835565b60f81b8183815181106111dd57634e487b7160e01b600052603260045260246000fd5b60200101906001600160f81b031916908160001a9053506111ff600a8661284d565b9450611191565b805160609080611226575050604080516020810190915260008152919050565b60006003611235836002612835565b61123f919061284d565b61124a906004612861565b90506000611259826020612835565b67ffffffffffffffff81111561127f57634e487b7160e01b600052604160045260246000fd5b6040519080825280601f01601f1916602001820160405280156112a9576020820181803683370190505b509050600060405180606001604052806040815260200161299d604091399050600181016020830160005b86811015611335576003818a01810151603f601282901c8116860151600c83901c8216870151600684901c831688015192909316870151600891821b60ff94851601821b92841692909201901b91160160e01b8352600490920191016112d4565b50600386066001811461134f57600281146113605761136c565b613d3d60f01b60011983015261136c565b603d60f81b6000198301525b505050918152949350505050565b6000610416825490565b6001600160a01b0382166113da5760405162461bcd60e51b815260206004820181905260248201527f4552433732313a206d696e7420746f20746865207a65726f20616464726573736044820152606401610523565b6000818152600260205260409020546001600160a01b03161561143f5760405162461bcd60e51b815260206004820152601c60248201527f4552433732313a20746f6b656e20616c7265616479206d696e746564000000006044820152606401610523565b6001600160a01b0382166000908152600360205260408120805460019290611468908490612835565b909155505060008181526002602052604080822080546001600160a01b0319166001600160a01b03861690811790915590518392907fddf252ad1be2c89b69c2b068fc378daa952ba7f163c4a11628f55a4df523b3ef908290a45050565b6000828152600660205260409020600101546114e281336115e6565b610659838361164a565b6114f6828261080b565b610c435760008281526006602090815260408083206001600160a01b03851684529091529020805460ff1916600117905561152e3390565b6001600160a01b0316816001600160a01b0316837f2f8788117e7eff1d82e926ec794901d17c78024a50270940304540a733656f0d60405160405180910390a45050565b60008181526001830160205260408120546115b957508154600181810184556000848152602080822090930184905584548482528286019093526040902091909155610416565b506000610416565b60006001600160e01b03198216637965db0b60e01b1480610416575061041682611c7a565b6115f0828261080b565b610c4357611608816001600160a01b03166014611cca565b611613836020611cca565b604051602001611624929190612641565b60408051601f198184030181529082905262461bcd60e51b825261052391600401612722565b611654828261080b565b15610c435760008281526006602090815260408083206001600160a01b0385168085529252808320805460ff1916905551339285917ff6391f5c32d9c69d2a47ea670b442974b53935d1edc7fd64eb21e047a839171b9190a45050565b600081815260018301602052604081205480156117c45760006116d5600183612880565b85549091506000906116e990600190612880565b905081811461176a57600086600001828154811061171757634e487b7160e01b600052603260045260246000fd5b906000526020600020015490508087600001848154811061174857634e487b7160e01b600052603260045260246000fd5b6000918252602080832090910192909255918252600188019052604090208390555b855486908061178957634e487b7160e01b600052603160045260246000fd5b600190038181906000526020600020016000905590558560010160008681526020019081526020016000206000905560019350505050610416565b6000915050610416565b60008260000182815481106117f357634e487b7160e01b600052603260045260246000fd5b9060005260206000200154905092915050565b60007f000000000000000000000000000000000000000000000000000000000000000046141561185557507f000000000000000000000000000000000000000000000000000000000000000090565b50604080517f00000000000000000000000000000000000000000000000000000000000000006020808301919091527f0000000000000000000000000000000000000000000000000000000000000000828401527f000000000000000000000000000000000000000000000000000000000000000060608301524660808301523060a0808401919091528351808403909101815260c0909201909252805191012090565b6000808251604114156119305760208301516040840151606085015160001a61192487828585611eac565b94509450505050611962565b82516040141561195a576020830151604084015161194f868383611f99565b935093505050611962565b506000905060025b9250929050565b600081600481111561198b57634e487b7160e01b600052602160045260246000fd5b14156119945750565b60018160048111156119b657634e487b7160e01b600052602160045260246000fd5b1415611a045760405162461bcd60e51b815260206004820152601860248201527f45434453413a20696e76616c6964207369676e617475726500000000000000006044820152606401610523565b6002816004811115611a2657634e487b7160e01b600052602160045260246000fd5b1415611a745760405162461bcd60e51b815260206004820152601f60248201527f45434453413a20696e76616c6964207369676e6174757265206c656e677468006044820152606401610523565b6003816004811115611a9657634e487b7160e01b600052602160045260246000fd5b1415611aef5760405162461bcd60e51b815260206004820152602260248201527f45434453413a20696e76616c6964207369676e6174757265202773272076616c604482015261756560f01b6064820152608401610523565b6004816004811115611b1157634e487b7160e01b600052602160045260246000fd5b1415611b6a5760405162461bcd60e51b815260206004820152602260248201527f45434453413a20696e76616c6964207369676e6174757265202776272076616c604482015261756560f01b6064820152608401610523565b50565b60006001600160a01b0384163b15611c6f57604051630a85bd0160e11b81526001600160a01b0385169063150b7a0290611bb19033908990889088906004016126b6565b602060405180830381600087803b158015611bcb57600080fd5b505af1925050508015611bfb575060408051601f3d908101601f19168201909252611bf891810190612363565b60015b611c55573d808015611c29576040519150601f19603f3d011682016040523d82523d6000602084013e611c2e565b606091505b508051611c4d5760405162461bcd60e51b815260040161052390612735565b805181602001fd5b6001600160e01b031916630a85bd0160e11b149050610dde565b506001949350505050565b60006001600160e01b031982166380ac58cd60e01b1480611cab57506001600160e01b03198216635b5e139f60e01b145b8061041657506301ffc9a760e01b6001600160e01b0319831614610416565b60606000611cd9836002612861565b611ce4906002612835565b67ffffffffffffffff811115611d0a57634e487b7160e01b600052604160045260246000fd5b6040519080825280601f01601f191660200182016040528015611d34576020820181803683370190505b509050600360fc1b81600081518110611d5d57634e487b7160e01b600052603260045260246000fd5b60200101906001600160f81b031916908160001a905350600f60fb1b81600181518110611d9a57634e487b7160e01b600052603260045260246000fd5b60200101906001600160f81b031916908160001a9053506000611dbe846002612861565b611dc9906001612835565b90505b6001811115611e5d576f181899199a1a9b1b9c1cb0b131b232b360811b85600f1660108110611e0b57634e487b7160e01b600052603260045260246000fd5b1a60f81b828281518110611e2f57634e487b7160e01b600052603260045260246000fd5b60200101906001600160f81b031916908160001a90535060049490941c93611e56816128c3565b9050611dcc565b5083156108045760405162461bcd60e51b815260206004820181905260248201527f537472696e67733a20686578206c656e67746820696e73756666696369656e746044820152606401610523565b6000807f7fffffffffffffffffffffffffffffff5d576e7357a4501ddfe92f46681b20a0831115611ee35750600090506003611f90565b8460ff16601b14158015611efb57508460ff16601c14155b15611f0c5750600090506004611f90565b6040805160008082526020820180845289905260ff881692820192909252606081018690526080810185905260019060a0016020604051602081039080840390855afa158015611f60573d6000803e3d6000fd5b5050604051601f1901519150506001600160a01b038116611f8957600060019250925050611f90565b9150600090505b94509492505050565b6000806001600160ff1b03831660ff84901c601b01611fba87828885611eac565b935093505050935093915050565b828054611fd4906128da565b90600052602060002090601f016020900481019282611ff6576000855561203c565b82601f1061200f5782800160ff1982351617855561203c565b8280016001018555821561203c579182015b8281111561203c578235825591602001919060010190612021565b5061204892915061204c565b5090565b5b80821115612048576000815560010161204d565b80356001600160a01b038116811461207857600080fd5b919050565b600082601f83011261208d578081fd5b813567ffffffffffffffff808211156120a8576120a8612970565b604051601f8301601f19908116603f011681019082821181831017156120d0576120d0612970565b816040528381528660208588010111156120e8578485fd5b8360208701602083013792830160200193909352509392505050565b60008083601f840112612115578182fd5b50813567ffffffffffffffff81111561212c578182fd5b60208301915083602082850101111561196257600080fd5b600060208284031215612155578081fd5b61080482612061565b60008060408385031215612170578081fd5b61217983612061565b915061218760208401612061565b90509250929050565b6000806000606084860312156121a4578081fd5b6121ad84612061565b92506121bb60208501612061565b9150604084013590509250925092565b600080600080608085870312156121e0578081fd5b6121e985612061565b93506121f760208601612061565b925060408501359150606085013567ffffffffffffffff811115612219578182fd5b6122258782880161207d565b91505092959194509250565b60008060408385031215612243578182fd5b61224c83612061565b915060208301358015158114612260578182fd5b809150509250929050565b6000806040838503121561227d578182fd5b61228683612061565b946020939093013593505050565b600080600080606085870312156122a9578384fd5b6122b285612061565b935060208501359250604085013567ffffffffffffffff8111156122d4578283fd5b6122e087828801612104565b95989497509550505050565b6000602082840312156122fd578081fd5b5035919050565b60008060408385031215612316578182fd5b8235915061218760208401612061565b60008060408385031215612338578182fd5b50508035926020909101359150565b600060208284031215612358578081fd5b813561080481612986565b600060208284031215612374578081fd5b815161080481612986565b60008060008060608587031215612394578081fd5b84359350602085013567ffffffffffffffff808211156123b2578283fd5b6123be88838901612104565b909550935060408701359150808211156123d6578283fd5b506122258782880161207d565b600081518084526123fb816020860160208601612897565b601f01601f19169290920160200192915050565b6000835160206124228285838901612897565b600160fe1b9184019182528454600190849080831c8184168061244657607f821691505b85821081141561246457634e487b7160e01b88526022600452602488fd5b808015612478576001811461248d576124bd565b60ff19841688870152828801860194506124bd565b60008b815260209020895b848110156124b35781548a8201890152908701908801612498565b5050858389010194505b50506c1e17ba32bc3a1f1e17b9bb339f60991b83525050600d01979650505050505050565b6e7b276e616d65273a20274e4654202360881b81526000835161250c81600f850160208801612897565b7f272c20276465736372697074696f6e273a2027566f6c7473776170206c6f636b600f918401918201527f732c2063616e206265207573656420746f20626f6f7374206761756765207969602f8201527f656c64732c20766f7465206f6e20746f6b656e20656d697373696f6e2c20616e604f8201527f64207265636569766520627269626573272c2027696d616765273a2027646174606f8201527f613a696d6167652f7376672b786d6c3b6261736536342c000000000000000000608f82015283516125e18160a6840160208801612897565b61277d60f01b60a6929091019182015260a801949350505050565b7f646174613a6170706c69636174696f6e2f6a736f6e3b6261736536342c00000081526000825161263481601d850160208701612897565b91909101601d0192915050565b7f416363657373436f6e74726f6c3a206163636f756e7420000000000000000000815260008351612679816017850160208801612897565b7001034b99036b4b9b9b4b733903937b6329607d1b60179184019182015283516126aa816028840160208801612897565b01602801949350505050565b6001600160a01b03858116825284166020820152604081018390526080606082018190526000906126e9908301846123e3565b9695505050505050565b60208152816020820152818360408301376000818301604090810191909152601f909201601f19160101919050565b60208152600061080460208301846123e3565b60208082526032908201527f4552433732313a207472616e7366657220746f206e6f6e20455243373231526560408201527131b2b4bb32b91034b6b83632b6b2b73a32b960711b606082015260800190565b60208082526031908201527f4552433732313a207472616e736665722063616c6c6572206973206e6f74206f6040820152701ddb995c881b9bdc88185c1c1c9bdd9959607a1b606082015260800190565b60208082526037908201527f4552433732314d696e7465724275726e65725061757365723a206d757374206860408201527f617665206d696e74657220726f6c6520746f206d696e74000000000000000000606082015260800190565b6000821982111561284857612848612944565b500190565b60008261285c5761285c61295a565b500490565b600081600019048311821515161561287b5761287b612944565b500290565b60008282101561289257612892612944565b500390565b60005b838110156128b257818101518382015260200161289a565b83811115610aec5750506000910152565b6000816128d2576128d2612944565b506000190190565b600181811c908216806128ee57607f821691505b6020821081141561290f57634e487b7160e01b600052602260045260246000fd5b50919050565b600060001982141561292957612929612944565b5060010190565b60008261293f5761293f61295a565b500690565b634e487b7160e01b600052601160045260246000fd5b634e487b7160e01b600052601260045260246000fd5b634e487b7160e01b600052604160045260246000fd5b6001600160e01b031981168114611b6a57600080fdfe4142434445464748494a4b4c4d4e4f505152535455565758595a6162636465666768696a6b6c6d6e6f707172737475767778797a303132333435363738392b2f3c73766720786d6c6e733d27687474703a2f2f7777772e77332e6f72672f323030302f73766727207072657365727665417370656374526174696f3d27784d696e594d696e206d656574272076696577426f783d273020302033353020333530273e3c7374796c653e2e62617365207b2066696c6c3a20626c61636b3b20666f6e742d66616d696c793a20496d706163743b20666f6e742d73697a653a20353070783b207d3c2f7374796c653e3c726563742077696474683d273130302527206865696768743d2731303025272066696c6c3d272361616161666627202f3e3c7465787420783d2731302720793d2736302720636c6173733d2762617365273ea264697066735822122045ee47499bd71284b8d77ee673fb3f62e25cf01bf6265a3999c1532063ef8b0464736f6c63430008040033",
  "linkReferences": {},
  "deployedLinkReferences": {}
}