{
  "_format": "hh-sol-artifact-1",
  "contractName": "ERC721AMint",
  "sourceName": "contracts/ERC721AMintERC20.sol",
  "abi": [
    {
      "inputs": [
        {
          "internalType": "address",
          "name": "_token",
          "type": "address"
        }
      ],
      "stateMutability": "nonpayable",
      "type": "constructor"
    },
    {
      "inputs": [],
      "name": "ApprovalCallerNotOwnerNorApproved",
      "type": "error"
    },
    {
      "inputs": [],
      "name": "ApprovalQueryForNonexistentToken",
      "type": "error"
    },
    {
      "inputs": [],
      "name": "ApprovalToCurrentOwner",
      "type": "error"
    },
    {
      "inputs": [],
      "name": "ApproveToCaller",
      "type": "error"
    },
    {
      "inputs": [],
      "name": "BalanceQueryForZeroAddress",
      "type": "error"
    },
    {
      "inputs": [],
      "name": "MintToZeroAddress",
      "type": "error"
    },
    {
      "inputs": [],
      "name": "MintZeroQuantity",
      "type": "error"
    },
    {
      "inputs": [],
      "name": "OwnerQueryForNonexistentToken",
      "type": "error"
    },
    {
      "inputs": [],
      "name": "TransferCallerNotOwnerNorApproved",
      "type": "error"
    },
    {
      "inputs": [],
      "name": "TransferFromIncorrectOwner",
      "type": "error"
    },
    {
      "inputs": [],
      "name": "TransferToNonERC721ReceiverImplementer",
      "type": "error"
    },
    {
      "inputs": [],
      "name": "TransferToZeroAddress",
      "type": "error"
    },
    {
      "inputs": [],
      "name": "URIQueryForNonexistentToken",
      "type": "error"
    },
    {
      "anonymous": false,
      "inputs": [
        {
          "indexed": true,
          "internalType": "address",
          "name": "owner",
          "type": "address"
        },
        {
          "indexed": true,
          "internalType": "address",
          "name": "approved",
          "type": "address"
        },
        {
          "indexed": true,
          "internalType": "uint256",
          "name": "tokenId",
          "type": "uint256"
        }
      ],
      "name": "Approval",
      "type": "event"
    },
    {
      "anonymous": false,
      "inputs": [
        {
          "indexed": true,
          "internalType": "address",
          "name": "owner",
          "type": "address"
        },
        {
          "indexed": true,
          "internalType": "address",
          "name": "operator",
          "type": "address"
        },
        {
          "indexed": false,
          "internalType": "bool",
          "name": "approved",
          "type": "bool"
        }
      ],
      "name": "ApprovalForAll",
      "type": "event"
    },
    {
      "anonymous": false,
      "inputs": [
        {
          "indexed": true,
          "internalType": "address",
          "name": "previousOwner",
          "type": "address"
        },
        {
          "indexed": true,
          "internalType": "address",
          "name": "newOwner",
          "type": "address"
        }
      ],
      "name": "OwnershipTransferred",
      "type": "event"
    },
    {
      "anonymous": false,
      "inputs": [
        {
          "indexed": true,
          "internalType": "address",
          "name": "from",
          "type": "address"
        },
        {
          "indexed": true,
          "internalType": "address",
          "name": "to",
          "type": "address"
        },
        {
          "indexed": true,
          "internalType": "uint256",
          "name": "tokenId",
          "type": "uint256"
        }
      ],
      "name": "Transfer",
      "type": "event"
    },
    {
      "inputs": [
        {
          "internalType": "address",
          "name": "",
          "type": "address"
        }
      ],
      "name": "accountMinted",
      "outputs": [
        {
          "internalType": "uint256",
          "name": "",
          "type": "uint256"
        }
      ],
      "stateMutability": "view",
      "type": "function"
    },
    {
      "inputs": [
        {
          "internalType": "address",
          "name": "to",
          "type": "address"
        },
        {
          "internalType": "uint256",
          "name": "tokenId",
          "type": "uint256"
        }
      ],
      "name": "approve",
      "outputs": [],
      "stateMutability": "nonpayable",
      "type": "function"
    },
    {
      "inputs": [
        {
          "internalType": "address",
          "name": "owner",
          "type": "address"
        }
      ],
      "name": "balanceOf",
      "outputs": [
        {
          "internalType": "uint256",
          "name": "",
          "type": "uint256"
        }
      ],
      "stateMutability": "view",
      "type": "function"
    },
    {
      "inputs": [],
      "name": "baseURI",
      "outputs": [
        {
          "internalType": "string",
          "name": "",
          "type": "string"
        }
      ],
      "stateMutability": "view",
      "type": "function"
    },
    {
      "inputs": [],
      "name": "cost",
      "outputs": [
        {
          "internalType": "uint256",
          "name": "",
          "type": "uint256"
        }
      ],
      "stateMutability": "view",
      "type": "function"
    },
    {
      "inputs": [
        {
          "internalType": "uint256",
          "name": "tokenId",
          "type": "uint256"
        }
      ],
      "name": "getApproved",
      "outputs": [
        {
          "internalType": "address",
          "name": "",
          "type": "address"
        }
      ],
      "stateMutability": "view",
      "type": "function"
    },
    {
      "inputs": [
        {
          "internalType": "address",
          "name": "owner",
          "type": "address"
        },
        {
          "internalType": "address",
          "name": "operator",
          "type": "address"
        }
      ],
      "name": "isApprovedForAll",
      "outputs": [
        {
          "internalType": "bool",
          "name": "",
          "type": "bool"
        }
      ],
      "stateMutability": "view",
      "type": "function"
    },
    {
      "inputs": [],
      "name": "maxMintPerAccount",
      "outputs": [
        {
          "internalType": "uint256",
          "name": "",
          "type": "uint256"
        }
      ],
      "stateMutability": "view",
      "type": "function"
    },
    {
      "inputs": [],
      "name": "maxMintPerTx",
      "outputs": [
        {
          "internalType": "uint256",
          "name": "",
          "type": "uint256"
        }
      ],
      "stateMutability": "view",
      "type": "function"
    },
    {
      "inputs": [],
      "name": "maxSupply",
      "outputs": [
        {
          "internalType": "uint256",
          "name": "",
          "type": "uint256"
        }
      ],
      "stateMutability": "view",
      "type": "function"
    },
    {
      "inputs": [
        {
          "internalType": "uint256",
          "name": "quantity",
          "type": "uint256"
        }
      ],
      "name": "mint",
      "outputs": [],
      "stateMutability": "nonpayable",
      "type": "function"
    },
    {
      "inputs": [],
      "name": "name",
      "outputs": [
        {
          "internalType": "string",
          "name": "",
          "type": "string"
        }
      ],
      "stateMutability": "view",
      "type": "function"
    },
    {
      "inputs": [],
      "name": "owner",
      "outputs": [
        {
          "internalType": "address",
          "name": "",
          "type": "address"
        }
      ],
      "stateMutability": "view",
      "type": "function"
    },
    {
      "inputs": [
        {
          "internalType": "uint256",
          "name": "tokenId",
          "type": "uint256"
        }
      ],
      "name": "ownerOf",
      "outputs": [
        {
          "internalType": "address",
          "name": "",
          "type": "address"
        }
      ],
      "stateMutability": "view",
      "type": "function"
    },
    {
      "inputs": [],
      "name": "renounceOwnership",
      "outputs": [],
      "stateMutability": "nonpayable",
      "type": "function"
    },
    {
      "inputs": [
        {
          "internalType": "address",
          "name": "from",
          "type": "address"
        },
        {
          "internalType": "address",
          "name": "to",
          "type": "address"
        },
        {
          "internalType": "uint256",
          "name": "tokenId",
          "type": "uint256"
        }
      ],
      "name": "safeTransferFrom",
      "outputs": [],
      "stateMutability": "nonpayable",
      "type": "function"
    },
    {
      "inputs": [
        {
          "internalType": "address",
          "name": "from",
          "type": "address"
        },
        {
          "internalType": "address",
          "name": "to",
          "type": "address"
        },
        {
          "internalType": "uint256",
          "name": "tokenId",
          "type": "uint256"
        },
        {
          "internalType": "bytes",
          "name": "_data",
          "type": "bytes"
        }
      ],
      "name": "safeTransferFrom",
      "outputs": [],
      "stateMutability": "nonpayable",
      "type": "function"
    },
    {
      "inputs": [],
      "name": "saleActive",
      "outputs": [
        {
          "internalType": "bool",
          "name": "",
          "type": "bool"
        }
      ],
      "stateMutability": "view",
      "type": "function"
    },
    {
      "inputs": [
        {
          "internalType": "address",
          "name": "operator",
          "type": "address"
        },
        {
          "internalType": "bool",
          "name": "approved",
          "type": "bool"
        }
      ],
      "name": "setApprovalForAll",
      "outputs": [],
      "stateMutability": "nonpayable",
      "type": "function"
    },
    {
      "inputs": [
        {
          "internalType": "string",
          "name": "baseURI_",
          "type": "string"
        }
      ],
      "name": "setBaseURI",
      "outputs": [],
      "stateMutability": "nonpayable",
      "type": "function"
    },
    {
      "inputs": [
        {
          "internalType": "uint256",
          "name": "_cost",
          "type": "uint256"
        }
      ],
      "name": "setCost",
      "outputs": [],
      "stateMutability": "nonpayable",
      "type": "function"
    },
    {
      "inputs": [
        {
          "internalType": "uint256",
          "name": "_maxMintPerAccount",
          "type": "uint256"
        }
      ],
      "name": "setMaxMintPerAccount",
      "outputs": [],
      "stateMutability": "nonpayable",
      "type": "function"
    },
    {
      "inputs": [
        {
          "internalType": "uint256",
          "name": "_maxMintPerTx",
          "type": "uint256"
        }
      ],
      "name": "setMaxMintPerTx",
      "outputs": [],
      "stateMutability": "nonpayable",
      "type": "function"
    },
    {
      "inputs": [
        {
          "internalType": "uint256",
          "name": "_maxSupply",
          "type": "uint256"
        }
      ],
      "name": "setMaxSupply",
      "outputs": [],
      "stateMutability": "nonpayable",
      "type": "function"
    },
    {
      "inputs": [
        {
          "internalType": "bool",
          "name": "_saleActive",
          "type": "bool"
        }
      ],
      "name": "setSaleActive",
      "outputs": [],
      "stateMutability": "nonpayable",
      "type": "function"
    },
    {
      "inputs": [
        {
          "internalType": "bytes4",
          "name": "interfaceId",
          "type": "bytes4"
        }
      ],
      "name": "supportsInterface",
      "outputs": [
        {
          "internalType": "bool",
          "name": "",
          "type": "bool"
        }
      ],
      "stateMutability": "view",
      "type": "function"
    },
    {
      "inputs": [],
      "name": "symbol",
      "outputs": [
        {
          "internalType": "string",
          "name": "",
          "type": "string"
        }
      ],
      "stateMutability": "view",
      "type": "function"
    },
    {
      "inputs": [],
      "name": "token",
      "outputs": [
        {
          "internalType": "address",
          "name": "",
          "type": "address"
        }
      ],
      "stateMutability": "view",
      "type": "function"
    },
    {
      "inputs": [
        {
          "internalType": "uint256",
          "name": "tokenId",
          "type": "uint256"
        }
      ],
      "name": "tokenURI",
      "outputs": [
        {
          "internalType": "string",
          "name": "",
          "type": "string"
        }
      ],
      "stateMutability": "view",
      "type": "function"
    },
    {
      "inputs": [],
      "name": "totalSupply",
      "outputs": [
        {
          "internalType": "uint256",
          "name": "",
          "type": "uint256"
        }
      ],
      "stateMutability": "view",
      "type": "function"
    },
    {
      "inputs": [
        {
          "internalType": "address",
          "name": "from",
          "type": "address"
        },
        {
          "internalType": "address",
          "name": "to",
          "type": "address"
        },
        {
          "internalType": "uint256",
          "name": "tokenId",
          "type": "uint256"
        }
      ],
      "name": "transferFrom",
      "outputs": [],
      "stateMutability": "nonpayable",
      "type": "function"
    },
    {
      "inputs": [
        {
          "internalType": "address",
          "name": "newOwner",
          "type": "address"
        }
      ],
      "name": "transferOwnership",
      "outputs": [],
      "stateMutability": "nonpayable",
      "type": "function"
    },
    {
      "inputs": [],
      "name": "withdraw",
      "outputs": [],
      "stateMutability": "nonpayable",
      "type": "function"
    }
  ],
  "bytecode": "0x60a060405261270f60095566038d7ea4c68000600a556005600b556005600c553480156200002c57600080fd5b5060405162002072380380620020728339810160408190526200004f91620001d9565b60405180604001604052806005815260200164417a756b6960d81b81525060405180604001604052806005815260200164415a554b4960d81b8152508160029080519060200190620000a392919062000133565b508051620000b990600390602084019062000133565b50506000805550620000cb33620000e1565b60601b6001600160601b03191660805262000246565b600880546001600160a01b038381166001600160a01b0319831681179093556040519116919082907f8be0079c531659141344cd1fd0a4f28419497f9722a3daafe3b4186f6b6457e090600090a35050565b828054620001419062000209565b90600052602060002090601f016020900481019282620001655760008555620001b0565b82601f106200018057805160ff1916838001178555620001b0565b82800160010185558215620001b0579182015b82811115620001b057825182559160200191906001019062000193565b50620001be929150620001c2565b5090565b5b80821115620001be5760008155600101620001c3565b600060208284031215620001eb578081fd5b81516001600160a01b038116811462000202578182fd5b9392505050565b600181811c908216806200021e57607f821691505b602082108114156200024057634e487b7160e01b600052602260045260246000fd5b50919050565b60805160601c611df86200027a60003960008181610477015281816106a3015281816107760152610c8c0152611df86000f3fe608060405234801561001057600080fd5b50600436106101fb5760003560e01c80636c0360eb1161011a578063a22cb465116100ad578063d5abeb011161007c578063d5abeb0114610411578063de7fcb1d1461041a578063e985e9c514610423578063f2fde38b1461045f578063fc0c546a1461047257600080fd5b8063a22cb465146103b8578063b88d4fde146103cb578063c87b56dd146103de578063c9eb7060146103f157600080fd5b8063841718a6116100e9578063841718a6146103795780638da5cb5b1461038c57806395d89b411461039d578063a0712d68146103a557600080fd5b80636c0360eb146103435780636f8b44b01461034b57806370a082311461035e578063715018a61461037157600080fd5b80633ccfd60b1161019257806355f804b31161016157806355f804b3146102fd578063616cdb1e146103105780636352211e1461032357806368428a1b1461033657600080fd5b80633ccfd60b146102bc57806342842e0e146102c457806344a0d68a146102d757806348c5bdaa146102ea57600080fd5b806313faede6116101ce57806313faede61461027d57806318160ddd1461029457806323b872dd146102a05780633a1c5834146102b357600080fd5b806301ffc9a71461020057806306fdde0314610228578063081812fc1461023d578063095ea7b314610268575b600080fd5b61021361020e366004611ac8565b610499565b60405190151581526020015b60405180910390f35b6102306104eb565b60405161021f9190611c2a565b61025061024b366004611b46565b61057d565b6040516001600160a01b03909116815260200161021f565b61027b610276366004611a85565b6105c1565b005b610286600a5481565b60405190815260200161021f565b60015460005403610286565b61027b6102ae3660046119a8565b61064f565b610286600c5481565b61027b61065a565b61027b6102d23660046119a8565b610852565b61027b6102e5366004611b46565b61086d565b61027b6102f8366004611b46565b61089c565b61027b61030b366004611b00565b6108cb565b61027b61031e366004611b46565b61090c565b610250610331366004611b46565b61093b565b600d546102139060ff1681565b61023061094d565b61027b610359366004611b46565b6109db565b61028661036c36600461195c565b610a0a565b61027b610a59565b61027b610387366004611aae565b610a8f565b6008546001600160a01b0316610250565b610230610acc565b61027b6103b3366004611b46565b610adb565b61027b6103c6366004611a5c565b610e21565b61027b6103d93660046119e3565b610eb7565b6102306103ec366004611b46565b610f08565b6102866103ff36600461195c565b600f6020526000908152604090205481565b61028660095481565b610286600b5481565b610213610431366004611976565b6001600160a01b03918216600090815260076020908152604080832093909416825291909152205460ff1690565b61027b61046d36600461195c565b610f8d565b6102507f000000000000000000000000000000000000000000000000000000000000000081565b60006001600160e01b031982166380ac58cd60e01b14806104ca57506001600160e01b03198216635b5e139f60e01b145b806104e557506301ffc9a760e01b6001600160e01b03198316145b92915050565b6060600280546104fa90611d00565b80601f016020809104026020016040519081016040528092919081815260200182805461052690611d00565b80156105735780601f1061054857610100808354040283529160200191610573565b820191906000526020600020905b81548152906001019060200180831161055657829003601f168201915b5050505050905090565b600061058882611028565b6105a5576040516333d1c03960e21b815260040160405180910390fd5b506000908152600660205260409020546001600160a01b031690565b60006105cc8261093b565b9050806001600160a01b0316836001600160a01b031614156106015760405163250fdee360e21b815260040160405180910390fd5b336001600160a01b03821614801590610621575061061f8133610431565b155b1561063f576040516367d9dca160e11b815260040160405180910390fd5b61064a838383611053565b505050565b61064a8383836110af565b6008546001600160a01b0316331461068d5760405162461bcd60e51b815260040161068490611c3d565b60405180910390fd5b6040513060248201526000906001600160a01b037f0000000000000000000000000000000000000000000000000000000000000000169060440160408051601f198184030181529181526020820180516001600160e01b03166370a0823160e01b179052516106fc9190611ba2565b600060405180830381855afa9150503d8060008114610737576040519150601f19603f3d011682016040523d82523d6000602084013e61073c565b606091505b509150506000818060200190518101906107569190611b5e565b604051336024820152604481018290529091506000906001600160a01b037f0000000000000000000000000000000000000000000000000000000000000000169060640160408051601f198184030181529181526020820180516001600160e01b031663a9059cbb60e01b179052516107cf9190611ba2565b6000604051808303816000865af19150503d806000811461080c576040519150601f19603f3d011682016040523d82523d6000602084013e610811565b606091505b505090508061064a5760405162461bcd60e51b815260206004820152600d60248201526c151c985b9cd9995c8819985a5b609a1b6044820152606401610684565b61064a83838360405180602001604052806000815250610eb7565b6008546001600160a01b031633146108975760405162461bcd60e51b815260040161068490611c3d565b600a55565b6008546001600160a01b031633146108c65760405162461bcd60e51b815260040161068490611c3d565b600c55565b6008546001600160a01b031633146108f55760405162461bcd60e51b815260040161068490611c3d565b805161090890600e906020840190611821565b5050565b6008546001600160a01b031633146109365760405162461bcd60e51b815260040161068490611c3d565b600b55565b60006109468261129f565b5192915050565b600e805461095a90611d00565b80601f016020809104026020016040519081016040528092919081815260200182805461098690611d00565b80156109d35780601f106109a8576101008083540402835291602001916109d3565b820191906000526020600020905b8154815290600101906020018083116109b657829003601f168201915b505050505081565b6008546001600160a01b03163314610a055760405162461bcd60e51b815260040161068490611c3d565b600955565b60006001600160a01b038216610a33576040516323d3ad8160e21b815260040160405180910390fd5b506001600160a01b031660009081526005602052604090205467ffffffffffffffff1690565b6008546001600160a01b03163314610a835760405162461bcd60e51b815260040161068490611c3d565b610a8d60006113bb565b565b6008546001600160a01b03163314610ab95760405162461bcd60e51b815260040161068490611c3d565b600d805460ff1916911515919091179055565b6060600380546104fa90611d00565b323314610b2a5760405162461bcd60e51b815260206004820152601e60248201527f5468652063616c6c657220697320616e6f7468657220636f6e747261637400006044820152606401610684565b600d5460ff16610b7c5760405162461bcd60e51b815260206004820152601b60248201527f53616c65206d7573742062652061637469766520746f206d696e7400000000006044820152606401610684565b600081118015610b8e5750600b548111155b610c005760405162461bcd60e51b815260206004820152603960248201527f53656e64657220697320747279696e6720746f206d696e7420746f6f206d616e60448201527f7920696e20612073696e676c65207472616e73616374696f6e000000000000006064820152608401610684565b600c54336000908152600f6020526040902054610c1e908390611c72565b1115610c885760405162461bcd60e51b815260206004820152603360248201527f53656e64657220697320747279696e6720746f206d696e74206d6f7265207468604482015272616e20616c6c6f636174656420746f6b656e7360681b6064820152608401610684565b60007f00000000000000000000000000000000000000000000000000000000000000006001600160a01b03163330600a5485610cc49190611c9e565b6040516001600160a01b039384166024820152929091166044830152606482015260840160408051601f198184030181529181526020820180516001600160e01b03166323b872dd60e01b17905251610d1d9190611ba2565b6000604051808303816000865af19150503d8060008114610d5a576040519150601f19603f3d011682016040523d82523d6000602084013e610d5f565b606091505b5050905080610da05760405162461bcd60e51b815260206004820152600d60248201526c151c985b9cd9995c8819985a5b609a1b6044820152606401610684565b60095482610db16001546000540390565b610dbb9190611c72565b1115610e175760405162461bcd60e51b815260206004820152602560248201527f4d696e7420776f756c6420657863656564206d617820737570706c79206f66206044820152646d696e747360d81b6064820152608401610684565b610908338361140d565b6001600160a01b038216331415610e4b5760405163b06307db60e01b815260040160405180910390fd5b3360008181526007602090815260408083206001600160a01b03871680855290835292819020805460ff191686151590811790915590519081529192917f17307eab39ab6107e8899845ad3d59bd9653f200f220920489ca2b5937696c31910160405180910390a35050565b610ec28484846110af565b6001600160a01b0383163b15158015610ee45750610ee284848484611427565b155b15610f02576040516368d2bf6b60e11b815260040160405180910390fd5b50505050565b6060610f1382611028565b610f3057604051630a14c4b560e41b815260040160405180910390fd5b6000610f3a61151f565b9050805160001415610f5b5760405180602001604052806000815250610f86565b80610f658461152e565b604051602001610f76929190611bbe565b6040516020818303038152906040525b9392505050565b6008546001600160a01b03163314610fb75760405162461bcd60e51b815260040161068490611c3d565b6001600160a01b03811661101c5760405162461bcd60e51b815260206004820152602660248201527f4f776e61626c653a206e6577206f776e657220697320746865207a65726f206160448201526564647265737360d01b6064820152608401610684565b611025816113bb565b50565b60008054821080156104e5575050600090815260046020526040902054600160e01b900460ff161590565b60008281526006602052604080822080546001600160a01b0319166001600160a01b0387811691821790925591518593918516917f8c5be1e5ebec7d5bd14f71427d1e84f3dd0314c0f7b2291e5b200ac8c7c3b92591a4505050565b60006110ba8261129f565b9050836001600160a01b031681600001516001600160a01b0316146110f15760405162a1148160e81b815260040160405180910390fd5b6000336001600160a01b038616148061110f575061110f8533610431565b8061112a57503361111f8461057d565b6001600160a01b0316145b90508061114a57604051632ce44b5f60e11b815260040160405180910390fd5b6001600160a01b03841661117157604051633a954ecd60e21b815260040160405180910390fd5b61117d60008487611053565b6001600160a01b038581166000908152600560209081526040808320805467ffffffffffffffff1980821667ffffffffffffffff92831660001901831617909255898616808652838620805493841693831660019081018416949094179055898652600490945282852080546001600160e01b031916909417600160a01b42909216919091021783558701808452922080549193909116611253576000548214611253578054602086015167ffffffffffffffff16600160a01b026001600160e01b03199091166001600160a01b038a16171781555b50505082846001600160a01b0316866001600160a01b03167fddf252ad1be2c89b69c2b068fc378daa952ba7f163c4a11628f55a4df523b3ef60405160405180910390a45b5050505050565b6040805160608101825260008082526020820181905291810191909152816000548110156113a257600081815260046020908152604091829020825160608101845290546001600160a01b0381168252600160a01b810467ffffffffffffffff1692820192909252600160e01b90910460ff161515918101829052906113a05780516001600160a01b031615611336579392505050565b5060001901600081815260046020908152604091829020825160608101845290546001600160a01b038116808352600160a01b820467ffffffffffffffff1693830193909352600160e01b900460ff161515928101929092521561139b579392505050565b611336565b505b604051636f96cda160e11b815260040160405180910390fd5b600880546001600160a01b038381166001600160a01b0319831681179093556040519116919082907f8be0079c531659141344cd1fd0a4f28419497f9722a3daafe3b4186f6b6457e090600090a35050565b610908828260405180602001604052806000815250611648565b604051630a85bd0160e11b81526000906001600160a01b0385169063150b7a029061145c903390899088908890600401611bed565b602060405180830381600087803b15801561147657600080fd5b505af19250505080156114a6575060408051601f3d908101601f191682019092526114a391810190611ae4565b60015b611501573d8080156114d4576040519150601f19603f3d011682016040523d82523d6000602084013e6114d9565b606091505b5080516114f9576040516368d2bf6b60e11b815260040160405180910390fd5b805181602001fd5b6001600160e01b031916630a85bd0160e11b1490505b949350505050565b6060600e80546104fa90611d00565b6060816115525750506040805180820190915260018152600360fc1b602082015290565b8160005b811561157c578061156681611d3b565b91506115759050600a83611c8a565b9150611556565b60008167ffffffffffffffff8111156115a557634e487b7160e01b600052604160045260246000fd5b6040519080825280601f01601f1916602001820160405280156115cf576020820181803683370190505b5090505b8415611517576115e4600183611cbd565b91506115f1600a86611d56565b6115fc906030611c72565b60f81b81838151811061161f57634e487b7160e01b600052603260045260246000fd5b60200101906001600160f81b031916908160001a905350611641600a86611c8a565b94506115d3565b61064a83838360016000546001600160a01b03851661167957604051622e076360e81b815260040160405180910390fd5b836116975760405163b562e8dd60e01b815260040160405180910390fd5b6001600160a01b038516600081815260056020908152604080832080546fffffffffffffffffffffffffffffffff19811667ffffffffffffffff8083168c0181169182176801000000000000000067ffffffffffffffff1990941690921783900481168c01811690920217909155858452600490925290912080546001600160e01b031916909217600160a01b42909216919091021790558080850183801561174957506001600160a01b0387163b15155b156117d2575b60405182906001600160a01b038916906000907fddf252ad1be2c89b69c2b068fc378daa952ba7f163c4a11628f55a4df523b3ef908290a461179a6000888480600101955088611427565b6117b7576040516368d2bf6b60e11b815260040160405180910390fd5b8082141561174f5782600054146117cd57600080fd5b611818565b5b6040516001830192906001600160a01b038916906000907fddf252ad1be2c89b69c2b068fc378daa952ba7f163c4a11628f55a4df523b3ef908290a4808214156117d3575b50600055611298565b82805461182d90611d00565b90600052602060002090601f01602090048101928261184f5760008555611895565b82601f1061186857805160ff1916838001178555611895565b82800160010185558215611895579182015b8281111561189557825182559160200191906001019061187a565b506118a19291506118a5565b5090565b5b808211156118a157600081556001016118a6565b600067ffffffffffffffff808411156118d5576118d5611d96565b604051601f8501601f19908116603f011681019082821181831017156118fd576118fd611d96565b8160405280935085815286868601111561191657600080fd5b858560208301376000602087830101525050509392505050565b80356001600160a01b038116811461194757600080fd5b919050565b8035801515811461194757600080fd5b60006020828403121561196d578081fd5b610f8682611930565b60008060408385031215611988578081fd5b61199183611930565b915061199f60208401611930565b90509250929050565b6000806000606084860312156119bc578081fd5b6119c584611930565b92506119d360208501611930565b9150604084013590509250925092565b600080600080608085870312156119f8578081fd5b611a0185611930565b9350611a0f60208601611930565b925060408501359150606085013567ffffffffffffffff811115611a31578182fd5b8501601f81018713611a41578182fd5b611a50878235602084016118ba565b91505092959194509250565b60008060408385031215611a6e578182fd5b611a7783611930565b915061199f6020840161194c565b60008060408385031215611a97578182fd5b611aa083611930565b946020939093013593505050565b600060208284031215611abf578081fd5b610f868261194c565b600060208284031215611ad9578081fd5b8135610f8681611dac565b600060208284031215611af5578081fd5b8151610f8681611dac565b600060208284031215611b11578081fd5b813567ffffffffffffffff811115611b27578182fd5b8201601f81018413611b37578182fd5b611517848235602084016118ba565b600060208284031215611b57578081fd5b5035919050565b600060208284031215611b6f578081fd5b5051919050565b60008151808452611b8e816020860160208601611cd4565b601f01601f19169290920160200192915050565b60008251611bb4818460208701611cd4565b9190910192915050565b60008351611bd0818460208801611cd4565b835190830190611be4818360208801611cd4565b01949350505050565b6001600160a01b0385811682528416602082015260408101839052608060608201819052600090611c2090830184611b76565b9695505050505050565b602081526000610f866020830184611b76565b6020808252818101527f4f776e61626c653a2063616c6c6572206973206e6f7420746865206f776e6572604082015260600190565b60008219821115611c8557611c85611d6a565b500190565b600082611c9957611c99611d80565b500490565b6000816000190483118215151615611cb857611cb8611d6a565b500290565b600082821015611ccf57611ccf611d6a565b500390565b60005b83811015611cef578181015183820152602001611cd7565b83811115610f025750506000910152565b600181811c90821680611d1457607f821691505b60208210811415611d3557634e487b7160e01b600052602260045260246000fd5b50919050565b6000600019821415611d4f57611d4f611d6a565b5060010190565b600082611d6557611d65611d80565b500690565b634e487b7160e01b600052601160045260246000fd5b634e487b7160e01b600052601260045260246000fd5b634e487b7160e01b600052604160045260246000fd5b6001600160e01b03198116811461102557600080fdfea264697066735822122003602a0ddf991597be2d93c48443560e9a2e54f240e65550421403d577c19dd064736f6c63430008040033",
  "linkReferences": {},
  "deployedLinkReferences": {}
}