{
  "_format": "hh-sol-artifact-1",
  "contractName": "ERC721AMint",
  "sourceName": "contracts/ERC721AMint.sol",
  "abi": [
    {
      "inputs": [],
      "stateMutability": "nonpayable",
      "type": "constructor"
    },
    {
      "inputs": [],
      "name": "ApprovalCallerNotOwnerNorApproved",
      "type": "error"
    },
    {
      "inputs": [],
      "name": "ApprovalQueryForNonexistentToken",
      "type": "error"
    },
    {
      "inputs": [],
      "name": "ApprovalToCurrentOwner",
      "type": "error"
    },
    {
      "inputs": [],
      "name": "ApproveToCaller",
      "type": "error"
    },
    {
      "inputs": [],
      "name": "BalanceQueryForZeroAddress",
      "type": "error"
    },
    {
      "inputs": [],
      "name": "MintToZeroAddress",
      "type": "error"
    },
    {
      "inputs": [],
      "name": "MintZeroQuantity",
      "type": "error"
    },
    {
      "inputs": [],
      "name": "OwnerQueryForNonexistentToken",
      "type": "error"
    },
    {
      "inputs": [],
      "name": "TransferCallerNotOwnerNorApproved",
      "type": "error"
    },
    {
      "inputs": [],
      "name": "TransferFromIncorrectOwner",
      "type": "error"
    },
    {
      "inputs": [],
      "name": "TransferToNonERC721ReceiverImplementer",
      "type": "error"
    },
    {
      "inputs": [],
      "name": "TransferToZeroAddress",
      "type": "error"
    },
    {
      "inputs": [],
      "name": "URIQueryForNonexistentToken",
      "type": "error"
    },
    {
      "anonymous": false,
      "inputs": [
        {
          "indexed": true,
          "internalType": "address",
          "name": "owner",
          "type": "address"
        },
        {
          "indexed": true,
          "internalType": "address",
          "name": "approved",
          "type": "address"
        },
        {
          "indexed": true,
          "internalType": "uint256",
          "name": "tokenId",
          "type": "uint256"
        }
      ],
      "name": "Approval",
      "type": "event"
    },
    {
      "anonymous": false,
      "inputs": [
        {
          "indexed": true,
          "internalType": "address",
          "name": "owner",
          "type": "address"
        },
        {
          "indexed": true,
          "internalType": "address",
          "name": "operator",
          "type": "address"
        },
        {
          "indexed": false,
          "internalType": "bool",
          "name": "approved",
          "type": "bool"
        }
      ],
      "name": "ApprovalForAll",
      "type": "event"
    },
    {
      "anonymous": false,
      "inputs": [
        {
          "indexed": true,
          "internalType": "address",
          "name": "previousOwner",
          "type": "address"
        },
        {
          "indexed": true,
          "internalType": "address",
          "name": "newOwner",
          "type": "address"
        }
      ],
      "name": "OwnershipTransferred",
      "type": "event"
    },
    {
      "anonymous": false,
      "inputs": [
        {
          "indexed": true,
          "internalType": "address",
          "name": "from",
          "type": "address"
        },
        {
          "indexed": true,
          "internalType": "address",
          "name": "to",
          "type": "address"
        },
        {
          "indexed": true,
          "internalType": "uint256",
          "name": "tokenId",
          "type": "uint256"
        }
      ],
      "name": "Transfer",
      "type": "event"
    },
    {
      "inputs": [
        {
          "internalType": "address",
          "name": "",
          "type": "address"
        }
      ],
      "name": "accountMinted",
      "outputs": [
        {
          "internalType": "uint256",
          "name": "",
          "type": "uint256"
        }
      ],
      "stateMutability": "view",
      "type": "function"
    },
    {
      "inputs": [
        {
          "internalType": "address",
          "name": "to",
          "type": "address"
        },
        {
          "internalType": "uint256",
          "name": "tokenId",
          "type": "uint256"
        }
      ],
      "name": "approve",
      "outputs": [],
      "stateMutability": "nonpayable",
      "type": "function"
    },
    {
      "inputs": [
        {
          "internalType": "address",
          "name": "owner",
          "type": "address"
        }
      ],
      "name": "balanceOf",
      "outputs": [
        {
          "internalType": "uint256",
          "name": "",
          "type": "uint256"
        }
      ],
      "stateMutability": "view",
      "type": "function"
    },
    {
      "inputs": [],
      "name": "baseURI",
      "outputs": [
        {
          "internalType": "string",
          "name": "",
          "type": "string"
        }
      ],
      "stateMutability": "view",
      "type": "function"
    },
    {
      "inputs": [],
      "name": "cost",
      "outputs": [
        {
          "internalType": "uint256",
          "name": "",
          "type": "uint256"
        }
      ],
      "stateMutability": "view",
      "type": "function"
    },
    {
      "inputs": [
        {
          "internalType": "uint256",
          "name": "tokenId",
          "type": "uint256"
        }
      ],
      "name": "getApproved",
      "outputs": [
        {
          "internalType": "address",
          "name": "",
          "type": "address"
        }
      ],
      "stateMutability": "view",
      "type": "function"
    },
    {
      "inputs": [
        {
          "internalType": "address",
          "name": "owner",
          "type": "address"
        },
        {
          "internalType": "address",
          "name": "operator",
          "type": "address"
        }
      ],
      "name": "isApprovedForAll",
      "outputs": [
        {
          "internalType": "bool",
          "name": "",
          "type": "bool"
        }
      ],
      "stateMutability": "view",
      "type": "function"
    },
    {
      "inputs": [],
      "name": "maxMintPerAccount",
      "outputs": [
        {
          "internalType": "uint256",
          "name": "",
          "type": "uint256"
        }
      ],
      "stateMutability": "view",
      "type": "function"
    },
    {
      "inputs": [],
      "name": "maxMintPerTx",
      "outputs": [
        {
          "internalType": "uint256",
          "name": "",
          "type": "uint256"
        }
      ],
      "stateMutability": "view",
      "type": "function"
    },
    {
      "inputs": [],
      "name": "maxSupply",
      "outputs": [
        {
          "internalType": "uint256",
          "name": "",
          "type": "uint256"
        }
      ],
      "stateMutability": "view",
      "type": "function"
    },
    {
      "inputs": [
        {
          "internalType": "uint256",
          "name": "quantity",
          "type": "uint256"
        }
      ],
      "name": "mint",
      "outputs": [],
      "stateMutability": "payable",
      "type": "function"
    },
    {
      "inputs": [],
      "name": "name",
      "outputs": [
        {
          "internalType": "string",
          "name": "",
          "type": "string"
        }
      ],
      "stateMutability": "view",
      "type": "function"
    },
    {
      "inputs": [],
      "name": "owner",
      "outputs": [
        {
          "internalType": "address",
          "name": "",
          "type": "address"
        }
      ],
      "stateMutability": "view",
      "type": "function"
    },
    {
      "inputs": [
        {
          "internalType": "uint256",
          "name": "tokenId",
          "type": "uint256"
        }
      ],
      "name": "ownerOf",
      "outputs": [
        {
          "internalType": "address",
          "name": "",
          "type": "address"
        }
      ],
      "stateMutability": "view",
      "type": "function"
    },
    {
      "inputs": [],
      "name": "renounceOwnership",
      "outputs": [],
      "stateMutability": "nonpayable",
      "type": "function"
    },
    {
      "inputs": [
        {
          "internalType": "address",
          "name": "from",
          "type": "address"
        },
        {
          "internalType": "address",
          "name": "to",
          "type": "address"
        },
        {
          "internalType": "uint256",
          "name": "tokenId",
          "type": "uint256"
        }
      ],
      "name": "safeTransferFrom",
      "outputs": [],
      "stateMutability": "nonpayable",
      "type": "function"
    },
    {
      "inputs": [
        {
          "internalType": "address",
          "name": "from",
          "type": "address"
        },
        {
          "internalType": "address",
          "name": "to",
          "type": "address"
        },
        {
          "internalType": "uint256",
          "name": "tokenId",
          "type": "uint256"
        },
        {
          "internalType": "bytes",
          "name": "_data",
          "type": "bytes"
        }
      ],
      "name": "safeTransferFrom",
      "outputs": [],
      "stateMutability": "nonpayable",
      "type": "function"
    },
    {
      "inputs": [],
      "name": "saleActive",
      "outputs": [
        {
          "internalType": "bool",
          "name": "",
          "type": "bool"
        }
      ],
      "stateMutability": "view",
      "type": "function"
    },
    {
      "inputs": [
        {
          "internalType": "address",
          "name": "operator",
          "type": "address"
        },
        {
          "internalType": "bool",
          "name": "approved",
          "type": "bool"
        }
      ],
      "name": "setApprovalForAll",
      "outputs": [],
      "stateMutability": "nonpayable",
      "type": "function"
    },
    {
      "inputs": [
        {
          "internalType": "string",
          "name": "baseURI_",
          "type": "string"
        }
      ],
      "name": "setBaseURI",
      "outputs": [],
      "stateMutability": "nonpayable",
      "type": "function"
    },
    {
      "inputs": [
        {
          "internalType": "uint256",
          "name": "_cost",
          "type": "uint256"
        }
      ],
      "name": "setCost",
      "outputs": [],
      "stateMutability": "nonpayable",
      "type": "function"
    },
    {
      "inputs": [
        {
          "internalType": "uint256",
          "name": "_maxMintPerAccount",
          "type": "uint256"
        }
      ],
      "name": "setMaxMintPerAccount",
      "outputs": [],
      "stateMutability": "nonpayable",
      "type": "function"
    },
    {
      "inputs": [
        {
          "internalType": "uint256",
          "name": "_maxMintPerTx",
          "type": "uint256"
        }
      ],
      "name": "setMaxMintPerTx",
      "outputs": [],
      "stateMutability": "nonpayable",
      "type": "function"
    },
    {
      "inputs": [
        {
          "internalType": "uint256",
          "name": "_maxSupply",
          "type": "uint256"
        }
      ],
      "name": "setMaxSupply",
      "outputs": [],
      "stateMutability": "nonpayable",
      "type": "function"
    },
    {
      "inputs": [
        {
          "internalType": "bool",
          "name": "_saleActive",
          "type": "bool"
        }
      ],
      "name": "setSaleActive",
      "outputs": [],
      "stateMutability": "nonpayable",
      "type": "function"
    },
    {
      "inputs": [
        {
          "internalType": "bytes4",
          "name": "interfaceId",
          "type": "bytes4"
        }
      ],
      "name": "supportsInterface",
      "outputs": [
        {
          "internalType": "bool",
          "name": "",
          "type": "bool"
        }
      ],
      "stateMutability": "view",
      "type": "function"
    },
    {
      "inputs": [],
      "name": "symbol",
      "outputs": [
        {
          "internalType": "string",
          "name": "",
          "type": "string"
        }
      ],
      "stateMutability": "view",
      "type": "function"
    },
    {
      "inputs": [
        {
          "internalType": "uint256",
          "name": "tokenId",
          "type": "uint256"
        }
      ],
      "name": "tokenURI",
      "outputs": [
        {
          "internalType": "string",
          "name": "",
          "type": "string"
        }
      ],
      "stateMutability": "view",
      "type": "function"
    },
    {
      "inputs": [],
      "name": "totalSupply",
      "outputs": [
        {
          "internalType": "uint256",
          "name": "",
          "type": "uint256"
        }
      ],
      "stateMutability": "view",
      "type": "function"
    },
    {
      "inputs": [
        {
          "internalType": "address",
          "name": "from",
          "type": "address"
        },
        {
          "internalType": "address",
          "name": "to",
          "type": "address"
        },
        {
          "internalType": "uint256",
          "name": "tokenId",
          "type": "uint256"
        }
      ],
      "name": "transferFrom",
      "outputs": [],
      "stateMutability": "nonpayable",
      "type": "function"
    },
    {
      "inputs": [
        {
          "internalType": "address",
          "name": "newOwner",
          "type": "address"
        }
      ],
      "name": "transferOwnership",
      "outputs": [],
      "stateMutability": "nonpayable",
      "type": "function"
    },
    {
      "inputs": [],
      "name": "withdraw",
      "outputs": [],
      "stateMutability": "nonpayable",
      "type": "function"
    }
  ],
  "bytecode": "0x608060405261270f60095566038d7ea4c68000600a556005600b556005600c553480156200002c57600080fd5b5060405180604001604052806005815260200164417a756b6960d81b81525060405180604001604052806005815260200164415a554b4960d81b81525081600290805190602001906200008192919062000101565b5080516200009790600390602084019062000101565b50506000805550620000a933620000af565b620001e4565b600880546001600160a01b038381166001600160a01b0319831681179093556040519116919082907f8be0079c531659141344cd1fd0a4f28419497f9722a3daafe3b4186f6b6457e090600090a35050565b8280546200010f90620001a7565b90600052602060002090601f0160209004810192826200013357600085556200017e565b82601f106200014e57805160ff19168380011785556200017e565b828001600101855582156200017e579182015b828111156200017e57825182559160200191906001019062000161565b506200018c92915062000190565b5090565b5b808211156200018c576000815560010162000191565b600181811c90821680620001bc57607f821691505b60208210811415620001de57634e487b7160e01b600052602260045260246000fd5b50919050565b611cc780620001f46000396000f3fe6080604052600436106101e35760003560e01c80636c0360eb11610102578063a22cb46511610095578063d5abeb0111610064578063d5abeb0114610558578063de7fcb1d1461056e578063e985e9c514610584578063f2fde38b146105cd57600080fd5b8063a22cb465146104cb578063b88d4fde146104eb578063c87b56dd1461050b578063c9eb70601461052b57600080fd5b8063841718a6116100d1578063841718a6146104655780638da5cb5b1461048557806395d89b41146104a3578063a0712d68146104b857600080fd5b80636c0360eb146103fb5780636f8b44b01461041057806370a0823114610430578063715018a61461045057600080fd5b80633ccfd60b1161017a57806355f804b31161014957806355f804b314610381578063616cdb1e146103a15780636352211e146103c157806368428a1b146103e157600080fd5b80633ccfd60b1461030c57806342842e0e1461032157806344a0d68a1461034157806348c5bdaa1461036157600080fd5b806313faede6116101b657806313faede61461029957806318160ddd146102bd57806323b872dd146102d65780633a1c5834146102f657600080fd5b806301ffc9a7146101e857806306fdde031461021d578063081812fc1461023f578063095ea7b314610277575b600080fd5b3480156101f457600080fd5b506102086102033660046119cb565b6105ed565b60405190151581526020015b60405180910390f35b34801561022957600080fd5b5061023261063f565b6040516102149190611af9565b34801561024b57600080fd5b5061025f61025a366004611a49565b6106d1565b6040516001600160a01b039091168152602001610214565b34801561028357600080fd5b50610297610292366004611988565b610715565b005b3480156102a557600080fd5b506102af600a5481565b604051908152602001610214565b3480156102c957600080fd5b50600154600054036102af565b3480156102e257600080fd5b506102976102f13660046118ab565b6107a3565b34801561030257600080fd5b506102af600c5481565b34801561031857600080fd5b506102976107ae565b34801561032d57600080fd5b5061029761033c3660046118ab565b610814565b34801561034d57600080fd5b5061029761035c366004611a49565b61082f565b34801561036d57600080fd5b5061029761037c366004611a49565b61085e565b34801561038d57600080fd5b5061029761039c366004611a03565b61088d565b3480156103ad57600080fd5b506102976103bc366004611a49565b6108ca565b3480156103cd57600080fd5b5061025f6103dc366004611a49565b6108f9565b3480156103ed57600080fd5b50600d546102089060ff1681565b34801561040757600080fd5b5061023261090b565b34801561041c57600080fd5b5061029761042b366004611a49565b610999565b34801561043c57600080fd5b506102af61044b36600461185f565b6109c8565b34801561045c57600080fd5b50610297610a17565b34801561047157600080fd5b506102976104803660046119b1565b610a4d565b34801561049157600080fd5b506008546001600160a01b031661025f565b3480156104af57600080fd5b50610232610a8a565b6102976104c6366004611a49565b610a99565b3480156104d757600080fd5b506102976104e636600461195f565b610d27565b3480156104f757600080fd5b506102976105063660046118e6565b610dbd565b34801561051757600080fd5b50610232610526366004611a49565b610e0e565b34801561053757600080fd5b506102af61054636600461185f565b600f6020526000908152604090205481565b34801561056457600080fd5b506102af60095481565b34801561057a57600080fd5b506102af600b5481565b34801561059057600080fd5b5061020861059f366004611879565b6001600160a01b03918216600090815260076020908152604080832093909416825291909152205460ff1690565b3480156105d957600080fd5b506102976105e836600461185f565b610e93565b60006001600160e01b031982166380ac58cd60e01b148061061e57506001600160e01b03198216635b5e139f60e01b145b8061063957506301ffc9a760e01b6001600160e01b03198316145b92915050565b60606002805461064e90611bcf565b80601f016020809104026020016040519081016040528092919081815260200182805461067a90611bcf565b80156106c75780601f1061069c576101008083540402835291602001916106c7565b820191906000526020600020905b8154815290600101906020018083116106aa57829003601f168201915b5050505050905090565b60006106dc82610f2b565b6106f9576040516333d1c03960e21b815260040160405180910390fd5b506000908152600660205260409020546001600160a01b031690565b6000610720826108f9565b9050806001600160a01b0316836001600160a01b031614156107555760405163250fdee360e21b815260040160405180910390fd5b336001600160a01b038216148015906107755750610773813361059f565b155b15610793576040516367d9dca160e11b815260040160405180910390fd5b61079e838383610f56565b505050565b61079e838383610fb2565b6008546001600160a01b031633146107e15760405162461bcd60e51b81526004016107d890611b0c565b60405180910390fd5b6040514790339082156108fc029083906000818181858888f19350505050158015610810573d6000803e3d6000fd5b5050565b61079e83838360405180602001604052806000815250610dbd565b6008546001600160a01b031633146108595760405162461bcd60e51b81526004016107d890611b0c565b600a55565b6008546001600160a01b031633146108885760405162461bcd60e51b81526004016107d890611b0c565b600c55565b6008546001600160a01b031633146108b75760405162461bcd60e51b81526004016107d890611b0c565b805161081090600e906020840190611724565b6008546001600160a01b031633146108f45760405162461bcd60e51b81526004016107d890611b0c565b600b55565b6000610904826111a2565b5192915050565b600e805461091890611bcf565b80601f016020809104026020016040519081016040528092919081815260200182805461094490611bcf565b80156109915780601f1061096657610100808354040283529160200191610991565b820191906000526020600020905b81548152906001019060200180831161097457829003601f168201915b505050505081565b6008546001600160a01b031633146109c35760405162461bcd60e51b81526004016107d890611b0c565b600955565b60006001600160a01b0382166109f1576040516323d3ad8160e21b815260040160405180910390fd5b506001600160a01b031660009081526005602052604090205467ffffffffffffffff1690565b6008546001600160a01b03163314610a415760405162461bcd60e51b81526004016107d890611b0c565b610a4b60006112be565b565b6008546001600160a01b03163314610a775760405162461bcd60e51b81526004016107d890611b0c565b600d805460ff1916911515919091179055565b60606003805461064e90611bcf565b323314610ae85760405162461bcd60e51b815260206004820152601e60248201527f5468652063616c6c657220697320616e6f7468657220636f6e7472616374000060448201526064016107d8565b600d5460ff16610b3a5760405162461bcd60e51b815260206004820152601b60248201527f53616c65206d7573742062652061637469766520746f206d696e74000000000060448201526064016107d8565b600081118015610b4c5750600b548111155b610bbe5760405162461bcd60e51b815260206004820152603960248201527f53656e64657220697320747279696e6720746f206d696e7420746f6f206d616e60448201527f7920696e20612073696e676c65207472616e73616374696f6e0000000000000060648201526084016107d8565b600c54336000908152600f6020526040902054610bdc908390611b41565b1115610c465760405162461bcd60e51b815260206004820152603360248201527f53656e64657220697320747279696e6720746f206d696e74206d6f7265207468604482015272616e20616c6c6f636174656420746f6b656e7360681b60648201526084016107d8565b80600a54610c549190611b6d565b341015610ca35760405162461bcd60e51b815260206004820152601d60248201527f416d6f756e74206f66206574686572206973206e6f7420656e6f75676800000060448201526064016107d8565b60095481610cb46001546000540390565b610cbe9190611b41565b1115610d1a5760405162461bcd60e51b815260206004820152602560248201527f4d696e7420776f756c6420657863656564206d617820737570706c79206f66206044820152646d696e747360d81b60648201526084016107d8565b610d243382611310565b50565b6001600160a01b038216331415610d515760405163b06307db60e01b815260040160405180910390fd5b3360008181526007602090815260408083206001600160a01b03871680855290835292819020805460ff191686151590811790915590519081529192917f17307eab39ab6107e8899845ad3d59bd9653f200f220920489ca2b5937696c31910160405180910390a35050565b610dc8848484610fb2565b6001600160a01b0383163b15158015610dea5750610de88484848461132a565b155b15610e08576040516368d2bf6b60e11b815260040160405180910390fd5b50505050565b6060610e1982610f2b565b610e3657604051630a14c4b560e41b815260040160405180910390fd5b6000610e40611422565b9050805160001415610e615760405180602001604052806000815250610e8c565b80610e6b84611431565b604051602001610e7c929190611a8d565b6040516020818303038152906040525b9392505050565b6008546001600160a01b03163314610ebd5760405162461bcd60e51b81526004016107d890611b0c565b6001600160a01b038116610f225760405162461bcd60e51b815260206004820152602660248201527f4f776e61626c653a206e6577206f776e657220697320746865207a65726f206160448201526564647265737360d01b60648201526084016107d8565b610d24816112be565b6000805482108015610639575050600090815260046020526040902054600160e01b900460ff161590565b60008281526006602052604080822080546001600160a01b0319166001600160a01b0387811691821790925591518593918516917f8c5be1e5ebec7d5bd14f71427d1e84f3dd0314c0f7b2291e5b200ac8c7c3b92591a4505050565b6000610fbd826111a2565b9050836001600160a01b031681600001516001600160a01b031614610ff45760405162a1148160e81b815260040160405180910390fd5b6000336001600160a01b03861614806110125750611012853361059f565b8061102d575033611022846106d1565b6001600160a01b0316145b90508061104d57604051632ce44b5f60e11b815260040160405180910390fd5b6001600160a01b03841661107457604051633a954ecd60e21b815260040160405180910390fd5b61108060008487610f56565b6001600160a01b038581166000908152600560209081526040808320805467ffffffffffffffff1980821667ffffffffffffffff92831660001901831617909255898616808652838620805493841693831660019081018416949094179055898652600490945282852080546001600160e01b031916909417600160a01b42909216919091021783558701808452922080549193909116611156576000548214611156578054602086015167ffffffffffffffff16600160a01b026001600160e01b03199091166001600160a01b038a16171781555b50505082846001600160a01b0316866001600160a01b03167fddf252ad1be2c89b69c2b068fc378daa952ba7f163c4a11628f55a4df523b3ef60405160405180910390a45b5050505050565b6040805160608101825260008082526020820181905291810191909152816000548110156112a557600081815260046020908152604091829020825160608101845290546001600160a01b0381168252600160a01b810467ffffffffffffffff1692820192909252600160e01b90910460ff161515918101829052906112a35780516001600160a01b031615611239579392505050565b5060001901600081815260046020908152604091829020825160608101845290546001600160a01b038116808352600160a01b820467ffffffffffffffff1693830193909352600160e01b900460ff161515928101929092521561129e579392505050565b611239565b505b604051636f96cda160e11b815260040160405180910390fd5b600880546001600160a01b038381166001600160a01b0319831681179093556040519116919082907f8be0079c531659141344cd1fd0a4f28419497f9722a3daafe3b4186f6b6457e090600090a35050565b61081082826040518060200160405280600081525061154b565b604051630a85bd0160e11b81526000906001600160a01b0385169063150b7a029061135f903390899088908890600401611abc565b602060405180830381600087803b15801561137957600080fd5b505af19250505080156113a9575060408051601f3d908101601f191682019092526113a6918101906119e7565b60015b611404573d8080156113d7576040519150601f19603f3d011682016040523d82523d6000602084013e6113dc565b606091505b5080516113fc576040516368d2bf6b60e11b815260040160405180910390fd5b805181602001fd5b6001600160e01b031916630a85bd0160e11b1490505b949350505050565b6060600e805461064e90611bcf565b6060816114555750506040805180820190915260018152600360fc1b602082015290565b8160005b811561147f578061146981611c0a565b91506114789050600a83611b59565b9150611459565b60008167ffffffffffffffff8111156114a857634e487b7160e01b600052604160045260246000fd5b6040519080825280601f01601f1916602001820160405280156114d2576020820181803683370190505b5090505b841561141a576114e7600183611b8c565b91506114f4600a86611c25565b6114ff906030611b41565b60f81b81838151811061152257634e487b7160e01b600052603260045260246000fd5b60200101906001600160f81b031916908160001a905350611544600a86611b59565b94506114d6565b61079e83838360016000546001600160a01b03851661157c57604051622e076360e81b815260040160405180910390fd5b8361159a5760405163b562e8dd60e01b815260040160405180910390fd5b6001600160a01b038516600081815260056020908152604080832080546fffffffffffffffffffffffffffffffff19811667ffffffffffffffff8083168c0181169182176801000000000000000067ffffffffffffffff1990941690921783900481168c01811690920217909155858452600490925290912080546001600160e01b031916909217600160a01b42909216919091021790558080850183801561164c57506001600160a01b0387163b15155b156116d5575b60405182906001600160a01b038916906000907fddf252ad1be2c89b69c2b068fc378daa952ba7f163c4a11628f55a4df523b3ef908290a461169d600088848060010195508861132a565b6116ba576040516368d2bf6b60e11b815260040160405180910390fd5b808214156116525782600054146116d057600080fd5b61171b565b5b6040516001830192906001600160a01b038916906000907fddf252ad1be2c89b69c2b068fc378daa952ba7f163c4a11628f55a4df523b3ef908290a4808214156116d6575b5060005561119b565b82805461173090611bcf565b90600052602060002090601f0160209004810192826117525760008555611798565b82601f1061176b57805160ff1916838001178555611798565b82800160010185558215611798579182015b8281111561179857825182559160200191906001019061177d565b506117a49291506117a8565b5090565b5b808211156117a457600081556001016117a9565b600067ffffffffffffffff808411156117d8576117d8611c65565b604051601f8501601f19908116603f0116810190828211818310171561180057611800611c65565b8160405280935085815286868601111561181957600080fd5b858560208301376000602087830101525050509392505050565b80356001600160a01b038116811461184a57600080fd5b919050565b8035801515811461184a57600080fd5b600060208284031215611870578081fd5b610e8c82611833565b6000806040838503121561188b578081fd5b61189483611833565b91506118a260208401611833565b90509250929050565b6000806000606084860312156118bf578081fd5b6118c884611833565b92506118d660208501611833565b9150604084013590509250925092565b600080600080608085870312156118fb578081fd5b61190485611833565b935061191260208601611833565b925060408501359150606085013567ffffffffffffffff811115611934578182fd5b8501601f81018713611944578182fd5b611953878235602084016117bd565b91505092959194509250565b60008060408385031215611971578182fd5b61197a83611833565b91506118a26020840161184f565b6000806040838503121561199a578182fd5b6119a383611833565b946020939093013593505050565b6000602082840312156119c2578081fd5b610e8c8261184f565b6000602082840312156119dc578081fd5b8135610e8c81611c7b565b6000602082840312156119f8578081fd5b8151610e8c81611c7b565b600060208284031215611a14578081fd5b813567ffffffffffffffff811115611a2a578182fd5b8201601f81018413611a3a578182fd5b61141a848235602084016117bd565b600060208284031215611a5a578081fd5b5035919050565b60008151808452611a79816020860160208601611ba3565b601f01601f19169290920160200192915050565b60008351611a9f818460208801611ba3565b835190830190611ab3818360208801611ba3565b01949350505050565b6001600160a01b0385811682528416602082015260408101839052608060608201819052600090611aef90830184611a61565b9695505050505050565b602081526000610e8c6020830184611a61565b6020808252818101527f4f776e61626c653a2063616c6c6572206973206e6f7420746865206f776e6572604082015260600190565b60008219821115611b5457611b54611c39565b500190565b600082611b6857611b68611c4f565b500490565b6000816000190483118215151615611b8757611b87611c39565b500290565b600082821015611b9e57611b9e611c39565b500390565b60005b83811015611bbe578181015183820152602001611ba6565b83811115610e085750506000910152565b600181811c90821680611be357607f821691505b60208210811415611c0457634e487b7160e01b600052602260045260246000fd5b50919050565b6000600019821415611c1e57611c1e611c39565b5060010190565b600082611c3457611c34611c4f565b500690565b634e487b7160e01b600052601160045260246000fd5b634e487b7160e01b600052601260045260246000fd5b634e487b7160e01b600052604160045260246000fd5b6001600160e01b031981168114610d2457600080fdfea2646970667358221220c4c2f3bba736ccb9120943b05503b71f1dd331a0dfab647ac840a6e1e57f795664736f6c63430008040033",
  "linkReferences": {},
  "deployedLinkReferences": {}
}