{
  "_format": "hh-sol-artifact-1",
  "contractName": "NFTWalletFactory",
  "sourceName": "contracts/NFTWalletFactory.sol",
  "abi": [
    {
      "inputs": [],
      "stateMutability": "nonpayable",
      "type": "constructor"
    },
    {
      "anonymous": false,
      "inputs": [
        {
          "indexed": false,
          "internalType": "address",
          "name": "user",
          "type": "address"
        },
        {
          "indexed": false,
          "internalType": "uint256",
          "name": "uid",
          "type": "uint256"
        },
        {
          "indexed": false,
          "internalType": "address",
          "name": "wallet",
          "type": "address"
        }
      ],
      "name": "NewWallet",
      "type": "event"
    },
    {
      "anonymous": false,
      "inputs": [
        {
          "indexed": true,
          "internalType": "bytes32",
          "name": "role",
          "type": "bytes32"
        },
        {
          "indexed": true,
          "internalType": "bytes32",
          "name": "previousAdminRole",
          "type": "bytes32"
        },
        {
          "indexed": true,
          "internalType": "bytes32",
          "name": "newAdminRole",
          "type": "bytes32"
        }
      ],
      "name": "RoleAdminChanged",
      "type": "event"
    },
    {
      "anonymous": false,
      "inputs": [
        {
          "indexed": true,
          "internalType": "bytes32",
          "name": "role",
          "type": "bytes32"
        },
        {
          "indexed": true,
          "internalType": "address",
          "name": "account",
          "type": "address"
        },
        {
          "indexed": true,
          "internalType": "address",
          "name": "sender",
          "type": "address"
        }
      ],
      "name": "RoleGranted",
      "type": "event"
    },
    {
      "anonymous": false,
      "inputs": [
        {
          "indexed": true,
          "internalType": "bytes32",
          "name": "role",
          "type": "bytes32"
        },
        {
          "indexed": true,
          "internalType": "address",
          "name": "account",
          "type": "address"
        },
        {
          "indexed": true,
          "internalType": "address",
          "name": "sender",
          "type": "address"
        }
      ],
      "name": "RoleRevoked",
      "type": "event"
    },
    {
      "inputs": [],
      "name": "ADMIN_ROLE",
      "outputs": [
        {
          "internalType": "bytes32",
          "name": "",
          "type": "bytes32"
        }
      ],
      "stateMutability": "view",
      "type": "function"
    },
    {
      "inputs": [],
      "name": "DEFAULT_ADMIN_ROLE",
      "outputs": [
        {
          "internalType": "bytes32",
          "name": "",
          "type": "bytes32"
        }
      ],
      "stateMutability": "view",
      "type": "function"
    },
    {
      "inputs": [],
      "name": "PERMIT_TYPEHASH",
      "outputs": [
        {
          "internalType": "bytes32",
          "name": "",
          "type": "bytes32"
        }
      ],
      "stateMutability": "view",
      "type": "function"
    },
    {
      "inputs": [
        {
          "internalType": "address",
          "name": "user",
          "type": "address"
        },
        {
          "internalType": "uint256",
          "name": "uid",
          "type": "uint256"
        },
        {
          "internalType": "bytes",
          "name": "signatures",
          "type": "bytes"
        }
      ],
      "name": "deploy",
      "outputs": [
        {
          "internalType": "address",
          "name": "",
          "type": "address"
        }
      ],
      "stateMutability": "nonpayable",
      "type": "function"
    },
    {
      "inputs": [
        {
          "internalType": "address",
          "name": "user",
          "type": "address"
        },
        {
          "internalType": "uint256",
          "name": "uid",
          "type": "uint256"
        }
      ],
      "name": "deploy",
      "outputs": [
        {
          "internalType": "address",
          "name": "",
          "type": "address"
        }
      ],
      "stateMutability": "nonpayable",
      "type": "function"
    },
    {
      "inputs": [
        {
          "internalType": "uint256",
          "name": "uid",
          "type": "uint256"
        }
      ],
      "name": "getAddress",
      "outputs": [
        {
          "internalType": "address",
          "name": "",
          "type": "address"
        }
      ],
      "stateMutability": "view",
      "type": "function"
    },
    {
      "inputs": [
        {
          "internalType": "bytes32",
          "name": "role",
          "type": "bytes32"
        }
      ],
      "name": "getRoleAdmin",
      "outputs": [
        {
          "internalType": "bytes32",
          "name": "",
          "type": "bytes32"
        }
      ],
      "stateMutability": "view",
      "type": "function"
    },
    {
      "inputs": [
        {
          "internalType": "bytes32",
          "name": "role",
          "type": "bytes32"
        },
        {
          "internalType": "uint256",
          "name": "index",
          "type": "uint256"
        }
      ],
      "name": "getRoleMember",
      "outputs": [
        {
          "internalType": "address",
          "name": "",
          "type": "address"
        }
      ],
      "stateMutability": "view",
      "type": "function"
    },
    {
      "inputs": [
        {
          "internalType": "bytes32",
          "name": "role",
          "type": "bytes32"
        }
      ],
      "name": "getRoleMemberCount",
      "outputs": [
        {
          "internalType": "uint256",
          "name": "",
          "type": "uint256"
        }
      ],
      "stateMutability": "view",
      "type": "function"
    },
    {
      "inputs": [
        {
          "internalType": "bytes32",
          "name": "role",
          "type": "bytes32"
        },
        {
          "internalType": "address",
          "name": "account",
          "type": "address"
        }
      ],
      "name": "grantRole",
      "outputs": [],
      "stateMutability": "nonpayable",
      "type": "function"
    },
    {
      "inputs": [
        {
          "internalType": "bytes32",
          "name": "role",
          "type": "bytes32"
        },
        {
          "internalType": "address",
          "name": "account",
          "type": "address"
        }
      ],
      "name": "hasRole",
      "outputs": [
        {
          "internalType": "bool",
          "name": "",
          "type": "bool"
        }
      ],
      "stateMutability": "view",
      "type": "function"
    },
    {
      "inputs": [
        {
          "internalType": "address payable",
          "name": "wallet",
          "type": "address"
        }
      ],
      "name": "kill",
      "outputs": [],
      "stateMutability": "nonpayable",
      "type": "function"
    },
    {
      "inputs": [
        {
          "internalType": "bytes32",
          "name": "role",
          "type": "bytes32"
        },
        {
          "internalType": "address",
          "name": "account",
          "type": "address"
        }
      ],
      "name": "renounceRole",
      "outputs": [],
      "stateMutability": "nonpayable",
      "type": "function"
    },
    {
      "inputs": [
        {
          "internalType": "bytes32",
          "name": "role",
          "type": "bytes32"
        },
        {
          "internalType": "address",
          "name": "account",
          "type": "address"
        }
      ],
      "name": "revokeRole",
      "outputs": [],
      "stateMutability": "nonpayable",
      "type": "function"
    },
    {
      "inputs": [
        {
          "internalType": "address payable",
          "name": "wallet",
          "type": "address"
        },
        {
          "internalType": "address",
          "name": "newOwner",
          "type": "address"
        }
      ],
      "name": "setOwner",
      "outputs": [],
      "stateMutability": "nonpayable",
      "type": "function"
    },
    {
      "inputs": [
        {
          "internalType": "bytes4",
          "name": "interfaceId",
          "type": "bytes4"
        }
      ],
      "name": "supportsInterface",
      "outputs": [
        {
          "internalType": "bool",
          "name": "",
          "type": "bool"
        }
      ],
      "stateMutability": "view",
      "type": "function"
    },
    {
      "inputs": [
        {
          "internalType": "address",
          "name": "user",
          "type": "address"
        },
        {
          "internalType": "uint256",
          "name": "uid",
          "type": "uint256"
        },
        {
          "internalType": "bytes",
          "name": "signatures",
          "type": "bytes"
        }
      ],
      "name": "verifySignature",
      "outputs": [
        {
          "internalType": "address",
          "name": "",
          "type": "address"
        }
      ],
      "stateMutability": "view",
      "type": "function"
    }
  ],
  "bytecode": "0x6101206040523480156200001257600080fd5b50604080518082018252600981526813919515d85b1b195d60ba1b60208083019182528351808501855260038152620312e360ec1b908201529151902060c08181527fe6bbd6277e1bf288eed5e8d1780f9a50b239e86b153736bceebccf4ea79d90b360e08190524660a081815286517f8b73c3c69bb8fe3d512ecc4cf759cc79239f7b179b0ffacaa9a75d522b39400f8188018190528189019690965260608101939093526080808401929092523083820152865180840390910181529190920190945283519390920192909220905261010052620000f460003362000126565b620001207fa49807205ce4d355092ef5a8a18f56e8913cf4a201fbe287825b095693c217753362000126565b6200028b565b6200013d82826200016960201b6200088f1760201c565b6000828152600160209081526040909120620001649183906200089d62000179821b17901c565b505050565b62000175828262000199565b5050565b600062000190836001600160a01b03841662000239565b90505b92915050565b6000828152602081815260408083206001600160a01b038516845290915290205460ff1662000175576000828152602081815260408083206001600160a01b03851684529091529020805460ff19166001179055620001f53390565b6001600160a01b0316816001600160a01b0316837f2f8788117e7eff1d82e926ec794901d17c78024a50270940304540a733656f0d60405160405180910390a45050565b6000818152600183016020526040812054620002825750815460018181018455600084815260208082209093018490558454848252828601909352604090209190915562000193565b50600062000193565b60805160a05160c05160e05161010051612914620002d06000396000610d5901526000610da801526000610d8301526000610d0701526000610d3001526129146000f3fe608060405234801561001057600080fd5b506004361061010b5760003560e01c8063648b4d5b116100a2578063a217fddf11610071578063a217fddf14610257578063b93f9b0a1461025f578063ca15c87314610272578063cbf0b0c014610285578063d547741f1461029857600080fd5b8063648b4d5b1461020957806375b238fc1461021c5780639010d07c1461023157806391d148541461024457600080fd5b80632f2ff15d116100de5780632f2ff15d146101a957806330adf81f146101bc57806336568abe146101e35780634956eaf0146101f657600080fd5b806301ffc9a714610110578063248a9ca314610138578063299a7bcc146101695780632a8067df1461017e575b600080fd5b61012361011e366004611551565b6102ab565b60405190151581526020015b60405180910390f35b61015b6101463660046114f4565b60009081526020819052604090206001015490565b60405190815260200161012f565b61017c6101773660046113c9565b6102d6565b005b61019161018c36600461142c565b610372565b6040516001600160a01b03909116815260200161012f565b61017c6101b736600461150c565b6104c7565b61015b7f23be91916126f9a6a0e610ec5bc1abf2a31783505a40a43c7e483b78ff7875f781565b61017c6101f136600461150c565b6104ee565b610191610204366004611401565b610510565b61019161021736600461142c565b610655565b61015b6000805160206128bf83398151915281565b61019161023f366004611530565b6106d3565b61012361025236600461150c565b6106f2565b61015b600081565b61019161026d3660046114f4565b61071b565b61015b6102803660046114f4565b6107e4565b61017c6102933660046113ad565b6107fb565b61017c6102a636600461150c565b610885565b60006001600160e01b03198216635a05180f60e01b14806102d057506102d0826108b2565b92915050565b6102ee6000805160206128bf833981519152336106f2565b6103135760405162461bcd60e51b815260040161030a90611621565b60405180910390fd5b6040516313af403560e01b81526001600160a01b0382811660048301528316906313af403590602401600060405180830381600087803b15801561035657600080fd5b505af115801561036a573d6000803e3d6000fd5b505050505050565b600080610380858585610655565b905061039a6000805160206128bf833981519152826106f2565b6103b65760405162461bcd60e51b815260040161030a90611621565b6000846040516020016103cb91815260200190565b6040516020818303038152906040528051906020012090506000816040516103f2906113a0565b8190604051809103906000f5905080158015610412573d6000803e3d6000fd5b506040516313af403560e01b81526001600160a01b038981166004830152919250908216906313af403590602401600060405180830381600087803b15801561045a57600080fd5b505af115801561046e573d6000803e3d6000fd5b5050604080516001600160a01b038b81168252602082018b905285168183015290517fa44da5d41bd11a9cca16cb2219d0bfe1c021e148ebbceeba15a39f85c9f32d689350908190036060019150a19695505050505050565b6104d182826108e7565b60008281526001602052604090206104e9908261089d565b505050565b6104f8828261090d565b60008281526001602052604090206104e99082610987565b600061052a6000805160206128bf833981519152336106f2565b6105465760405162461bcd60e51b815260040161030a90611621565b60008260405160200161055b91815260200190565b604051602081830303815290604052805190602001209050600081604051610582906113a0565b8190604051809103906000f59050801580156105a2573d6000803e3d6000fd5b506040516313af403560e01b81526001600160a01b038781166004830152919250908216906313af403590602401600060405180830381600087803b1580156105ea57600080fd5b505af11580156105fe573d6000803e3d6000fd5b5050604080516001600160a01b0389811682526020820189905285168183015290517fa44da5d41bd11a9cca16cb2219d0bfe1c021e148ebbceeba15a39f85c9f32d689350908190036060019150a1949350505050565b604080517f23be91916126f9a6a0e610ec5bc1abf2a31783505a40a43c7e483b78ff7875f760208201526001600160a01b038516918101919091526060810183905260009081906106be906080016040516020818303038152906040528051906020012061099c565b90506106ca81846109ea565b95945050505050565b60008281526001602052604081206106eb9083610a0e565b9392505050565b6000918252602082815260408084206001600160a01b0393909316845291905290205460ff1690565b6000808260405160200161073191815260200190565b604051602081830303815290604052805190602001209050600060ff60f81b308360405180602001610762906113a0565b6020820181038252601f19601f82011660405250805190602001206040516020016107c494939291906001600160f81b031994909416845260609290921b6bffffffffffffffffffffffff191660018401526015830152603582015260550190565b60408051601f198184030181529190528051602090910120949350505050565b60008181526001602052604081206102d090610a1a565b6108136000805160206128bf833981519152336106f2565b61082f5760405162461bcd60e51b815260040161030a90611621565b806001600160a01b03166341c0e1b56040518163ffffffff1660e01b8152600401600060405180830381600087803b15801561086a57600080fd5b505af115801561087e573d6000803e3d6000fd5b5050505050565b6104f88282610a24565b6108998282610a4a565b5050565b60006106eb836001600160a01b038416610ace565b60006001600160e01b03198216637965db0b60e01b14806102d057506301ffc9a760e01b6001600160e01b03198316146102d0565b6000828152602081905260409020600101546109038133610b1d565b6104e98383610a4a565b6001600160a01b038116331461097d5760405162461bcd60e51b815260206004820152602f60248201527f416363657373436f6e74726f6c3a2063616e206f6e6c792072656e6f756e636560448201526e103937b632b9903337b91039b2b63360891b606482015260840161030a565b6108998282610b81565b60006106eb836001600160a01b038416610be6565b60006102d06109a9610d03565b8360405161190160f01b6020820152602281018390526042810182905260009060620160405160208183030381529060405280519060200120905092915050565b60008060006109f98585610df6565b91509150610a0681610e66565b509392505050565b60006106eb838361106a565b60006102d0825490565b600082815260208190526040902060010154610a408133610b1d565b6104e98383610b81565b610a5482826106f2565b610899576000828152602081815260408083206001600160a01b03851684529091529020805460ff19166001179055610a8a3390565b6001600160a01b0316816001600160a01b0316837f2f8788117e7eff1d82e926ec794901d17c78024a50270940304540a733656f0d60405160405180910390a45050565b6000818152600183016020526040812054610b15575081546001818101845560008481526020808220909301849055845484825282860190935260409020919091556102d0565b5060006102d0565b610b2782826106f2565b61089957610b3f816001600160a01b031660146110a2565b610b4a8360206110a2565b604051602001610b5b929190611579565b60408051601f198184030181529082905262461bcd60e51b825261030a916004016115ee565b610b8b82826106f2565b15610899576000828152602081815260408083206001600160a01b0385168085529252808320805460ff1916905551339285917ff6391f5c32d9c69d2a47ea670b442974b53935d1edc7fd64eb21e047a839171b9190a45050565b60008181526001830160205260408120548015610cf9576000610c0a6001836116a6565b8554909150600090610c1e906001906116a6565b9050818114610c9f576000866000018281548110610c4c57634e487b7160e01b600052603260045260246000fd5b9060005260206000200154905080876000018481548110610c7d57634e487b7160e01b600052603260045260246000fd5b6000918252602080832090910192909255918252600188019052604090208390555b8554869080610cbe57634e487b7160e01b600052603160045260246000fd5b6001900381819060005260206000200160009055905585600101600086815260200190815260200160002060009055600193505050506102d0565b60009150506102d0565b60007f0000000000000000000000000000000000000000000000000000000000000000461415610d5257507f000000000000000000000000000000000000000000000000000000000000000090565b50604080517f00000000000000000000000000000000000000000000000000000000000000006020808301919091527f0000000000000000000000000000000000000000000000000000000000000000828401527f000000000000000000000000000000000000000000000000000000000000000060608301524660808301523060a0808401919091528351808403909101815260c0909201909252805191012090565b600080825160411415610e2d5760208301516040840151606085015160001a610e2187828585611284565b94509450505050610e5f565b825160401415610e575760208301516040840151610e4c868383611371565b935093505050610e5f565b506000905060025b9250929050565b6000816004811115610e8857634e487b7160e01b600052602160045260246000fd5b1415610e915750565b6001816004811115610eb357634e487b7160e01b600052602160045260246000fd5b1415610f015760405162461bcd60e51b815260206004820152601860248201527f45434453413a20696e76616c6964207369676e61747572650000000000000000604482015260640161030a565b6002816004811115610f2357634e487b7160e01b600052602160045260246000fd5b1415610f715760405162461bcd60e51b815260206004820152601f60248201527f45434453413a20696e76616c6964207369676e6174757265206c656e67746800604482015260640161030a565b6003816004811115610f9357634e487b7160e01b600052602160045260246000fd5b1415610fec5760405162461bcd60e51b815260206004820152602260248201527f45434453413a20696e76616c6964207369676e6174757265202773272076616c604482015261756560f01b606482015260840161030a565b600481600481111561100e57634e487b7160e01b600052602160045260246000fd5b14156110675760405162461bcd60e51b815260206004820152602260248201527f45434453413a20696e76616c6964207369676e6174757265202776272076616c604482015261756560f01b606482015260840161030a565b50565b600082600001828154811061108f57634e487b7160e01b600052603260045260246000fd5b9060005260206000200154905092915050565b606060006110b1836002611687565b6110bc90600261166f565b67ffffffffffffffff8111156110e257634e487b7160e01b600052604160045260246000fd5b6040519080825280601f01601f19166020018201604052801561110c576020820181803683370190505b509050600360fc1b8160008151811061113557634e487b7160e01b600052603260045260246000fd5b60200101906001600160f81b031916908160001a905350600f60fb1b8160018151811061117257634e487b7160e01b600052603260045260246000fd5b60200101906001600160f81b031916908160001a9053506000611196846002611687565b6111a190600161166f565b90505b6001811115611235576f181899199a1a9b1b9c1cb0b131b232b360811b85600f16601081106111e357634e487b7160e01b600052603260045260246000fd5b1a60f81b82828151811061120757634e487b7160e01b600052603260045260246000fd5b60200101906001600160f81b031916908160001a90535060049490941c9361122e816116ed565b90506111a4565b5083156106eb5760405162461bcd60e51b815260206004820181905260248201527f537472696e67733a20686578206c656e67746820696e73756666696369656e74604482015260640161030a565b6000807f7fffffffffffffffffffffffffffffff5d576e7357a4501ddfe92f46681b20a08311156112bb5750600090506003611368565b8460ff16601b141580156112d357508460ff16601c14155b156112e45750600090506004611368565b6040805160008082526020820180845289905260ff881692820192909252606081018690526080810185905260019060a0016020604051602081039080840390855afa158015611338573d6000803e3d6000fd5b5050604051601f1901519150506001600160a01b03811661136157600060019250925050611368565b9150600090505b94509492505050565b6000806001600160ff1b03831660ff84901c601b0161139287828885611284565b935093505050935093915050565b6111798061174683390190565b6000602082840312156113be578081fd5b81356106eb81611730565b600080604083850312156113db578081fd5b82356113e681611730565b915060208301356113f681611730565b809150509250929050565b60008060408385031215611413578182fd5b823561141e81611730565b946020939093013593505050565b600080600060608486031215611440578081fd5b833561144b81611730565b925060208401359150604084013567ffffffffffffffff8082111561146e578283fd5b818601915086601f830112611481578283fd5b8135818111156114935761149361171a565b604051601f8201601f19908116603f011681019083821181831017156114bb576114bb61171a565b816040528281528960208487010111156114d3578586fd5b82602086016020830137856020848301015280955050505050509250925092565b600060208284031215611505578081fd5b5035919050565b6000806040838503121561151e578182fd5b8235915060208301356113f681611730565b60008060408385031215611542578182fd5b50508035926020909101359150565b600060208284031215611562578081fd5b81356001600160e01b0319811681146106eb578182fd5b7f416363657373436f6e74726f6c3a206163636f756e74200000000000000000008152600083516115b18160178501602088016116bd565b7001034b99036b4b9b9b4b733903937b6329607d1b60179184019182015283516115e28160288401602088016116bd565b01602801949350505050565b602081526000825180602084015261160d8160408501602087016116bd565b601f01601f19169190910160400192915050565b6020808252602e908201527f4e465457616c6c6574466163746f72793a206d75737420686176652061646d6960408201526d1b881c9bdb19481d1bc81b5a5b9d60921b606082015260800190565b6000821982111561168257611682611704565b500190565b60008160001904831182151516156116a1576116a1611704565b500290565b6000828210156116b8576116b8611704565b500390565b60005b838110156116d85781810151838201526020016116c0565b838111156116e7576000848401525b50505050565b6000816116fc576116fc611704565b506000190190565b634e487b7160e01b600052601160045260246000fd5b634e487b7160e01b600052604160045260246000fd5b6001600160a01b038116811461106757600080fdfe608060405234801561001057600080fd5b50600080546001600160a01b03191633179055611147806100326000396000f3fe6080604052600436106100c65760003560e01c80638da5cb5b1161007f578063c45a015511610059578063c45a01551461022d578063d1660f991461024d578063f23a6e611461026d578063fba0ee641461029a57600080fd5b80638da5cb5b146101b35780639c23da50146101eb578063bc197c81146101fe57600080fd5b80630febdd49146100d257806313af4035146100f4578063150b7a021461011457806324a084df1461015e57806341c0e1b51461017e57806342842e0e1461019357600080fd5b366100cd57005b600080fd5b3480156100de57600080fd5b506100f26100ed366004610e39565b6102ba565b005b34801561010057600080fd5b506100f261010f366004610bf4565b61039c565b34801561012057600080fd5b5061014061012f366004610dc8565b630a85bd0160e11b95945050505050565b6040516001600160e01b031990911681526020015b60405180910390f35b34801561016a57600080fd5b506100f2610179366004610c10565b610436565b34801561018a57600080fd5b506100f2610477565b34801561019f57600080fd5b506100f26101ae366004610d88565b61051b565b3480156101bf57600080fd5b506001546101d3906001600160a01b031681565b6040516001600160a01b039091168152602001610155565b6100f26101f9366004610ee6565b6105d8565b34801561020a57600080fd5b50610140610219366004610ccd565b63bc197c8160e01b98975050505050505050565b34801561023957600080fd5b506000546101d3906001600160a01b031681565b34801561025957600080fd5b506100f2610268366004610f59565b610672565b34801561027957600080fd5b50610140610288366004610e7e565b63f23a6e6160e01b9695505050505050565b3480156102a657600080fd5b506100f26102b5366004610c3b565b6106b5565b6001546001600160a01b031633146102ed5760405162461bcd60e51b81526004016102e4906110a8565b60405180910390fd5b60408051600081526020810190915261039590637921219560e11b9061031e9030908790879087906044810161105b565b60408051601f19818403018152918152602080830180516001600160e01b03166001600160e01b0319909516949094179093528051808201909152601c81527f546f6b656e2045524331313535207472616e73666572206661696c2100000000928101929092526001600160a01b038716916107b3565b5050505050565b6000546001600160a01b031633146103e25760405162461bcd60e51b81526020600482015260096024820152683337b93134b23232b760b91b60448201526064016102e4565b600180546001600160a01b0319166001600160a01b0383169081179091556040519081527f3edd90e7770f06fafde38004653b33870066c33bfc923ff6102acd601f85dfbc9060200160405180910390a150565b6001546001600160a01b031633146104605760405162461bcd60e51b81526004016102e4906110a8565b6104736001600160a01b038316826107cc565b5050565b6000546001600160a01b031633146104bd5760405162461bcd60e51b81526020600482015260096024820152683337b93134b23232b760b91b60448201526064016102e4565b600054600154604080516001600160a01b0393841681529290911660208301524782820152517f9e971dac31ebb85d6f6e24058f5dafcff474f655986d82d270be4f2fcda773529181900360600190a16001546001600160a01b0316ff5b6001546001600160a01b031633146105455760405162461bcd60e51b81526004016102e4906110a8565b604080513060248201526001600160a01b03848116604483015260648083018590528351808403909101815260849092018352602080830180516001600160e01b0316632142170760e11b1790528351808501909452601b84527f546f6b656e20455243373231207472616e73666572206661696c210000000000908401526105d29290861691906107b3565b50505050565b600080846001600160a01b03163485856040516105f6929190610fcd565b60006040518083038185875af1925050503d8060008114610633576040519150601f19603f3d011682016040523d82523d6000602084013e610638565b606091505b509150915061066a82826040518060400160405280600a81526020016963616c6c206661696c6560b01b8152506108e5565b505050505050565b6001546001600160a01b0316331461069c5760405162461bcd60e51b81526004016102e4906110a8565b6106b06001600160a01b038416838361091e565b505050565b6001546001600160a01b031633146106df5760405162461bcd60e51b81526004016102e4906110a8565b6107aa637921219560e11b30878787878760006040519080825280601f01601f19166020018201604052801561071c576020820181803683370190505b506040516024016107339796959493929190610ff9565b60408051601f19818403018152918152602080830180516001600160e01b03166001600160e01b0319909516949094179093528051808201909152601c81527f546f6b656e2045524331313535207472616e73666572206661696c2100000000928101929092526001600160a01b038916916107b3565b50505050505050565b60606107c28484600085610970565b90505b9392505050565b8047101561081c5760405162461bcd60e51b815260206004820152601d60248201527f416464726573733a20696e73756666696369656e742062616c616e636500000060448201526064016102e4565b6000826001600160a01b03168260405160006040518083038185875af1925050503d8060008114610869576040519150601f19603f3d011682016040523d82523d6000602084013e61086e565b606091505b50509050806106b05760405162461bcd60e51b815260206004820152603a60248201527f416464726573733a20756e61626c6520746f2073656e642076616c75652c207260448201527f6563697069656e74206d6179206861766520726576657274656400000000000060648201526084016102e4565b606083156108f45750816107c5565b8251156109045782518084602001fd5b8160405162461bcd60e51b81526004016102e49190611095565b604080516001600160a01b038416602482015260448082018490528251808303909101815260649091019091526020810180516001600160e01b031663a9059cbb60e01b1790526106b0908490610a98565b6060824710156109d15760405162461bcd60e51b815260206004820152602660248201527f416464726573733a20696e73756666696369656e742062616c616e636520666f6044820152651c8818d85b1b60d21b60648201526084016102e4565b843b610a1f5760405162461bcd60e51b815260206004820152601d60248201527f416464726573733a2063616c6c20746f206e6f6e2d636f6e747261637400000060448201526064016102e4565b600080866001600160a01b03168587604051610a3b9190610fdd565b60006040518083038185875af1925050503d8060008114610a78576040519150601f19603f3d011682016040523d82523d6000602084013e610a7d565b606091505b5091509150610a8d8282866108e5565b979650505050505050565b6000610aed826040518060400160405280602081526020017f5361666545524332303a206c6f772d6c6576656c2063616c6c206661696c6564815250856001600160a01b03166107b39092919063ffffffff16565b8051909150156106b05780806020019051810190610b0b9190610f39565b6106b05760405162461bcd60e51b815260206004820152602a60248201527f5361666545524332303a204552433230206f7065726174696f6e20646964206e6044820152691bdd081cdd58d8d9595960b21b60648201526084016102e4565b60008083601f840112610b7b578182fd5b50813567ffffffffffffffff811115610b92578182fd5b6020830191508360208260051b8501011115610bad57600080fd5b9250929050565b60008083601f840112610bc5578182fd5b50813567ffffffffffffffff811115610bdc578182fd5b602083019150836020828501011115610bad57600080fd5b600060208284031215610c05578081fd5b81356107c5816110f9565b60008060408385031215610c22578081fd5b8235610c2d816110f9565b946020939093013593505050565b60008060008060008060808789031215610c53578182fd5b8635610c5e816110f9565b95506020870135610c6e816110f9565b9450604087013567ffffffffffffffff80821115610c8a578384fd5b610c968a838b01610b6a565b90965094506060890135915080821115610cae578384fd5b50610cbb89828a01610b6a565b979a9699509497509295939492505050565b60008060008060008060008060a0898b031215610ce8578182fd5b8835610cf3816110f9565b97506020890135610d03816110f9565b9650604089013567ffffffffffffffff80821115610d1f578384fd5b610d2b8c838d01610b6a565b909850965060608b0135915080821115610d43578384fd5b610d4f8c838d01610b6a565b909650945060808b0135915080821115610d67578384fd5b50610d748b828c01610bb4565b999c989b5096995094979396929594505050565b600080600060608486031215610d9c578283fd5b8335610da7816110f9565b92506020840135610db7816110f9565b929592945050506040919091013590565b600080600080600060808688031215610ddf578081fd5b8535610dea816110f9565b94506020860135610dfa816110f9565b935060408601359250606086013567ffffffffffffffff811115610e1c578182fd5b610e2888828901610bb4565b969995985093965092949392505050565b60008060008060808587031215610e4e578384fd5b8435610e59816110f9565b93506020850135610e69816110f9565b93969395505050506040820135916060013590565b60008060008060008060a08789031215610e96578182fd5b8635610ea1816110f9565b95506020870135610eb1816110f9565b94506040870135935060608701359250608087013567ffffffffffffffff811115610eda578283fd5b610cbb89828a01610bb4565b600080600060408486031215610efa578283fd5b8335610f05816110f9565b9250602084013567ffffffffffffffff811115610f20578283fd5b610f2c86828701610bb4565b9497909650939450505050565b600060208284031215610f4a578081fd5b815180151581146107c5578182fd5b600080600060608486031215610d9c578081fd5b81835260006001600160fb1b03831115610f85578081fd5b8260051b80836020870137939093016020019283525090919050565b60008151808452610fb98160208601602086016110cd565b601f01601f19169290920160200192915050565b8183823760009101908152919050565b60008251610fef8184602087016110cd565b9190910192915050565b6001600160a01b0388811682528716602082015260a0604082018190526000906110269083018789610f6d565b8281036060840152611039818688610f6d565b9050828103608084015261104d8185610fa1565b9a9950505050505050505050565b6001600160a01b03868116825285166020820152604081018490526060810183905260a060808201819052600090610a8d90830184610fa1565b6020815260006107c56020830184610fa1565b6020808252600b908201526a6f6e6c79206f776e65722160a81b604082015260600190565b60005b838110156110e85781810151838201526020016110d0565b838111156105d25750506000910152565b6001600160a01b038116811461110e57600080fd5b5056fea2646970667358221220280d9af524a1047307b7555e92c4c8db217a78c5fca19968a92c1db7d8777a4064736f6c63430008040033a49807205ce4d355092ef5a8a18f56e8913cf4a201fbe287825b095693c21775a264697066735822122038b5c6e198d31d97b7f1d3a176ee728254b748dd7bfdc73aca637e466ab0c50664736f6c63430008040033",
  "linkReferences": {},
  "deployedLinkReferences": {}
}