{
  "_format": "hh-sol-artifact-1",
  "contractName": "ERC721AMint",
  "sourceName": "contracts/ERC721MintWhitelist.sol",
  "abi": [
    {
      "inputs": [],
      "stateMutability": "nonpayable",
      "type": "constructor"
    },
    {
      "anonymous": false,
      "inputs": [
        {
          "indexed": true,
          "internalType": "address",
          "name": "owner",
          "type": "address"
        },
        {
          "indexed": true,
          "internalType": "address",
          "name": "approved",
          "type": "address"
        },
        {
          "indexed": true,
          "internalType": "uint256",
          "name": "tokenId",
          "type": "uint256"
        }
      ],
      "name": "Approval",
      "type": "event"
    },
    {
      "anonymous": false,
      "inputs": [
        {
          "indexed": true,
          "internalType": "address",
          "name": "owner",
          "type": "address"
        },
        {
          "indexed": true,
          "internalType": "address",
          "name": "operator",
          "type": "address"
        },
        {
          "indexed": false,
          "internalType": "bool",
          "name": "approved",
          "type": "bool"
        }
      ],
      "name": "ApprovalForAll",
      "type": "event"
    },
    {
      "anonymous": false,
      "inputs": [
        {
          "indexed": true,
          "internalType": "address",
          "name": "previousOwner",
          "type": "address"
        },
        {
          "indexed": true,
          "internalType": "address",
          "name": "newOwner",
          "type": "address"
        }
      ],
      "name": "OwnershipTransferred",
      "type": "event"
    },
    {
      "anonymous": false,
      "inputs": [
        {
          "indexed": true,
          "internalType": "address",
          "name": "from",
          "type": "address"
        },
        {
          "indexed": true,
          "internalType": "address",
          "name": "to",
          "type": "address"
        },
        {
          "indexed": true,
          "internalType": "uint256",
          "name": "tokenId",
          "type": "uint256"
        }
      ],
      "name": "Transfer",
      "type": "event"
    },
    {
      "inputs": [
        {
          "internalType": "address",
          "name": "",
          "type": "address"
        }
      ],
      "name": "accountMinted",
      "outputs": [
        {
          "internalType": "uint256",
          "name": "",
          "type": "uint256"
        }
      ],
      "stateMutability": "view",
      "type": "function"
    },
    {
      "inputs": [
        {
          "internalType": "address[]",
          "name": "accounts",
          "type": "address[]"
        }
      ],
      "name": "airdrop",
      "outputs": [],
      "stateMutability": "nonpayable",
      "type": "function"
    },
    {
      "inputs": [
        {
          "internalType": "address",
          "name": "to",
          "type": "address"
        },
        {
          "internalType": "uint256",
          "name": "tokenId",
          "type": "uint256"
        }
      ],
      "name": "approve",
      "outputs": [],
      "stateMutability": "nonpayable",
      "type": "function"
    },
    {
      "inputs": [
        {
          "internalType": "address",
          "name": "owner",
          "type": "address"
        }
      ],
      "name": "balanceOf",
      "outputs": [
        {
          "internalType": "uint256",
          "name": "",
          "type": "uint256"
        }
      ],
      "stateMutability": "view",
      "type": "function"
    },
    {
      "inputs": [],
      "name": "baseURI",
      "outputs": [
        {
          "internalType": "string",
          "name": "",
          "type": "string"
        }
      ],
      "stateMutability": "view",
      "type": "function"
    },
    {
      "inputs": [
        {
          "internalType": "uint256",
          "name": "tokenId",
          "type": "uint256"
        }
      ],
      "name": "getApproved",
      "outputs": [
        {
          "internalType": "address",
          "name": "",
          "type": "address"
        }
      ],
      "stateMutability": "view",
      "type": "function"
    },
    {
      "inputs": [
        {
          "internalType": "address",
          "name": "owner",
          "type": "address"
        },
        {
          "internalType": "address",
          "name": "operator",
          "type": "address"
        }
      ],
      "name": "isApprovedForAll",
      "outputs": [
        {
          "internalType": "bool",
          "name": "",
          "type": "bool"
        }
      ],
      "stateMutability": "view",
      "type": "function"
    },
    {
      "inputs": [],
      "name": "maxMintPerAccount",
      "outputs": [
        {
          "internalType": "uint256",
          "name": "",
          "type": "uint256"
        }
      ],
      "stateMutability": "view",
      "type": "function"
    },
    {
      "inputs": [],
      "name": "maxSupply",
      "outputs": [
        {
          "internalType": "uint256",
          "name": "",
          "type": "uint256"
        }
      ],
      "stateMutability": "view",
      "type": "function"
    },
    {
      "inputs": [
        {
          "internalType": "uint256",
          "name": "quantity",
          "type": "uint256"
        }
      ],
      "name": "mint",
      "outputs": [],
      "stateMutability": "nonpayable",
      "type": "function"
    },
    {
      "inputs": [],
      "name": "name",
      "outputs": [
        {
          "internalType": "string",
          "name": "",
          "type": "string"
        }
      ],
      "stateMutability": "view",
      "type": "function"
    },
    {
      "inputs": [],
      "name": "owner",
      "outputs": [
        {
          "internalType": "address",
          "name": "",
          "type": "address"
        }
      ],
      "stateMutability": "view",
      "type": "function"
    },
    {
      "inputs": [
        {
          "internalType": "uint256",
          "name": "tokenId",
          "type": "uint256"
        }
      ],
      "name": "ownerOf",
      "outputs": [
        {
          "internalType": "address",
          "name": "",
          "type": "address"
        }
      ],
      "stateMutability": "view",
      "type": "function"
    },
    {
      "inputs": [],
      "name": "renounceOwnership",
      "outputs": [],
      "stateMutability": "nonpayable",
      "type": "function"
    },
    {
      "inputs": [],
      "name": "root",
      "outputs": [
        {
          "internalType": "bytes32",
          "name": "",
          "type": "bytes32"
        }
      ],
      "stateMutability": "view",
      "type": "function"
    },
    {
      "inputs": [
        {
          "internalType": "address",
          "name": "from",
          "type": "address"
        },
        {
          "internalType": "address",
          "name": "to",
          "type": "address"
        },
        {
          "internalType": "uint256",
          "name": "tokenId",
          "type": "uint256"
        }
      ],
      "name": "safeTransferFrom",
      "outputs": [],
      "stateMutability": "nonpayable",
      "type": "function"
    },
    {
      "inputs": [
        {
          "internalType": "address",
          "name": "from",
          "type": "address"
        },
        {
          "internalType": "address",
          "name": "to",
          "type": "address"
        },
        {
          "internalType": "uint256",
          "name": "tokenId",
          "type": "uint256"
        },
        {
          "internalType": "bytes",
          "name": "_data",
          "type": "bytes"
        }
      ],
      "name": "safeTransferFrom",
      "outputs": [],
      "stateMutability": "nonpayable",
      "type": "function"
    },
    {
      "inputs": [],
      "name": "saleActive",
      "outputs": [
        {
          "internalType": "bool",
          "name": "",
          "type": "bool"
        }
      ],
      "stateMutability": "view",
      "type": "function"
    },
    {
      "inputs": [
        {
          "internalType": "address",
          "name": "operator",
          "type": "address"
        },
        {
          "internalType": "bool",
          "name": "approved",
          "type": "bool"
        }
      ],
      "name": "setApprovalForAll",
      "outputs": [],
      "stateMutability": "nonpayable",
      "type": "function"
    },
    {
      "inputs": [
        {
          "internalType": "string",
          "name": "baseURI_",
          "type": "string"
        }
      ],
      "name": "setBaseURI",
      "outputs": [],
      "stateMutability": "nonpayable",
      "type": "function"
    },
    {
      "inputs": [
        {
          "internalType": "bytes32",
          "name": "_root",
          "type": "bytes32"
        }
      ],
      "name": "setRoot",
      "outputs": [],
      "stateMutability": "nonpayable",
      "type": "function"
    },
    {
      "inputs": [
        {
          "internalType": "bool",
          "name": "_saleActive",
          "type": "bool"
        }
      ],
      "name": "setSaleActive",
      "outputs": [],
      "stateMutability": "nonpayable",
      "type": "function"
    },
    {
      "inputs": [
        {
          "internalType": "bytes4",
          "name": "interfaceId",
          "type": "bytes4"
        }
      ],
      "name": "supportsInterface",
      "outputs": [
        {
          "internalType": "bool",
          "name": "",
          "type": "bool"
        }
      ],
      "stateMutability": "view",
      "type": "function"
    },
    {
      "inputs": [],
      "name": "symbol",
      "outputs": [
        {
          "internalType": "string",
          "name": "",
          "type": "string"
        }
      ],
      "stateMutability": "view",
      "type": "function"
    },
    {
      "inputs": [
        {
          "internalType": "uint256",
          "name": "index",
          "type": "uint256"
        }
      ],
      "name": "tokenByIndex",
      "outputs": [
        {
          "internalType": "uint256",
          "name": "",
          "type": "uint256"
        }
      ],
      "stateMutability": "view",
      "type": "function"
    },
    {
      "inputs": [
        {
          "internalType": "address",
          "name": "owner",
          "type": "address"
        },
        {
          "internalType": "uint256",
          "name": "index",
          "type": "uint256"
        }
      ],
      "name": "tokenOfOwnerByIndex",
      "outputs": [
        {
          "internalType": "uint256",
          "name": "",
          "type": "uint256"
        }
      ],
      "stateMutability": "view",
      "type": "function"
    },
    {
      "inputs": [
        {
          "internalType": "uint256",
          "name": "tokenId",
          "type": "uint256"
        }
      ],
      "name": "tokenURI",
      "outputs": [
        {
          "internalType": "string",
          "name": "",
          "type": "string"
        }
      ],
      "stateMutability": "view",
      "type": "function"
    },
    {
      "inputs": [],
      "name": "totalSupply",
      "outputs": [
        {
          "internalType": "uint256",
          "name": "",
          "type": "uint256"
        }
      ],
      "stateMutability": "view",
      "type": "function"
    },
    {
      "inputs": [
        {
          "internalType": "address",
          "name": "from",
          "type": "address"
        },
        {
          "internalType": "address",
          "name": "to",
          "type": "address"
        },
        {
          "internalType": "uint256",
          "name": "tokenId",
          "type": "uint256"
        }
      ],
      "name": "transferFrom",
      "outputs": [],
      "stateMutability": "nonpayable",
      "type": "function"
    },
    {
      "inputs": [
        {
          "internalType": "address",
          "name": "newOwner",
          "type": "address"
        }
      ],
      "name": "transferOwnership",
      "outputs": [],
      "stateMutability": "nonpayable",
      "type": "function"
    },
    {
      "inputs": [
        {
          "internalType": "address",
          "name": "",
          "type": "address"
        }
      ],
      "name": "wlClaimed",
      "outputs": [
        {
          "internalType": "uint256",
          "name": "",
          "type": "uint256"
        }
      ],
      "stateMutability": "view",
      "type": "function"
    },
    {
      "inputs": [
        {
          "internalType": "bytes32[]",
          "name": "proof",
          "type": "bytes32[]"
        },
        {
          "internalType": "uint256",
          "name": "quantity",
          "type": "uint256"
        }
      ],
      "name": "wlMint",
      "outputs": [],
      "stateMutability": "nonpayable",
      "type": "function"
    }
  ],
  "bytecode": "0x608060405261270f600b556002600c553480156200001c57600080fd5b5060405180604001604052806005815260200164417a756b6960d81b81525060405180604001604052806005815260200164415a554b4960d81b81525081600090805190602001906200007192919062000100565b5080516200008790600190602084019062000100565b505050620000a46200009e620000aa60201b60201c565b620000ae565b620001e3565b3390565b600a80546001600160a01b038381166001600160a01b0319831681179093556040519116919082907f8be0079c531659141344cd1fd0a4f28419497f9722a3daafe3b4186f6b6457e090600090a35050565b8280546200010e90620001a6565b90600052602060002090601f0160209004810192826200013257600085556200017d565b82601f106200014d57805160ff19168380011785556200017d565b828001600101855582156200017d579182015b828111156200017d57825182559160200191906001019062000160565b506200018b9291506200018f565b5090565b5b808211156200018b576000815560010162000190565b600181811c90821680620001bb57607f821691505b60208210811415620001dd57634e487b7160e01b600052602260045260246000fd5b50919050565b61236280620001f36000396000f3fe608060405234801561001057600080fd5b50600436106101f05760003560e01c806370a082311161010f578063b88d4fde116100a2578063dab5f34011610071578063dab5f34014610416578063e985e9c514610429578063ebf0c71714610465578063f2fde38b1461046e57600080fd5b8063b88d4fde146103c7578063c87b56dd146103da578063c9eb7060146103ed578063d5abeb011461040d57600080fd5b80638da5cb5b116100de5780638da5cb5b1461038857806395d89b4114610399578063a0712d68146103a1578063a22cb465146103b457600080fd5b806370a0823114610347578063715018a61461035a578063729ad39e14610362578063841718a61461037557600080fd5b80633a1c5834116101875780635a089b30116101565780635a089b30146102ff5780636352211e1461031f57806368428a1b146103325780636c0360eb1461033f57600080fd5b80633a1c5834146102bd57806342842e0e146102c65780634f6ccce7146102d957806355f804b3146102ec57600080fd5b806318160ddd116101c357806318160ddd1461027257806322f74bcb1461028457806323b872dd146102975780632f745c59146102aa57600080fd5b806301ffc9a7146101f557806306fdde031461021d578063081812fc14610232578063095ea7b31461025d575b600080fd5b610208610203366004611fa7565b610481565b60405190151581526020015b60405180910390f35b6102256104ac565b60405161021491906120bd565b610245610240366004611f8f565b61053e565b6040516001600160a01b039091168152602001610214565b61027061026b366004611ec2565b6105d8565b005b6008545b604051908152602001610214565b610270610292366004611f2b565b6106ee565b6102706102a5366004611de5565b610829565b6102766102b8366004611ec2565b61085a565b610276600c5481565b6102706102d4366004611de5565b6108f0565b6102766102e7366004611f8f565b61090b565b6102706102fa366004611fdf565b6109ac565b61027661030d366004611d99565b60116020526000908152604090205481565b61024561032d366004611f8f565b6109ed565b600d546102089060ff1681565b610225610a64565b610276610355366004611d99565b610af2565b610270610b79565b610270610370366004611eeb565b610baf565b610270610383366004611f75565b610c33565b600a546001600160a01b0316610245565b610225610c70565b6102706103af366004611f8f565b610c7f565b6102706103c2366004611e99565b610e90565b6102706103d5366004611e20565b610f55565b6102256103e8366004611f8f565b610f8d565b6102766103fb366004611d99565b60106020526000908152604090205481565b610276600b5481565b610270610424366004611f8f565b611068565b610208610437366004611db3565b6001600160a01b03918216600090815260056020908152604080832093909416825291909152205460ff1690565b610276600f5481565b61027061047c366004611d99565b611097565b60006001600160e01b0319821663780e9d6360e01b14806104a657506104a68261112f565b92915050565b6060600080546104bb9061226a565b80601f01602080910402602001604051908101604052809291908181526020018280546104e79061226a565b80156105345780601f1061050957610100808354040283529160200191610534565b820191906000526020600020905b81548152906001019060200180831161051757829003601f168201915b5050505050905090565b6000818152600260205260408120546001600160a01b03166105bc5760405162461bcd60e51b815260206004820152602c60248201527f4552433732313a20617070726f76656420717565727920666f72206e6f6e657860448201526b34b9ba32b73a103a37b5b2b760a11b60648201526084015b60405180910390fd5b506000908152600460205260409020546001600160a01b031690565b60006105e3826109ed565b9050806001600160a01b0316836001600160a01b031614156106515760405162461bcd60e51b815260206004820152602160248201527f4552433732313a20617070726f76616c20746f2063757272656e74206f776e656044820152603960f91b60648201526084016105b3565b336001600160a01b038216148061066d575061066d8133610437565b6106df5760405162461bcd60e51b815260206004820152603860248201527f4552433732313a20617070726f76652063616c6c6572206973206e6f74206f7760448201527f6e6572206e6f7220617070726f76656420666f7220616c6c000000000000000060648201526084016105b3565b6106e9838361117f565b505050565b336000908152601160205260409020546107099082906121fb565b336000908152601160205260409020819055600c54101561073c5760405162461bcd60e51b81526004016105b3906120d0565b61079e83838080602002602001604051908101604052809392919081815260200183836020028082843760009201919091525050600f5460408051336020820152919350019050604051602081830303815290604052805190602001206111ed565b6107e15760405162461bcd60e51b815260206004820152601460248201527334b73b30b634b21036b2b935b63290383937b7b360611b60448201526064016105b3565b33600090815260116020526040812080548392906108009084906121fb565b9250508190555080600b600082825461081991906121fb565b909155506106e9905033826112aa565b61083333826112c4565b61084f5760405162461bcd60e51b81526004016105b3906121aa565b6106e98383836113bb565b600061086583610af2565b82106108c75760405162461bcd60e51b815260206004820152602b60248201527f455243373231456e756d657261626c653a206f776e657220696e646578206f7560448201526a74206f6620626f756e647360a81b60648201526084016105b3565b506001600160a01b03919091166000908152600660209081526040808320938352929052205490565b6106e983838360405180602001604052806000815250610f55565b600061091660085490565b82106109795760405162461bcd60e51b815260206004820152602c60248201527f455243373231456e756d657261626c653a20676c6f62616c20696e646578206f60448201526b7574206f6620626f756e647360a01b60648201526084016105b3565b6008828154811061099a57634e487b7160e01b600052603260045260246000fd5b90600052602060002001549050919050565b600a546001600160a01b031633146109d65760405162461bcd60e51b81526004016105b390612175565b80516109e990600e906020840190611c14565b5050565b6000818152600260205260408120546001600160a01b0316806104a65760405162461bcd60e51b815260206004820152602960248201527f4552433732313a206f776e657220717565727920666f72206e6f6e657869737460448201526832b73a103a37b5b2b760b91b60648201526084016105b3565b600e8054610a719061226a565b80601f0160208091040260200160405190810160405280929190818152602001828054610a9d9061226a565b8015610aea5780601f10610abf57610100808354040283529160200191610aea565b820191906000526020600020905b815481529060010190602001808311610acd57829003601f168201915b505050505081565b60006001600160a01b038216610b5d5760405162461bcd60e51b815260206004820152602a60248201527f4552433732313a2062616c616e636520717565727920666f7220746865207a65604482015269726f206164647265737360b01b60648201526084016105b3565b506001600160a01b031660009081526003602052604090205490565b600a546001600160a01b03163314610ba35760405162461bcd60e51b81526004016105b390612175565b610bad6000611566565b565b600a546001600160a01b03163314610bd95760405162461bcd60e51b81526004016105b390612175565b60005b818110156106e957610c23838383818110610c0757634e487b7160e01b600052603260045260246000fd5b9050602002016020810190610c1c9190611d99565b60016112aa565b610c2c816122a5565b9050610bdc565b600a546001600160a01b03163314610c5d5760405162461bcd60e51b81526004016105b390612175565b600d805460ff1916911515919091179055565b6060600180546104bb9061226a565b323314610cce5760405162461bcd60e51b815260206004820152601e60248201527f5468652063616c6c657220697320616e6f7468657220636f6e7472616374000060448201526064016105b3565b600d5460ff16610d205760405162461bcd60e51b815260206004820152601b60248201527f53616c65206d7573742062652061637469766520746f206d696e74000000000060448201526064016105b3565b60008111610d965760405162461bcd60e51b815260206004820152603960248201527f53656e64657220697320747279696e6720746f206d696e7420746f6f206d616e60448201527f7920696e20612073696e676c65207472616e73616374696f6e0000000000000060648201526084016105b3565b600c5433600090815260106020526040902054610db49083906121fb565b1115610dd25760405162461bcd60e51b81526004016105b3906120d0565b600b5481610ddf60085490565b610de991906121fb565b1115610e455760405162461bcd60e51b815260206004820152602560248201527f4d696e7420776f756c6420657863656564206d617820737570706c79206f66206044820152646d696e747360d81b60648201526084016105b3565b3360009081526010602052604081208054839290610e649084906121fb565b9250508190555080600b6000828254610e7d91906121fb565b90915550610e8d905033826112aa565b50565b6001600160a01b038216331415610ee95760405162461bcd60e51b815260206004820152601960248201527f4552433732313a20617070726f766520746f2063616c6c65720000000000000060448201526064016105b3565b3360008181526005602090815260408083206001600160a01b03871680855290835292819020805460ff191686151590811790915590519081529192917f17307eab39ab6107e8899845ad3d59bd9653f200f220920489ca2b5937696c31910160405180910390a35050565b610f5f33836112c4565b610f7b5760405162461bcd60e51b81526004016105b3906121aa565b610f87848484846115b8565b50505050565b6000818152600260205260409020546060906001600160a01b031661100c5760405162461bcd60e51b815260206004820152602f60248201527f4552433732314d657461646174613a2055524920717565727920666f72206e6f60448201526e3732bc34b9ba32b73a103a37b5b2b760891b60648201526084016105b3565b60006110166115eb565b905060008151116110365760405180602001604052806000815250611061565b80611040846115fa565b604051602001611051929190612051565b6040516020818303038152906040525b9392505050565b600a546001600160a01b031633146110925760405162461bcd60e51b81526004016105b390612175565b600f55565b600a546001600160a01b031633146110c15760405162461bcd60e51b81526004016105b390612175565b6001600160a01b0381166111265760405162461bcd60e51b815260206004820152602660248201527f4f776e61626c653a206e6577206f776e657220697320746865207a65726f206160448201526564647265737360d01b60648201526084016105b3565b610e8d81611566565b60006001600160e01b031982166380ac58cd60e01b148061116057506001600160e01b03198216635b5e139f60e01b145b806104a657506301ffc9a760e01b6001600160e01b03198316146104a6565b600081815260046020526040902080546001600160a01b0319166001600160a01b03841690811790915581906111b4826109ed565b6001600160a01b03167f8c5be1e5ebec7d5bd14f71427d1e84f3dd0314c0f7b2291e5b200ac8c7c3b92560405160405180910390a45050565b600081815b855181101561129f57600086828151811061121d57634e487b7160e01b600052603260045260246000fd5b6020026020010151905080831161125f57604080516020810185905290810182905260600160405160208183030381529060405280519060200120925061128c565b60408051602081018390529081018490526060016040516020818303038152906040528051906020012092505b5080611297816122a5565b9150506111f2565b509092149392505050565b6109e9828260405180602001604052806000815250611714565b6000818152600260205260408120546001600160a01b031661133d5760405162461bcd60e51b815260206004820152602c60248201527f4552433732313a206f70657261746f7220717565727920666f72206e6f6e657860448201526b34b9ba32b73a103a37b5b2b760a11b60648201526084016105b3565b6000611348836109ed565b9050806001600160a01b0316846001600160a01b031614806113835750836001600160a01b03166113788461053e565b6001600160a01b0316145b806113b357506001600160a01b0380821660009081526005602090815260408083209388168352929052205460ff165b949350505050565b826001600160a01b03166113ce826109ed565b6001600160a01b0316146114365760405162461bcd60e51b815260206004820152602960248201527f4552433732313a207472616e73666572206f6620746f6b656e2074686174206960448201526839903737ba1037bbb760b91b60648201526084016105b3565b6001600160a01b0382166114985760405162461bcd60e51b8152602060048201526024808201527f4552433732313a207472616e7366657220746f20746865207a65726f206164646044820152637265737360e01b60648201526084016105b3565b6114a3838383611747565b6114ae60008261117f565b6001600160a01b03831660009081526003602052604081208054600192906114d7908490612227565b90915550506001600160a01b03821660009081526003602052604081208054600192906115059084906121fb565b909155505060008181526002602052604080822080546001600160a01b0319166001600160a01b0386811691821790925591518493918716917fddf252ad1be2c89b69c2b068fc378daa952ba7f163c4a11628f55a4df523b3ef91a4505050565b600a80546001600160a01b038381166001600160a01b0319831681179093556040519116919082907f8be0079c531659141344cd1fd0a4f28419497f9722a3daafe3b4186f6b6457e090600090a35050565b6115c38484846113bb565b6115cf848484846117ff565b610f875760405162461bcd60e51b81526004016105b390612123565b6060600e80546104bb9061226a565b60608161161e5750506040805180820190915260018152600360fc1b602082015290565b8160005b81156116485780611632816122a5565b91506116419050600a83612213565b9150611622565b60008167ffffffffffffffff81111561167157634e487b7160e01b600052604160045260246000fd5b6040519080825280601f01601f19166020018201604052801561169b576020820181803683370190505b5090505b84156113b3576116b0600183612227565b91506116bd600a866122c0565b6116c89060306121fb565b60f81b8183815181106116eb57634e487b7160e01b600052603260045260246000fd5b60200101906001600160f81b031916908160001a90535061170d600a86612213565b945061169f565b61171e838361190c565b61172b60008484846117ff565b6106e95760405162461bcd60e51b81526004016105b390612123565b6001600160a01b0383166117a25761179d81600880546000838152600960205260408120829055600182018355919091527ff3f7a9fe364faab93b216da50a3214154f22a0a2b415b23a84c8169e8b636ee30155565b6117c5565b816001600160a01b0316836001600160a01b0316146117c5576117c58382611a5a565b6001600160a01b0382166117dc576106e981611af7565b826001600160a01b0316826001600160a01b0316146106e9576106e98282611bd0565b60006001600160a01b0384163b1561190157604051630a85bd0160e11b81526001600160a01b0385169063150b7a0290611843903390899088908890600401612080565b602060405180830381600087803b15801561185d57600080fd5b505af192505050801561188d575060408051601f3d908101601f1916820190925261188a91810190611fc3565b60015b6118e7573d8080156118bb576040519150601f19603f3d011682016040523d82523d6000602084013e6118c0565b606091505b5080516118df5760405162461bcd60e51b81526004016105b390612123565b805181602001fd5b6001600160e01b031916630a85bd0160e11b1490506113b3565b506001949350505050565b6001600160a01b0382166119625760405162461bcd60e51b815260206004820181905260248201527f4552433732313a206d696e7420746f20746865207a65726f206164647265737360448201526064016105b3565b6000818152600260205260409020546001600160a01b0316156119c75760405162461bcd60e51b815260206004820152601c60248201527f4552433732313a20746f6b656e20616c7265616479206d696e7465640000000060448201526064016105b3565b6119d360008383611747565b6001600160a01b03821660009081526003602052604081208054600192906119fc9084906121fb565b909155505060008181526002602052604080822080546001600160a01b0319166001600160a01b03861690811790915590518392907fddf252ad1be2c89b69c2b068fc378daa952ba7f163c4a11628f55a4df523b3ef908290a45050565b60006001611a6784610af2565b611a719190612227565b600083815260076020526040902054909150808214611ac4576001600160a01b03841660009081526006602090815260408083208584528252808320548484528184208190558352600790915290208190555b5060009182526007602090815260408084208490556001600160a01b039094168352600681528383209183525290812055565b600854600090611b0990600190612227565b60008381526009602052604081205460088054939450909284908110611b3f57634e487b7160e01b600052603260045260246000fd5b906000526020600020015490508060088381548110611b6e57634e487b7160e01b600052603260045260246000fd5b6000918252602080832090910192909255828152600990915260408082208490558582528120556008805480611bb457634e487b7160e01b600052603160045260246000fd5b6001900381819060005260206000200160009055905550505050565b6000611bdb83610af2565b6001600160a01b039093166000908152600660209081526040808320868452825280832085905593825260079052919091209190915550565b828054611c209061226a565b90600052602060002090601f016020900481019282611c425760008555611c88565b82601f10611c5b57805160ff1916838001178555611c88565b82800160010185558215611c88579182015b82811115611c88578251825591602001919060010190611c6d565b50611c94929150611c98565b5090565b5b80821115611c945760008155600101611c99565b600067ffffffffffffffff80841115611cc857611cc8612300565b604051601f8501601f19908116603f01168101908282118183101715611cf057611cf0612300565b81604052809350858152868686011115611d0957600080fd5b858560208301376000602087830101525050509392505050565b80356001600160a01b0381168114611d3a57600080fd5b919050565b60008083601f840112611d50578081fd5b50813567ffffffffffffffff811115611d67578182fd5b6020830191508360208260051b8501011115611d8257600080fd5b9250929050565b80358015158114611d3a57600080fd5b600060208284031215611daa578081fd5b61106182611d23565b60008060408385031215611dc5578081fd5b611dce83611d23565b9150611ddc60208401611d23565b90509250929050565b600080600060608486031215611df9578081fd5b611e0284611d23565b9250611e1060208501611d23565b9150604084013590509250925092565b60008060008060808587031215611e35578081fd5b611e3e85611d23565b9350611e4c60208601611d23565b925060408501359150606085013567ffffffffffffffff811115611e6e578182fd5b8501601f81018713611e7e578182fd5b611e8d87823560208401611cad565b91505092959194509250565b60008060408385031215611eab578182fd5b611eb483611d23565b9150611ddc60208401611d89565b60008060408385031215611ed4578182fd5b611edd83611d23565b946020939093013593505050565b60008060208385031215611efd578182fd5b823567ffffffffffffffff811115611f13578283fd5b611f1f85828601611d3f565b90969095509350505050565b600080600060408486031215611f3f578283fd5b833567ffffffffffffffff811115611f55578384fd5b611f6186828701611d3f565b909790965060209590950135949350505050565b600060208284031215611f86578081fd5b61106182611d89565b600060208284031215611fa0578081fd5b5035919050565b600060208284031215611fb8578081fd5b813561106181612316565b600060208284031215611fd4578081fd5b815161106181612316565b600060208284031215611ff0578081fd5b813567ffffffffffffffff811115612006578182fd5b8201601f81018413612016578182fd5b6113b384823560208401611cad565b6000815180845261203d81602086016020860161223e565b601f01601f19169290920160200192915050565b6000835161206381846020880161223e565b83519083019061207781836020880161223e565b01949350505050565b6001600160a01b03858116825284166020820152604081018390526080606082018190526000906120b390830184612025565b9695505050505050565b6020815260006110616020830184612025565b60208082526033908201527f53656e64657220697320747279696e6720746f206d696e74206d6f7265207468604082015272616e20616c6c6f636174656420746f6b656e7360681b606082015260800190565b60208082526032908201527f4552433732313a207472616e7366657220746f206e6f6e20455243373231526560408201527131b2b4bb32b91034b6b83632b6b2b73a32b960711b606082015260800190565b6020808252818101527f4f776e61626c653a2063616c6c6572206973206e6f7420746865206f776e6572604082015260600190565b60208082526031908201527f4552433732313a207472616e736665722063616c6c6572206973206e6f74206f6040820152701ddb995c881b9bdc88185c1c1c9bdd9959607a1b606082015260800190565b6000821982111561220e5761220e6122d4565b500190565b600082612222576122226122ea565b500490565b600082821015612239576122396122d4565b500390565b60005b83811015612259578181015183820152602001612241565b83811115610f875750506000910152565b600181811c9082168061227e57607f821691505b6020821081141561229f57634e487b7160e01b600052602260045260246000fd5b50919050565b60006000198214156122b9576122b96122d4565b5060010190565b6000826122cf576122cf6122ea565b500690565b634e487b7160e01b600052601160045260246000fd5b634e487b7160e01b600052601260045260246000fd5b634e487b7160e01b600052604160045260246000fd5b6001600160e01b031981168114610e8d57600080fdfea2646970667358221220467b827c109e11fe5833ba596e6a854bae52483774835eabf2864508ed8e9c0c64736f6c63430008040033",
  "linkReferences": {},
  "deployedLinkReferences": {}
}