{
  "_format": "hh-sol-artifact-1",
  "contractName": "NFTWallet",
  "sourceName": "contracts/NFTWallet.sol",
  "abi": [
    {
      "inputs": [],
      "stateMutability": "nonpayable",
      "type": "constructor"
    },
    {
      "anonymous": false,
      "inputs": [
        {
          "indexed": false,
          "internalType": "address",
          "name": "factory",
          "type": "address"
        },
        {
          "indexed": false,
          "internalType": "address",
          "name": "owner",
          "type": "address"
        },
        {
          "indexed": false,
          "internalType": "uint256",
          "name": "balance",
          "type": "uint256"
        }
      ],
      "name": "Kill",
      "type": "event"
    },
    {
      "anonymous": false,
      "inputs": [
        {
          "indexed": false,
          "internalType": "address",
          "name": "owner",
          "type": "address"
        }
      ],
      "name": "NewOwner",
      "type": "event"
    },
    {
      "inputs": [
        {
          "internalType": "address",
          "name": "target",
          "type": "address"
        },
        {
          "internalType": "bytes",
          "name": "data",
          "type": "bytes"
        }
      ],
      "name": "callFunction",
      "outputs": [],
      "stateMutability": "payable",
      "type": "function"
    },
    {
      "inputs": [],
      "name": "factory",
      "outputs": [
        {
          "internalType": "address",
          "name": "",
          "type": "address"
        }
      ],
      "stateMutability": "view",
      "type": "function"
    },
    {
      "inputs": [],
      "name": "kill",
      "outputs": [],
      "stateMutability": "nonpayable",
      "type": "function"
    },
    {
      "inputs": [
        {
          "internalType": "address",
          "name": "operator",
          "type": "address"
        },
        {
          "internalType": "address",
          "name": "from",
          "type": "address"
        },
        {
          "internalType": "uint256[]",
          "name": "ids",
          "type": "uint256[]"
        },
        {
          "internalType": "uint256[]",
          "name": "values",
          "type": "uint256[]"
        },
        {
          "internalType": "bytes",
          "name": "data",
          "type": "bytes"
        }
      ],
      "name": "onERC1155BatchReceived",
      "outputs": [
        {
          "internalType": "bytes4",
          "name": "",
          "type": "bytes4"
        }
      ],
      "stateMutability": "nonpayable",
      "type": "function"
    },
    {
      "inputs": [
        {
          "internalType": "address",
          "name": "operator",
          "type": "address"
        },
        {
          "internalType": "address",
          "name": "from",
          "type": "address"
        },
        {
          "internalType": "uint256",
          "name": "id",
          "type": "uint256"
        },
        {
          "internalType": "uint256",
          "name": "value",
          "type": "uint256"
        },
        {
          "internalType": "bytes",
          "name": "data",
          "type": "bytes"
        }
      ],
      "name": "onERC1155Received",
      "outputs": [
        {
          "internalType": "bytes4",
          "name": "",
          "type": "bytes4"
        }
      ],
      "stateMutability": "nonpayable",
      "type": "function"
    },
    {
      "inputs": [
        {
          "internalType": "address",
          "name": "operator",
          "type": "address"
        },
        {
          "internalType": "address",
          "name": "from",
          "type": "address"
        },
        {
          "internalType": "uint256",
          "name": "tokenId",
          "type": "uint256"
        },
        {
          "internalType": "bytes",
          "name": "data",
          "type": "bytes"
        }
      ],
      "name": "onERC721Received",
      "outputs": [
        {
          "internalType": "bytes4",
          "name": "",
          "type": "bytes4"
        }
      ],
      "stateMutability": "nonpayable",
      "type": "function"
    },
    {
      "inputs": [],
      "name": "owner",
      "outputs": [
        {
          "internalType": "address",
          "name": "",
          "type": "address"
        }
      ],
      "stateMutability": "view",
      "type": "function"
    },
    {
      "inputs": [
        {
          "internalType": "address",
          "name": "token",
          "type": "address"
        },
        {
          "internalType": "address",
          "name": "to",
          "type": "address"
        },
        {
          "internalType": "uint256[]",
          "name": "ids",
          "type": "uint256[]"
        },
        {
          "internalType": "uint256[]",
          "name": "amounts",
          "type": "uint256[]"
        }
      ],
      "name": "safeBatchTransferFrom",
      "outputs": [],
      "stateMutability": "nonpayable",
      "type": "function"
    },
    {
      "inputs": [
        {
          "internalType": "contract IERC20",
          "name": "token",
          "type": "address"
        },
        {
          "internalType": "address",
          "name": "to",
          "type": "address"
        },
        {
          "internalType": "uint256",
          "name": "amount",
          "type": "uint256"
        }
      ],
      "name": "safeTransfer",
      "outputs": [],
      "stateMutability": "nonpayable",
      "type": "function"
    },
    {
      "inputs": [
        {
          "internalType": "address",
          "name": "token",
          "type": "address"
        },
        {
          "internalType": "address",
          "name": "to",
          "type": "address"
        },
        {
          "internalType": "uint256",
          "name": "id",
          "type": "uint256"
        },
        {
          "internalType": "uint256",
          "name": "amount",
          "type": "uint256"
        }
      ],
      "name": "safeTransferFrom",
      "outputs": [],
      "stateMutability": "nonpayable",
      "type": "function"
    },
    {
      "inputs": [
        {
          "internalType": "address",
          "name": "token",
          "type": "address"
        },
        {
          "internalType": "address",
          "name": "to",
          "type": "address"
        },
        {
          "internalType": "uint256",
          "name": "tokenId",
          "type": "uint256"
        }
      ],
      "name": "safeTransferFrom",
      "outputs": [],
      "stateMutability": "nonpayable",
      "type": "function"
    },
    {
      "inputs": [
        {
          "internalType": "address payable",
          "name": "to",
          "type": "address"
        },
        {
          "internalType": "uint256",
          "name": "amount",
          "type": "uint256"
        }
      ],
      "name": "sendValue",
      "outputs": [],
      "stateMutability": "nonpayable",
      "type": "function"
    },
    {
      "inputs": [
        {
          "internalType": "address",
          "name": "_owner",
          "type": "address"
        }
      ],
      "name": "setOwner",
      "outputs": [],
      "stateMutability": "nonpayable",
      "type": "function"
    },
    {
      "stateMutability": "payable",
      "type": "receive"
    }
  ],
  "bytecode": "0x608060405234801561001057600080fd5b50600080546001600160a01b03191633179055611147806100326000396000f3fe6080604052600436106100c65760003560e01c80638da5cb5b1161007f578063c45a015511610059578063c45a01551461022d578063d1660f991461024d578063f23a6e611461026d578063fba0ee641461029a57600080fd5b80638da5cb5b146101b35780639c23da50146101eb578063bc197c81146101fe57600080fd5b80630febdd49146100d257806313af4035146100f4578063150b7a021461011457806324a084df1461015e57806341c0e1b51461017e57806342842e0e1461019357600080fd5b366100cd57005b600080fd5b3480156100de57600080fd5b506100f26100ed366004610e39565b6102ba565b005b34801561010057600080fd5b506100f261010f366004610bf4565b61039c565b34801561012057600080fd5b5061014061012f366004610dc8565b630a85bd0160e11b95945050505050565b6040516001600160e01b031990911681526020015b60405180910390f35b34801561016a57600080fd5b506100f2610179366004610c10565b610436565b34801561018a57600080fd5b506100f2610477565b34801561019f57600080fd5b506100f26101ae366004610d88565b61051b565b3480156101bf57600080fd5b506001546101d3906001600160a01b031681565b6040516001600160a01b039091168152602001610155565b6100f26101f9366004610ee6565b6105d8565b34801561020a57600080fd5b50610140610219366004610ccd565b63bc197c8160e01b98975050505050505050565b34801561023957600080fd5b506000546101d3906001600160a01b031681565b34801561025957600080fd5b506100f2610268366004610f59565b610672565b34801561027957600080fd5b50610140610288366004610e7e565b63f23a6e6160e01b9695505050505050565b3480156102a657600080fd5b506100f26102b5366004610c3b565b6106b5565b6001546001600160a01b031633146102ed5760405162461bcd60e51b81526004016102e4906110a8565b60405180910390fd5b60408051600081526020810190915261039590637921219560e11b9061031e9030908790879087906044810161105b565b60408051601f19818403018152918152602080830180516001600160e01b03166001600160e01b0319909516949094179093528051808201909152601c81527f546f6b656e2045524331313535207472616e73666572206661696c2100000000928101929092526001600160a01b038716916107b3565b5050505050565b6000546001600160a01b031633146103e25760405162461bcd60e51b81526020600482015260096024820152683337b93134b23232b760b91b60448201526064016102e4565b600180546001600160a01b0319166001600160a01b0383169081179091556040519081527f3edd90e7770f06fafde38004653b33870066c33bfc923ff6102acd601f85dfbc9060200160405180910390a150565b6001546001600160a01b031633146104605760405162461bcd60e51b81526004016102e4906110a8565b6104736001600160a01b038316826107cc565b5050565b6000546001600160a01b031633146104bd5760405162461bcd60e51b81526020600482015260096024820152683337b93134b23232b760b91b60448201526064016102e4565b600054600154604080516001600160a01b0393841681529290911660208301524782820152517f9e971dac31ebb85d6f6e24058f5dafcff474f655986d82d270be4f2fcda773529181900360600190a16001546001600160a01b0316ff5b6001546001600160a01b031633146105455760405162461bcd60e51b81526004016102e4906110a8565b604080513060248201526001600160a01b03848116604483015260648083018590528351808403909101815260849092018352602080830180516001600160e01b0316632142170760e11b1790528351808501909452601b84527f546f6b656e20455243373231207472616e73666572206661696c210000000000908401526105d29290861691906107b3565b50505050565b600080846001600160a01b03163485856040516105f6929190610fcd565b60006040518083038185875af1925050503d8060008114610633576040519150601f19603f3d011682016040523d82523d6000602084013e610638565b606091505b509150915061066a82826040518060400160405280600a81526020016963616c6c206661696c6560b01b8152506108e5565b505050505050565b6001546001600160a01b0316331461069c5760405162461bcd60e51b81526004016102e4906110a8565b6106b06001600160a01b038416838361091e565b505050565b6001546001600160a01b031633146106df5760405162461bcd60e51b81526004016102e4906110a8565b6107aa637921219560e11b30878787878760006040519080825280601f01601f19166020018201604052801561071c576020820181803683370190505b506040516024016107339796959493929190610ff9565b60408051601f19818403018152918152602080830180516001600160e01b03166001600160e01b0319909516949094179093528051808201909152601c81527f546f6b656e2045524331313535207472616e73666572206661696c2100000000928101929092526001600160a01b038916916107b3565b50505050505050565b60606107c28484600085610970565b90505b9392505050565b8047101561081c5760405162461bcd60e51b815260206004820152601d60248201527f416464726573733a20696e73756666696369656e742062616c616e636500000060448201526064016102e4565b6000826001600160a01b03168260405160006040518083038185875af1925050503d8060008114610869576040519150601f19603f3d011682016040523d82523d6000602084013e61086e565b606091505b50509050806106b05760405162461bcd60e51b815260206004820152603a60248201527f416464726573733a20756e61626c6520746f2073656e642076616c75652c207260448201527f6563697069656e74206d6179206861766520726576657274656400000000000060648201526084016102e4565b606083156108f45750816107c5565b8251156109045782518084602001fd5b8160405162461bcd60e51b81526004016102e49190611095565b604080516001600160a01b038416602482015260448082018490528251808303909101815260649091019091526020810180516001600160e01b031663a9059cbb60e01b1790526106b0908490610a98565b6060824710156109d15760405162461bcd60e51b815260206004820152602660248201527f416464726573733a20696e73756666696369656e742062616c616e636520666f6044820152651c8818d85b1b60d21b60648201526084016102e4565b843b610a1f5760405162461bcd60e51b815260206004820152601d60248201527f416464726573733a2063616c6c20746f206e6f6e2d636f6e747261637400000060448201526064016102e4565b600080866001600160a01b03168587604051610a3b9190610fdd565b60006040518083038185875af1925050503d8060008114610a78576040519150601f19603f3d011682016040523d82523d6000602084013e610a7d565b606091505b5091509150610a8d8282866108e5565b979650505050505050565b6000610aed826040518060400160405280602081526020017f5361666545524332303a206c6f772d6c6576656c2063616c6c206661696c6564815250856001600160a01b03166107b39092919063ffffffff16565b8051909150156106b05780806020019051810190610b0b9190610f39565b6106b05760405162461bcd60e51b815260206004820152602a60248201527f5361666545524332303a204552433230206f7065726174696f6e20646964206e6044820152691bdd081cdd58d8d9595960b21b60648201526084016102e4565b60008083601f840112610b7b578182fd5b50813567ffffffffffffffff811115610b92578182fd5b6020830191508360208260051b8501011115610bad57600080fd5b9250929050565b60008083601f840112610bc5578182fd5b50813567ffffffffffffffff811115610bdc578182fd5b602083019150836020828501011115610bad57600080fd5b600060208284031215610c05578081fd5b81356107c5816110f9565b60008060408385031215610c22578081fd5b8235610c2d816110f9565b946020939093013593505050565b60008060008060008060808789031215610c53578182fd5b8635610c5e816110f9565b95506020870135610c6e816110f9565b9450604087013567ffffffffffffffff80821115610c8a578384fd5b610c968a838b01610b6a565b90965094506060890135915080821115610cae578384fd5b50610cbb89828a01610b6a565b979a9699509497509295939492505050565b60008060008060008060008060a0898b031215610ce8578182fd5b8835610cf3816110f9565b97506020890135610d03816110f9565b9650604089013567ffffffffffffffff80821115610d1f578384fd5b610d2b8c838d01610b6a565b909850965060608b0135915080821115610d43578384fd5b610d4f8c838d01610b6a565b909650945060808b0135915080821115610d67578384fd5b50610d748b828c01610bb4565b999c989b5096995094979396929594505050565b600080600060608486031215610d9c578283fd5b8335610da7816110f9565b92506020840135610db7816110f9565b929592945050506040919091013590565b600080600080600060808688031215610ddf578081fd5b8535610dea816110f9565b94506020860135610dfa816110f9565b935060408601359250606086013567ffffffffffffffff811115610e1c578182fd5b610e2888828901610bb4565b969995985093965092949392505050565b60008060008060808587031215610e4e578384fd5b8435610e59816110f9565b93506020850135610e69816110f9565b93969395505050506040820135916060013590565b60008060008060008060a08789031215610e96578182fd5b8635610ea1816110f9565b95506020870135610eb1816110f9565b94506040870135935060608701359250608087013567ffffffffffffffff811115610eda578283fd5b610cbb89828a01610bb4565b600080600060408486031215610efa578283fd5b8335610f05816110f9565b9250602084013567ffffffffffffffff811115610f20578283fd5b610f2c86828701610bb4565b9497909650939450505050565b600060208284031215610f4a578081fd5b815180151581146107c5578182fd5b600080600060608486031215610d9c578081fd5b81835260006001600160fb1b03831115610f85578081fd5b8260051b80836020870137939093016020019283525090919050565b60008151808452610fb98160208601602086016110cd565b601f01601f19169290920160200192915050565b8183823760009101908152919050565b60008251610fef8184602087016110cd565b9190910192915050565b6001600160a01b0388811682528716602082015260a0604082018190526000906110269083018789610f6d565b8281036060840152611039818688610f6d565b9050828103608084015261104d8185610fa1565b9a9950505050505050505050565b6001600160a01b03868116825285166020820152604081018490526060810183905260a060808201819052600090610a8d90830184610fa1565b6020815260006107c56020830184610fa1565b6020808252600b908201526a6f6e6c79206f776e65722160a81b604082015260600190565b60005b838110156110e85781810151838201526020016110d0565b838111156105d25750506000910152565b6001600160a01b038116811461110e57600080fd5b5056fea2646970667358221220280d9af524a1047307b7555e92c4c8db217a78c5fca19968a92c1db7d8777a4064736f6c63430008040033",
  "linkReferences": {},
  "deployedLinkReferences": {}
}