{
  "_format": "hh-sol-artifact-1",
  "contractName": "ERC721Twitter",
  "sourceName": "contracts/ERC721Twitter.sol",
  "abi": [
    {
      "inputs": [
        {
          "internalType": "string",
          "name": "name",
          "type": "string"
        },
        {
          "internalType": "string",
          "name": "symbol",
          "type": "string"
        }
      ],
      "stateMutability": "nonpayable",
      "type": "constructor"
    },
    {
      "anonymous": false,
      "inputs": [
        {
          "indexed": true,
          "internalType": "address",
          "name": "owner",
          "type": "address"
        },
        {
          "indexed": true,
          "internalType": "address",
          "name": "approved",
          "type": "address"
        },
        {
          "indexed": true,
          "internalType": "uint256",
          "name": "tokenId",
          "type": "uint256"
        }
      ],
      "name": "Approval",
      "type": "event"
    },
    {
      "anonymous": false,
      "inputs": [
        {
          "indexed": true,
          "internalType": "address",
          "name": "owner",
          "type": "address"
        },
        {
          "indexed": true,
          "internalType": "address",
          "name": "operator",
          "type": "address"
        },
        {
          "indexed": false,
          "internalType": "bool",
          "name": "approved",
          "type": "bool"
        }
      ],
      "name": "ApprovalForAll",
      "type": "event"
    },
    {
      "anonymous": false,
      "inputs": [
        {
          "indexed": true,
          "internalType": "bytes32",
          "name": "role",
          "type": "bytes32"
        },
        {
          "indexed": true,
          "internalType": "bytes32",
          "name": "previousAdminRole",
          "type": "bytes32"
        },
        {
          "indexed": true,
          "internalType": "bytes32",
          "name": "newAdminRole",
          "type": "bytes32"
        }
      ],
      "name": "RoleAdminChanged",
      "type": "event"
    },
    {
      "anonymous": false,
      "inputs": [
        {
          "indexed": true,
          "internalType": "bytes32",
          "name": "role",
          "type": "bytes32"
        },
        {
          "indexed": true,
          "internalType": "address",
          "name": "account",
          "type": "address"
        },
        {
          "indexed": true,
          "internalType": "address",
          "name": "sender",
          "type": "address"
        }
      ],
      "name": "RoleGranted",
      "type": "event"
    },
    {
      "anonymous": false,
      "inputs": [
        {
          "indexed": true,
          "internalType": "bytes32",
          "name": "role",
          "type": "bytes32"
        },
        {
          "indexed": true,
          "internalType": "address",
          "name": "account",
          "type": "address"
        },
        {
          "indexed": true,
          "internalType": "address",
          "name": "sender",
          "type": "address"
        }
      ],
      "name": "RoleRevoked",
      "type": "event"
    },
    {
      "anonymous": false,
      "inputs": [
        {
          "indexed": false,
          "internalType": "string",
          "name": "oldName",
          "type": "string"
        },
        {
          "indexed": false,
          "internalType": "string",
          "name": "newName",
          "type": "string"
        },
        {
          "indexed": false,
          "internalType": "uint256",
          "name": "tokenId",
          "type": "uint256"
        }
      ],
      "name": "SetUsername",
      "type": "event"
    },
    {
      "anonymous": false,
      "inputs": [
        {
          "indexed": true,
          "internalType": "address",
          "name": "from",
          "type": "address"
        },
        {
          "indexed": true,
          "internalType": "address",
          "name": "to",
          "type": "address"
        },
        {
          "indexed": true,
          "internalType": "uint256",
          "name": "tokenId",
          "type": "uint256"
        }
      ],
      "name": "Transfer",
      "type": "event"
    },
    {
      "inputs": [],
      "name": "DEFAULT_ADMIN_ROLE",
      "outputs": [
        {
          "internalType": "bytes32",
          "name": "",
          "type": "bytes32"
        }
      ],
      "stateMutability": "view",
      "type": "function"
    },
    {
      "inputs": [],
      "name": "MINTER_ROLE",
      "outputs": [
        {
          "internalType": "bytes32",
          "name": "",
          "type": "bytes32"
        }
      ],
      "stateMutability": "view",
      "type": "function"
    },
    {
      "inputs": [],
      "name": "PERMIT_TYPEHASH",
      "outputs": [
        {
          "internalType": "bytes32",
          "name": "",
          "type": "bytes32"
        }
      ],
      "stateMutability": "view",
      "type": "function"
    },
    {
      "inputs": [
        {
          "internalType": "address",
          "name": "",
          "type": "address"
        }
      ],
      "name": "address2User",
      "outputs": [
        {
          "internalType": "string",
          "name": "",
          "type": "string"
        }
      ],
      "stateMutability": "view",
      "type": "function"
    },
    {
      "inputs": [
        {
          "internalType": "address",
          "name": "to",
          "type": "address"
        },
        {
          "internalType": "uint256",
          "name": "tokenId",
          "type": "uint256"
        }
      ],
      "name": "approve",
      "outputs": [],
      "stateMutability": "nonpayable",
      "type": "function"
    },
    {
      "inputs": [
        {
          "internalType": "address",
          "name": "owner",
          "type": "address"
        }
      ],
      "name": "balanceOf",
      "outputs": [
        {
          "internalType": "uint256",
          "name": "",
          "type": "uint256"
        }
      ],
      "stateMutability": "view",
      "type": "function"
    },
    {
      "inputs": [
        {
          "internalType": "uint256",
          "name": "tokenId",
          "type": "uint256"
        }
      ],
      "name": "getApproved",
      "outputs": [
        {
          "internalType": "address",
          "name": "",
          "type": "address"
        }
      ],
      "stateMutability": "view",
      "type": "function"
    },
    {
      "inputs": [
        {
          "internalType": "bytes32",
          "name": "role",
          "type": "bytes32"
        }
      ],
      "name": "getRoleAdmin",
      "outputs": [
        {
          "internalType": "bytes32",
          "name": "",
          "type": "bytes32"
        }
      ],
      "stateMutability": "view",
      "type": "function"
    },
    {
      "inputs": [
        {
          "internalType": "bytes32",
          "name": "role",
          "type": "bytes32"
        },
        {
          "internalType": "uint256",
          "name": "index",
          "type": "uint256"
        }
      ],
      "name": "getRoleMember",
      "outputs": [
        {
          "internalType": "address",
          "name": "",
          "type": "address"
        }
      ],
      "stateMutability": "view",
      "type": "function"
    },
    {
      "inputs": [
        {
          "internalType": "bytes32",
          "name": "role",
          "type": "bytes32"
        }
      ],
      "name": "getRoleMemberCount",
      "outputs": [
        {
          "internalType": "uint256",
          "name": "",
          "type": "uint256"
        }
      ],
      "stateMutability": "view",
      "type": "function"
    },
    {
      "inputs": [
        {
          "internalType": "bytes32",
          "name": "role",
          "type": "bytes32"
        },
        {
          "internalType": "address",
          "name": "account",
          "type": "address"
        }
      ],
      "name": "grantRole",
      "outputs": [],
      "stateMutability": "nonpayable",
      "type": "function"
    },
    {
      "inputs": [
        {
          "internalType": "bytes32",
          "name": "role",
          "type": "bytes32"
        },
        {
          "internalType": "address",
          "name": "account",
          "type": "address"
        }
      ],
      "name": "hasRole",
      "outputs": [
        {
          "internalType": "bool",
          "name": "",
          "type": "bool"
        }
      ],
      "stateMutability": "view",
      "type": "function"
    },
    {
      "inputs": [
        {
          "internalType": "uint256",
          "name": "userId",
          "type": "uint256"
        }
      ],
      "name": "id2address",
      "outputs": [
        {
          "internalType": "address",
          "name": "",
          "type": "address"
        }
      ],
      "stateMutability": "view",
      "type": "function"
    },
    {
      "inputs": [
        {
          "internalType": "address",
          "name": "owner",
          "type": "address"
        },
        {
          "internalType": "address",
          "name": "operator",
          "type": "address"
        }
      ],
      "name": "isApprovedForAll",
      "outputs": [
        {
          "internalType": "bool",
          "name": "",
          "type": "bool"
        }
      ],
      "stateMutability": "view",
      "type": "function"
    },
    {
      "inputs": [
        {
          "internalType": "address",
          "name": "user",
          "type": "address"
        },
        {
          "internalType": "uint256",
          "name": "tokenId",
          "type": "uint256"
        },
        {
          "internalType": "string",
          "name": "_username",
          "type": "string"
        },
        {
          "internalType": "bytes",
          "name": "signatures",
          "type": "bytes"
        }
      ],
      "name": "mint",
      "outputs": [],
      "stateMutability": "nonpayable",
      "type": "function"
    },
    {
      "inputs": [
        {
          "internalType": "address",
          "name": "user",
          "type": "address"
        },
        {
          "internalType": "uint256",
          "name": "tokenId",
          "type": "uint256"
        },
        {
          "internalType": "string",
          "name": "_username",
          "type": "string"
        }
      ],
      "name": "mint",
      "outputs": [],
      "stateMutability": "nonpayable",
      "type": "function"
    },
    {
      "inputs": [],
      "name": "name",
      "outputs": [
        {
          "internalType": "string",
          "name": "",
          "type": "string"
        }
      ],
      "stateMutability": "view",
      "type": "function"
    },
    {
      "inputs": [
        {
          "internalType": "uint256",
          "name": "tokenId",
          "type": "uint256"
        }
      ],
      "name": "ownerOf",
      "outputs": [
        {
          "internalType": "address",
          "name": "",
          "type": "address"
        }
      ],
      "stateMutability": "view",
      "type": "function"
    },
    {
      "inputs": [
        {
          "internalType": "bytes32",
          "name": "role",
          "type": "bytes32"
        },
        {
          "internalType": "address",
          "name": "account",
          "type": "address"
        }
      ],
      "name": "renounceRole",
      "outputs": [],
      "stateMutability": "nonpayable",
      "type": "function"
    },
    {
      "inputs": [
        {
          "internalType": "bytes32",
          "name": "role",
          "type": "bytes32"
        },
        {
          "internalType": "address",
          "name": "account",
          "type": "address"
        }
      ],
      "name": "revokeRole",
      "outputs": [],
      "stateMutability": "nonpayable",
      "type": "function"
    },
    {
      "inputs": [
        {
          "internalType": "address",
          "name": "from",
          "type": "address"
        },
        {
          "internalType": "address",
          "name": "to",
          "type": "address"
        },
        {
          "internalType": "uint256",
          "name": "tokenId",
          "type": "uint256"
        }
      ],
      "name": "safeTransferFrom",
      "outputs": [],
      "stateMutability": "nonpayable",
      "type": "function"
    },
    {
      "inputs": [
        {
          "internalType": "address",
          "name": "from",
          "type": "address"
        },
        {
          "internalType": "address",
          "name": "to",
          "type": "address"
        },
        {
          "internalType": "uint256",
          "name": "tokenId",
          "type": "uint256"
        },
        {
          "internalType": "bytes",
          "name": "_data",
          "type": "bytes"
        }
      ],
      "name": "safeTransferFrom",
      "outputs": [],
      "stateMutability": "nonpayable",
      "type": "function"
    },
    {
      "inputs": [
        {
          "internalType": "address",
          "name": "operator",
          "type": "address"
        },
        {
          "internalType": "bool",
          "name": "approved",
          "type": "bool"
        }
      ],
      "name": "setApprovalForAll",
      "outputs": [],
      "stateMutability": "nonpayable",
      "type": "function"
    },
    {
      "inputs": [
        {
          "internalType": "uint256",
          "name": "tokenId",
          "type": "uint256"
        },
        {
          "internalType": "string",
          "name": "_username",
          "type": "string"
        },
        {
          "internalType": "bytes",
          "name": "signatures",
          "type": "bytes"
        }
      ],
      "name": "setUsername",
      "outputs": [],
      "stateMutability": "nonpayable",
      "type": "function"
    },
    {
      "inputs": [
        {
          "internalType": "bytes4",
          "name": "interfaceId",
          "type": "bytes4"
        }
      ],
      "name": "supportsInterface",
      "outputs": [
        {
          "internalType": "bool",
          "name": "",
          "type": "bool"
        }
      ],
      "stateMutability": "view",
      "type": "function"
    },
    {
      "inputs": [],
      "name": "symbol",
      "outputs": [
        {
          "internalType": "string",
          "name": "",
          "type": "string"
        }
      ],
      "stateMutability": "view",
      "type": "function"
    },
    {
      "inputs": [
        {
          "internalType": "uint256",
          "name": "index",
          "type": "uint256"
        }
      ],
      "name": "tokenByIndex",
      "outputs": [
        {
          "internalType": "uint256",
          "name": "",
          "type": "uint256"
        }
      ],
      "stateMutability": "view",
      "type": "function"
    },
    {
      "inputs": [
        {
          "internalType": "address",
          "name": "owner",
          "type": "address"
        },
        {
          "internalType": "uint256",
          "name": "index",
          "type": "uint256"
        }
      ],
      "name": "tokenOfOwnerByIndex",
      "outputs": [
        {
          "internalType": "uint256",
          "name": "",
          "type": "uint256"
        }
      ],
      "stateMutability": "view",
      "type": "function"
    },
    {
      "inputs": [
        {
          "internalType": "uint256",
          "name": "_tokenId",
          "type": "uint256"
        }
      ],
      "name": "tokenURI",
      "outputs": [
        {
          "internalType": "string",
          "name": "output",
          "type": "string"
        }
      ],
      "stateMutability": "view",
      "type": "function"
    },
    {
      "inputs": [],
      "name": "totalSupply",
      "outputs": [
        {
          "internalType": "uint256",
          "name": "",
          "type": "uint256"
        }
      ],
      "stateMutability": "view",
      "type": "function"
    },
    {
      "inputs": [
        {
          "internalType": "address",
          "name": "from",
          "type": "address"
        },
        {
          "internalType": "address",
          "name": "to",
          "type": "address"
        },
        {
          "internalType": "uint256",
          "name": "tokenId",
          "type": "uint256"
        }
      ],
      "name": "transferFrom",
      "outputs": [],
      "stateMutability": "nonpayable",
      "type": "function"
    },
    {
      "inputs": [
        {
          "internalType": "string",
          "name": "",
          "type": "string"
        }
      ],
      "name": "user2Address",
      "outputs": [
        {
          "internalType": "address",
          "name": "",
          "type": "address"
        }
      ],
      "stateMutability": "view",
      "type": "function"
    },
    {
      "inputs": [
        {
          "internalType": "uint256",
          "name": "",
          "type": "uint256"
        }
      ],
      "name": "username",
      "outputs": [
        {
          "internalType": "string",
          "name": "",
          "type": "string"
        }
      ],
      "stateMutability": "view",
      "type": "function"
    },
    {
      "inputs": [
        {
          "internalType": "address",
          "name": "user",
          "type": "address"
        },
        {
          "internalType": "uint256",
          "name": "tokenId",
          "type": "uint256"
        },
        {
          "internalType": "string",
          "name": "_username",
          "type": "string"
        },
        {
          "internalType": "bytes",
          "name": "signatures",
          "type": "bytes"
        }
      ],
      "name": "verifySignature",
      "outputs": [
        {
          "internalType": "address",
          "name": "",
          "type": "address"
        }
      ],
      "stateMutability": "view",
      "type": "function"
    }
  ],
  "bytecode": "0x6101206040523480156200001257600080fd5b5060405162003ab038038062003ab0833981016040819052620000359162000446565b604080518082018252600d81526c22a9219b9918aa3bb4ba3a32b960991b60208083019182528351808501855260038152620312e360ec1b81830152835190922060c08181527fe6bbd6277e1bf288eed5e8d1780f9a50b239e86b153736bceebccf4ea79d90b360e08190524660a081815288517f8b73c3c69bb8fe3d512ecc4cf759cc79239f7b179b0ffacaa9a75d522b39400f818801819052818b0187905260608201859052608082019390935230818301528951808203909201825290930190975281519190930120879587959493916080526101005250508351620001289250600091506020850190620002ed565b5080516200013e906001906020840190620002ed565b50620001509150600090503362000184565b6200017c7f9f2df0fed2c77648de5860a4cc508cd0818c85b8b8a1ab4ceeef8d981c8956a63362000184565b505062000500565b6200019b8282620001c760201b6200120b1760201c565b6000828152600b60209081526040909120620001c291839062001219620001d7821b17901c565b505050565b620001d38282620001f7565b5050565b6000620001ee836001600160a01b0384166200029b565b90505b92915050565b6000828152600a602090815260408083206001600160a01b038516845290915290205460ff16620001d3576000828152600a602090815260408083206001600160a01b03851684529091529020805460ff19166001179055620002573390565b6001600160a01b0316816001600160a01b0316837f2f8788117e7eff1d82e926ec794901d17c78024a50270940304540a733656f0d60405160405180910390a45050565b6000818152600183016020526040812054620002e457508154600181810184556000848152602080822090930184905584548482528286019093526040902091909155620001f1565b506000620001f1565b828054620002fb90620004ad565b90600052602060002090601f0160209004810192826200031f57600085556200036a565b82601f106200033a57805160ff19168380011785556200036a565b828001600101855582156200036a579182015b828111156200036a5782518255916020019190600101906200034d565b50620003789291506200037c565b5090565b5b808211156200037857600081556001016200037d565b600082601f830112620003a4578081fd5b81516001600160401b0380821115620003c157620003c1620004ea565b604051601f8301601f19908116603f01168101908282118183101715620003ec57620003ec620004ea565b8160405283815260209250868385880101111562000408578485fd5b8491505b838210156200042b57858201830151818301840152908201906200040c565b838211156200043c57848385830101525b9695505050505050565b6000806040838503121562000459578182fd5b82516001600160401b038082111562000470578384fd5b6200047e8683870162000393565b9350602085015191508082111562000494578283fd5b50620004a38582860162000393565b9150509250929050565b600181811c90821680620004c257607f821691505b60208210811415620004e457634e487b7160e01b600052602260045260246000fd5b50919050565b634e487b7160e01b600052604160045260246000fd5b60805160a05160c05160e0516101005161356b62000545600039600061200a015260006120590152600061203401526000611fb801526000611fe1015261356b6000f3fe608060405234801561001057600080fd5b50600436106102065760003560e01c80639010d07c1161011a578063b88d4fde116100ad578063d3fc98641161007c578063d3fc986414610491578063d5391393146104a4578063d547741f146104b9578063e58b7bc2146104cc578063e985e9c5146104df57600080fd5b8063b88d4fde14610445578063c87b56dd14610458578063ca15c8731461046b578063d2b04fd61461047e57600080fd5b8063a217fddf116100e9578063a217fddf146103e3578063a22cb465146103eb578063ace39487146103fe578063b51896301461043257600080fd5b80639010d07c146103a257806391d14854146103b557806395d89b41146103c857806398bc10ef146103d057600080fd5b80632f2ff15d1161019d57806338f067ca1161016c57806338f067ca1461034357806342842e0e146103565780634f6ccce7146103695780636352211e1461037c57806370a082311461038f57600080fd5b80632f2ff15d146102e35780632f745c59146102f657806330adf81f1461030957806336568abe1461033057600080fd5b806317647e48116101d957806317647e481461028857806318160ddd1461029b57806323b872dd146102ad578063248a9ca3146102c057600080fd5b806301ffc9a71461020b57806306fdde0314610233578063081812fc14610248578063095ea7b314610273575b600080fd5b61021e610219366004612c56565b61051b565b60405190151581526020015b60405180910390f35b61023b61052c565b60405161022a91906130a2565b61025b610256366004612bfb565b6105be565b6040516001600160a01b03909116815260200161022a565b610286610281366004612af9565b610658565b005b61023b6102963660046129d2565b61076e565b6008545b60405190815260200161022a565b6102866102bb366004612a1e565b610808565b61029f6102ce366004612bfb565b6000908152600a602052604090206001015490565b6102866102f1366004612c13565b610839565b61029f610304366004612af9565b61085b565b61029f7f72155a3c4e9393a0a105c91a7f271ab5f92dad1bc88ef69d96e05e831672071d81565b61028661033e366004612c13565b6108f1565b61025b610351366004612bfb565b610913565b610286610364366004612a1e565b61094f565b61029f610377366004612bfb565b61096a565b61025b61038a366004612bfb565b610a0b565b61029f61039d3660046129d2565b610a82565b61025b6103b0366004612c35565b610b09565b61021e6103c3366004612c13565b610b28565b61023b610b53565b6102866103de366004612cd4565b610b62565b61029f600081565b6102866103f9366004612abf565b610de9565b61025b61040c366004612c8e565b8051602081830181018051600d825292820191909301209152546001600160a01b031681565b61023b610440366004612bfb565b610eae565b610286610453366004612a59565b610ec7565b61023b610466366004612bfb565b610eff565b61029f610479366004612bfb565b610fbb565b61028661048c366004612b7a565b610fd2565b61028661049f366004612b22565b61109b565b61029f60008051602061341683398151915281565b6102866104c7366004612c13565b61114b565b61025b6104da366004612b7a565b611155565b61021e6104ed3660046129ec565b6001600160a01b03918216600090815260056020908152604080832093909416825291909152205460ff1690565b60006105268261122e565b92915050565b60606000805461053b90613313565b80601f016020809104026020016040519081016040528092919081815260200182805461056790613313565b80156105b45780601f10610589576101008083540402835291602001916105b4565b820191906000526020600020905b81548152906001019060200180831161059757829003601f168201915b5050505050905090565b6000818152600260205260408120546001600160a01b031661063c5760405162461bcd60e51b815260206004820152602c60248201527f4552433732313a20617070726f76656420717565727920666f72206e6f6e657860448201526b34b9ba32b73a103a37b5b2b760a11b60648201526084015b60405180910390fd5b506000908152600460205260409020546001600160a01b031690565b600061066382610a0b565b9050806001600160a01b0316836001600160a01b031614156106d15760405162461bcd60e51b815260206004820152602160248201527f4552433732313a20617070726f76616c20746f2063757272656e74206f776e656044820152603960f91b6064820152608401610633565b336001600160a01b03821614806106ed57506106ed81336104ed565b61075f5760405162461bcd60e51b815260206004820152603860248201527f4552433732313a20617070726f76652063616c6c6572206973206e6f74206f7760448201527f6e6572206e6f7220617070726f76656420666f7220616c6c00000000000000006064820152608401610633565b6107698383611253565b505050565b600e602052600090815260409020805461078790613313565b80601f01602080910402602001604051908101604052809291908181526020018280546107b390613313565b80156108005780601f106107d557610100808354040283529160200191610800565b820191906000526020600020905b8154815290600101906020018083116107e357829003601f168201915b505050505081565b61081233826112c1565b61082e5760405162461bcd60e51b8152600401610633906131c0565b6107698383836113b8565b6108438282611563565b6000828152600b602052604090206107699082611219565b600061086683610a82565b82106108c85760405162461bcd60e51b815260206004820152602b60248201527f455243373231456e756d657261626c653a206f776e657220696e646578206f7560448201526a74206f6620626f756e647360a81b6064820152608401610633565b506001600160a01b03919091166000908152600660209081526040808320938352929052205490565b6108fb8282611589565b6000828152600b602052604090206107699082611603565b6000818152600c60205260408082209051600d9161093091612e71565b908152604051908190036020019020546001600160a01b031692915050565b61076983838360405180602001604052806000815250610ec7565b600061097560085490565b82106109d85760405162461bcd60e51b815260206004820152602c60248201527f455243373231456e756d657261626c653a20676c6f62616c20696e646578206f60448201526b7574206f6620626f756e647360a01b6064820152608401610633565b600882815481106109f957634e487b7160e01b600052603260045260246000fd5b90600052602060002001549050919050565b6000818152600260205260408120546001600160a01b0316806105265760405162461bcd60e51b815260206004820152602960248201527f4552433732313a206f776e657220717565727920666f72206e6f6e657869737460448201526832b73a103a37b5b2b760b91b6064820152608401610633565b60006001600160a01b038216610aed5760405162461bcd60e51b815260206004820152602a60248201527f4552433732313a2062616c616e636520717565727920666f7220746865207a65604482015269726f206164647265737360b01b6064820152608401610633565b506001600160a01b031660009081526003602052604090205490565b6000828152600b60205260408120610b219083611618565b9392505050565b6000918252600a602090815260408084206001600160a01b0393909316845291905290205460ff1690565b60606001805461053b90613313565b6000610b713386868686611155565b9050610b8b60008051602061341683398151915282610b28565b610ba75760405162461bcd60e51b815260040161063390613211565b8383604051602001610bba92919061308e565b60408051601f1981840301815282825280516020918201206000898152600c8352929092209192610bec9291016130ed565b604051602081830303815290604052805190602001201415610c405760405162461bcd60e51b815260206004820152600d60248201526c73616d6520757365726e616d6560981b6044820152606401610633565b6000858152600c602052604081208054610c5990613313565b80601f0160208091040260200160405190810160405280929190818152602001828054610c8590613313565b8015610cd25780601f10610ca757610100808354040283529160200191610cd2565b820191906000526020600020905b815481529060010190602001808311610cb557829003601f168201915b505050505090506000600d82604051610ceb9190612e0c565b908152604051908190036020018120546001600160a01b03169150600d90610d14908490612e0c565b908152604080516020928190038301902080546001600160a01b03191690556000898152600c9092529020610d4a908787612848565b5080600d8787604051610d5e929190612dfc565b908152604080516020928190038301902080546001600160a01b0319166001600160a01b039485161790559183166000908152600e90915220610da2908787612848565b507fca91f6e6d48fbcf27b1197f0a32af305f2b3e623de6f46ffa42857bb3ff0544e8287878a604051610dd894939291906130b5565b60405180910390a150505050505050565b6001600160a01b038216331415610e425760405162461bcd60e51b815260206004820152601960248201527f4552433732313a20617070726f766520746f2063616c6c6572000000000000006044820152606401610633565b3360008181526005602090815260408083206001600160a01b03871680855290835292819020805460ff191686151590811790915590519081529192917f17307eab39ab6107e8899845ad3d59bd9653f200f220920489ca2b5937696c31910160405180910390a35050565b600c602052600090815260409020805461078790613313565b610ed133836112c1565b610eed5760405162461bcd60e51b8152600401610633906131c0565b610ef984848484611624565b50505050565b606060405180610120016040528061010081526020016134366101009139905080600c6000848152602001908152602001600020604051602001610f44929190612e28565b60405160208183030381529060405290506000610f91610f6384611657565b610f6c84611771565b604051602001610f7d929190612e7d565b604051602081830303815290604052611771565b905080604051602001610fa49190612f97565b604051602081830303815290604052915050919050565b6000818152600b60205260408120610526906118e5565b6000610fe18686868686611155565b9050610ffb60008051602061341683398151915282610b28565b6110175760405162461bcd60e51b815260040161063390613211565b6000858152600c60205260409020611030908585612848565b5085600d8585604051611044929190612dfc565b908152604080516020928190038301902080546001600160a01b0319166001600160a01b039485161790559188166000908152600e90915220611088908585612848565b5061109386866118ef565b505050505050565b6110b360008051602061341683398151915233610b28565b6110cf5760405162461bcd60e51b815260040161063390613211565b6000838152600c602052604090206110e8908383612848565b5083600d83836040516110fc929190612dfc565b908152604080516020928190038301902080546001600160a01b0319166001600160a01b039485161790559186166000908152600e90915220611140908383612848565b50610ef984846118ef565b6108fb8282611a3d565b6000806111f47f72155a3c4e9393a0a105c91a7f271ab5f92dad1bc88ef69d96e05e831672071d88888888604051602001611191929190612dfc565b604051602081830303815290604052805190602001206040516020016111d994939291909384526001600160a01b039290921660208401526040830152606082015260800190565b60405160208183030381529060405280519060200120611a63565b90506112008184611ab1565b979650505050505050565b6112158282611ad5565b5050565b6000610b21836001600160a01b038416611b5b565b60006001600160e01b03198216635a05180f60e01b1480610526575061052682611baa565b600081815260046020526040902080546001600160a01b0319166001600160a01b038416908117909155819061128882610a0b565b6001600160a01b03167f8c5be1e5ebec7d5bd14f71427d1e84f3dd0314c0f7b2291e5b200ac8c7c3b92560405160405180910390a45050565b6000818152600260205260408120546001600160a01b031661133a5760405162461bcd60e51b815260206004820152602c60248201527f4552433732313a206f70657261746f7220717565727920666f72206e6f6e657860448201526b34b9ba32b73a103a37b5b2b760a11b6064820152608401610633565b600061134583610a0b565b9050806001600160a01b0316846001600160a01b031614806113805750836001600160a01b0316611375846105be565b6001600160a01b0316145b806113b057506001600160a01b0380821660009081526005602090815260408083209388168352929052205460ff165b949350505050565b826001600160a01b03166113cb82610a0b565b6001600160a01b0316146114335760405162461bcd60e51b815260206004820152602960248201527f4552433732313a207472616e73666572206f6620746f6b656e2074686174206960448201526839903737ba1037bbb760b91b6064820152608401610633565b6001600160a01b0382166114955760405162461bcd60e51b8152602060048201526024808201527f4552433732313a207472616e7366657220746f20746865207a65726f206164646044820152637265737360e01b6064820152608401610633565b6114a0838383611bcf565b6114ab600082611253565b6001600160a01b03831660009081526003602052604081208054600192906114d49084906132b9565b90915550506001600160a01b038216600090815260036020526040812080546001929061150290849061326e565b909155505060008181526002602052604080822080546001600160a01b0319166001600160a01b0386811691821790925591518493918716917fddf252ad1be2c89b69c2b068fc378daa952ba7f163c4a11628f55a4df523b3ef91a4505050565b6000828152600a602052604090206001015461157f8133611c87565b6107698383611ad5565b6001600160a01b03811633146115f95760405162461bcd60e51b815260206004820152602f60248201527f416363657373436f6e74726f6c3a2063616e206f6e6c792072656e6f756e636560448201526e103937b632b9903337b91039b2b63360891b6064820152608401610633565b6112158282611ceb565b6000610b21836001600160a01b038416611d52565b6000610b218383611e6f565b61162f8484846113b8565b61163b84848484611ea7565b610ef95760405162461bcd60e51b81526004016106339061316e565b60608161167b5750506040805180820190915260018152600360fc1b602082015290565b8160005b81156116a5578061168f8161334e565b915061169e9050600a83613286565b915061167f565b60008167ffffffffffffffff8111156116ce57634e487b7160e01b600052604160045260246000fd5b6040519080825280601f01601f1916602001820160405280156116f8576020820181803683370190505b5090505b84156113b05761170d6001836132b9565b915061171a600a86613369565b61172590603061326e565b60f81b81838151811061174857634e487b7160e01b600052603260045260246000fd5b60200101906001600160f81b031916908160001a90535061176a600a86613286565b94506116fc565b805160609080611791575050604080516020810190915260008152919050565b600060036117a083600261326e565b6117aa9190613286565b6117b590600461329a565b905060006117c482602061326e565b67ffffffffffffffff8111156117ea57634e487b7160e01b600052604160045260246000fd5b6040519080825280601f01601f191660200182016040528015611814576020820181803683370190505b50905060006040518060600160405280604081526020016133d6604091399050600181016020830160005b868110156118a0576003818a01810151603f601282901c8116860151600c83901c8216870151600684901c831688015192909316870151600891821b60ff94851601821b92841692909201901b91160160e01b83526004909201910161183f565b5060038606600181146118ba57600281146118cb576118d7565b613d3d60f01b6001198301526118d7565b603d60f81b6000198301525b505050918152949350505050565b6000610526825490565b6001600160a01b0382166119455760405162461bcd60e51b815260206004820181905260248201527f4552433732313a206d696e7420746f20746865207a65726f20616464726573736044820152606401610633565b6000818152600260205260409020546001600160a01b0316156119aa5760405162461bcd60e51b815260206004820152601c60248201527f4552433732313a20746f6b656e20616c7265616479206d696e746564000000006044820152606401610633565b6119b660008383611bcf565b6001600160a01b03821660009081526003602052604081208054600192906119df90849061326e565b909155505060008181526002602052604080822080546001600160a01b0319166001600160a01b03861690811790915590518392907fddf252ad1be2c89b69c2b068fc378daa952ba7f163c4a11628f55a4df523b3ef908290a45050565b6000828152600a6020526040902060010154611a598133611c87565b6107698383611ceb565b6000610526611a70611fb4565b8360405161190160f01b6020820152602281018390526042810182905260009060620160405160208183030381529060405280519060200120905092915050565b6000806000611ac085856120a7565b91509150611acd81612117565b509392505050565b611adf8282610b28565b611215576000828152600a602090815260408083206001600160a01b03851684529091529020805460ff19166001179055611b173390565b6001600160a01b0316816001600160a01b0316837f2f8788117e7eff1d82e926ec794901d17c78024a50270940304540a733656f0d60405160405180910390a45050565b6000818152600183016020526040812054611ba257508154600181810184556000848152602080822090930184905584548482528286019093526040902091909155610526565b506000610526565b60006001600160e01b03198216637965db0b60e01b148061052657506105268261231b565b6001600160a01b038316611c2a57611c2581600880546000838152600960205260408120829055600182018355919091527ff3f7a9fe364faab93b216da50a3214154f22a0a2b415b23a84c8169e8b636ee30155565b611c4d565b816001600160a01b0316836001600160a01b031614611c4d57611c4d8382612340565b6001600160a01b038216611c6457610769816123dd565b826001600160a01b0316826001600160a01b0316146107695761076982826124b6565b611c918282610b28565b61121557611ca9816001600160a01b031660146124fa565b611cb48360206124fa565b604051602001611cc5929190612fdc565b60408051601f198184030181529082905262461bcd60e51b8252610633916004016130a2565b611cf58282610b28565b15611215576000828152600a602090815260408083206001600160a01b0385168085529252808320805460ff1916905551339285917ff6391f5c32d9c69d2a47ea670b442974b53935d1edc7fd64eb21e047a839171b9190a45050565b60008181526001830160205260408120548015611e65576000611d766001836132b9565b8554909150600090611d8a906001906132b9565b9050818114611e0b576000866000018281548110611db857634e487b7160e01b600052603260045260246000fd5b9060005260206000200154905080876000018481548110611de957634e487b7160e01b600052603260045260246000fd5b6000918252602080832090910192909255918252600188019052604090208390555b8554869080611e2a57634e487b7160e01b600052603160045260246000fd5b600190038181906000526020600020016000905590558560010160008681526020019081526020016000206000905560019350505050610526565b6000915050610526565b6000826000018281548110611e9457634e487b7160e01b600052603260045260246000fd5b9060005260206000200154905092915050565b60006001600160a01b0384163b15611fa957604051630a85bd0160e11b81526001600160a01b0385169063150b7a0290611eeb903390899088908890600401613051565b602060405180830381600087803b158015611f0557600080fd5b505af1925050508015611f35575060408051601f3d908101601f19168201909252611f3291810190612c72565b60015b611f8f573d808015611f63576040519150601f19603f3d011682016040523d82523d6000602084013e611f68565b606091505b508051611f875760405162461bcd60e51b81526004016106339061316e565b805181602001fd5b6001600160e01b031916630a85bd0160e11b1490506113b0565b506001949350505050565b60007f000000000000000000000000000000000000000000000000000000000000000046141561200357507f000000000000000000000000000000000000000000000000000000000000000090565b50604080517f00000000000000000000000000000000000000000000000000000000000000006020808301919091527f0000000000000000000000000000000000000000000000000000000000000000828401527f000000000000000000000000000000000000000000000000000000000000000060608301524660808301523060a0808401919091528351808403909101815260c0909201909252805191012090565b6000808251604114156120de5760208301516040840151606085015160001a6120d2878285856126dc565b94509450505050612110565b82516040141561210857602083015160408401516120fd8683836127c9565b935093505050612110565b506000905060025b9250929050565b600081600481111561213957634e487b7160e01b600052602160045260246000fd5b14156121425750565b600181600481111561216457634e487b7160e01b600052602160045260246000fd5b14156121b25760405162461bcd60e51b815260206004820152601860248201527f45434453413a20696e76616c6964207369676e617475726500000000000000006044820152606401610633565b60028160048111156121d457634e487b7160e01b600052602160045260246000fd5b14156122225760405162461bcd60e51b815260206004820152601f60248201527f45434453413a20696e76616c6964207369676e6174757265206c656e677468006044820152606401610633565b600381600481111561224457634e487b7160e01b600052602160045260246000fd5b141561229d5760405162461bcd60e51b815260206004820152602260248201527f45434453413a20696e76616c6964207369676e6174757265202773272076616c604482015261756560f01b6064820152608401610633565b60048160048111156122bf57634e487b7160e01b600052602160045260246000fd5b14156123185760405162461bcd60e51b815260206004820152602260248201527f45434453413a20696e76616c6964207369676e6174757265202776272076616c604482015261756560f01b6064820152608401610633565b50565b60006001600160e01b0319821663780e9d6360e01b14806105265750610526826127f8565b6000600161234d84610a82565b61235791906132b9565b6000838152600760205260409020549091508082146123aa576001600160a01b03841660009081526006602090815260408083208584528252808320548484528184208190558352600790915290208190555b5060009182526007602090815260408084208490556001600160a01b039094168352600681528383209183525290812055565b6008546000906123ef906001906132b9565b6000838152600960205260408120546008805493945090928490811061242557634e487b7160e01b600052603260045260246000fd5b90600052602060002001549050806008838154811061245457634e487b7160e01b600052603260045260246000fd5b600091825260208083209091019290925582815260099091526040808220849055858252812055600880548061249a57634e487b7160e01b600052603160045260246000fd5b6001900381819060005260206000200160009055905550505050565b60006124c183610a82565b6001600160a01b039093166000908152600660209081526040808320868452825280832085905593825260079052919091209190915550565b6060600061250983600261329a565b61251490600261326e565b67ffffffffffffffff81111561253a57634e487b7160e01b600052604160045260246000fd5b6040519080825280601f01601f191660200182016040528015612564576020820181803683370190505b509050600360fc1b8160008151811061258d57634e487b7160e01b600052603260045260246000fd5b60200101906001600160f81b031916908160001a905350600f60fb1b816001815181106125ca57634e487b7160e01b600052603260045260246000fd5b60200101906001600160f81b031916908160001a90535060006125ee84600261329a565b6125f990600161326e565b90505b600181111561268d576f181899199a1a9b1b9c1cb0b131b232b360811b85600f166010811061263b57634e487b7160e01b600052603260045260246000fd5b1a60f81b82828151811061265f57634e487b7160e01b600052603260045260246000fd5b60200101906001600160f81b031916908160001a90535060049490941c93612686816132fc565b90506125fc565b508315610b215760405162461bcd60e51b815260206004820181905260248201527f537472696e67733a20686578206c656e67746820696e73756666696369656e746044820152606401610633565b6000807f7fffffffffffffffffffffffffffffff5d576e7357a4501ddfe92f46681b20a083111561271357506000905060036127c0565b8460ff16601b1415801561272b57508460ff16601c14155b1561273c57506000905060046127c0565b6040805160008082526020820180845289905260ff881692820192909252606081018690526080810185905260019060a0016020604051602081039080840390855afa158015612790573d6000803e3d6000fd5b5050604051601f1901519150506001600160a01b0381166127b9576000600192509250506127c0565b9150600090505b94509492505050565b6000806001600160ff1b03831660ff84901c601b016127ea878288856126dc565b935093505050935093915050565b60006001600160e01b031982166380ac58cd60e01b148061282957506001600160e01b03198216635b5e139f60e01b145b8061052657506301ffc9a760e01b6001600160e01b0319831614610526565b82805461285490613313565b90600052602060002090601f01602090048101928261287657600085556128bc565b82601f1061288f5782800160ff198235161785556128bc565b828001600101855582156128bc579182015b828111156128bc5782358255916020019190600101906128a1565b506128c89291506128cc565b5090565b5b808211156128c857600081556001016128cd565b600067ffffffffffffffff808411156128fc576128fc6133a9565b604051601f8501601f19908116603f01168101908282118183101715612924576129246133a9565b8160405280935085815286868601111561293d57600080fd5b858560208301376000602087830101525050509392505050565b80356001600160a01b038116811461296e57600080fd5b919050565b600082601f830112612983578081fd5b610b21838335602085016128e1565b60008083601f8401126129a3578182fd5b50813567ffffffffffffffff8111156129ba578182fd5b60208301915083602082850101111561211057600080fd5b6000602082840312156129e3578081fd5b610b2182612957565b600080604083850312156129fe578081fd5b612a0783612957565b9150612a1560208401612957565b90509250929050565b600080600060608486031215612a32578081fd5b612a3b84612957565b9250612a4960208501612957565b9150604084013590509250925092565b60008060008060808587031215612a6e578081fd5b612a7785612957565b9350612a8560208601612957565b925060408501359150606085013567ffffffffffffffff811115612aa7578182fd5b612ab387828801612973565b91505092959194509250565b60008060408385031215612ad1578182fd5b612ada83612957565b915060208301358015158114612aee578182fd5b809150509250929050565b60008060408385031215612b0b578182fd5b612b1483612957565b946020939093013593505050565b60008060008060608587031215612b37578384fd5b612b4085612957565b935060208501359250604085013567ffffffffffffffff811115612b62578283fd5b612b6e87828801612992565b95989497509550505050565b600080600080600060808688031215612b91578081fd5b612b9a86612957565b945060208601359350604086013567ffffffffffffffff80821115612bbd578283fd5b612bc989838a01612992565b90955093506060880135915080821115612be1578283fd5b50612bee88828901612973565b9150509295509295909350565b600060208284031215612c0c578081fd5b5035919050565b60008060408385031215612c25578182fd5b82359150612a1560208401612957565b60008060408385031215612c47578182fd5b50508035926020909101359150565b600060208284031215612c67578081fd5b8135610b21816133bf565b600060208284031215612c83578081fd5b8151610b21816133bf565b600060208284031215612c9f578081fd5b813567ffffffffffffffff811115612cb5578182fd5b8201601f81018413612cc5578182fd5b6113b0848235602084016128e1565b60008060008060608587031215612ce9578182fd5b84359350602085013567ffffffffffffffff80821115612d07578384fd5b612d1388838901612992565b90955093506040870135915080821115612d2b578283fd5b50612ab387828801612973565b60008151808452612d508160208601602086016132d0565b601f01601f19169290920160200192915050565b81835281816020850137506000828201602090810191909152601f909101601f19169091010190565b60008154612d9a81613313565b60018281168015612db25760018114612dc357612df2565b60ff19841687528287019450612df2565b8560005260208060002060005b85811015612de95781548a820152908401908201612dd0565b50505082870194505b5050505092915050565b8183823760009101908152919050565b60008251612e1e8184602087016132d0565b9190910192915050565b60008351612e3a8184602088016132d0565b600160fe1b908301908152612e526001820185612d8d565b6c1e17ba32bc3a1f1e17b9bb339f60991b8152600d0195945050505050565b6000610b218284612d8d565b6e7b276e616d65273a20274e4654202360881b815260008351612ea781600f8501602088016132d0565b7f272c20276465736372697074696f6e273a2027566f6c7473776170206c6f636b600f918401918201527f732c2063616e206265207573656420746f20626f6f7374206761756765207969602f8201527f656c64732c20766f7465206f6e20746f6b656e20656d697373696f6e2c20616e604f8201527f64207265636569766520627269626573272c2027696d616765273a2027646174606f8201527f613a696d6167652f7376672b786d6c3b6261736536342c000000000000000000608f8201528351612f7c8160a68401602088016132d0565b61277d60f01b60a6929091019182015260a801949350505050565b7f646174613a6170706c69636174696f6e2f6a736f6e3b6261736536342c000000815260008251612fcf81601d8501602087016132d0565b91909101601d0192915050565b7f416363657373436f6e74726f6c3a206163636f756e74200000000000000000008152600083516130148160178501602088016132d0565b7001034b99036b4b9b9b4b733903937b6329607d1b60179184019182015283516130458160288401602088016132d0565b01602801949350505050565b6001600160a01b038581168252841660208201526040810183905260806060820181905260009061308490830184612d38565b9695505050505050565b6020815260006113b0602083018486612d64565b602081526000610b216020830184612d38565b6060815260006130c86060830187612d38565b82810360208401526130db818688612d64565b91505082604083015295945050505050565b6000602080835281845461310081613313565b80848701526040600180841660008114613121576001811461313557613160565b60ff19851689840152606089019550613160565b898852868820885b858110156131585781548b820186015290830190880161313d565b8a0184019650505b509398975050505050505050565b60208082526032908201527f4552433732313a207472616e7366657220746f206e6f6e20455243373231526560408201527131b2b4bb32b91034b6b83632b6b2b73a32b960711b606082015260800190565b60208082526031908201527f4552433732313a207472616e736665722063616c6c6572206973206e6f74206f6040820152701ddb995c881b9bdc88185c1c1c9bdd9959607a1b606082015260800190565b60208082526037908201527f4552433732314d696e7465724275726e65725061757365723a206d757374206860408201527f617665206d696e74657220726f6c6520746f206d696e74000000000000000000606082015260800190565b600082198211156132815761328161337d565b500190565b60008261329557613295613393565b500490565b60008160001904831182151516156132b4576132b461337d565b500290565b6000828210156132cb576132cb61337d565b500390565b60005b838110156132eb5781810151838201526020016132d3565b83811115610ef95750506000910152565b60008161330b5761330b61337d565b506000190190565b600181811c9082168061332757607f821691505b6020821081141561334857634e487b7160e01b600052602260045260246000fd5b50919050565b60006000198214156133625761336261337d565b5060010190565b60008261337857613378613393565b500690565b634e487b7160e01b600052601160045260246000fd5b634e487b7160e01b600052601260045260246000fd5b634e487b7160e01b600052604160045260246000fd5b6001600160e01b03198116811461231857600080fdfe4142434445464748494a4b4c4d4e4f505152535455565758595a6162636465666768696a6b6c6d6e6f707172737475767778797a303132333435363738392b2f9f2df0fed2c77648de5860a4cc508cd0818c85b8b8a1ab4ceeef8d981c8956a63c73766720786d6c6e733d27687474703a2f2f7777772e77332e6f72672f323030302f73766727207072657365727665417370656374526174696f3d27784d696e594d696e206d656574272076696577426f783d273020302033353020333530273e3c7374796c653e2e62617365207b2066696c6c3a20626c61636b3b20666f6e742d66616d696c793a20496d706163743b20666f6e742d73697a653a20353070783b207d3c2f7374796c653e3c726563742077696474683d273130302527206865696768743d2731303025272066696c6c3d272361616161666627202f3e3c7465787420783d2731302720793d2736302720636c6173733d2762617365273ea2646970667358221220044776ad0746255a01f1c0bba00cb4bcba39f00caa9b7edb2d7edadfb9735b5264736f6c63430008040033",
  "linkReferences": {},
  "deployedLinkReferences": {}
}